:10000000002000105D010000F5010000FD0100006E
:1000100000000000000000000000000000000000E0
:1000200000000000000000000000000005020000C9
:1000300000000000000000000D020000150200009A
:100040001D0200001D0200001D0200001D02000034
:100050001D0200001D0200001D0200001D02000024
:100060001D0200001D020000000000000000000052
:1000700000000000000000001D0200001D02000042
:100080001D0200001D0200001D0200001D020000F4
:100090001D020000A52400001D0200001D0200003A
:1000A0001D020000F51F00001D0200001D020000DF
:1000B00000000000000000001D0200000000000021
:1000C0004840000000000010080000004840000008
:1000D000004000200000000008000010000A00009E
:1000E000004000200000000080B588B000AFF8603C
:1000F000B9607A60BB68FB61FB68BB6100237B6110
:100100000AE0FB691A1DFA61BA69111DB96112682A
:100110001A607B6904337B617A697B689A42F0D309
:10012000BD4608B080BDC04680B584B000AF7860E1
:1001300039607B68FB600023BB6007E0FB681A1D29
:10014000FA6000221A60BB680433BB60BA683B687F
:100150009A42F3D3BD4604B080BDC04680B586B098
:1001600000AF204B3B613B691B68C02212051A435C
:100170003B691A601C4B7B6116E07B691A1D7A6132
:100180001B68FB607B691A1D7A611B68BB607B6919
:100190001A1D7A611B687B60F968BA687B68081C65
:1001A000111C1A1CFFF7A0FF7A69104B9A42E4D386
:1001B0000FE07B691A1D7A611B68BB607B691A1DA1
:1001C0007A611B687B60BA687B68101C191CFFF79A
:1001D000ABFF7A69064B9A42EBD302F02BFC02F09C
:1001E00069FCFEE780800440C0000000D8000000E9
:1001F000E800000080B500AFFEE7C04680B500AF64
:10020000FEE7C04680B500AFFEE7C04680B500AF50
:10021000FEE7C04680B500AFFEE7C04680B500AF40
:10022000FEE7C046FFFFFFFFFFFFFFFFFFFFFFFFEF
:10023000FFFFFFFFFFFFFFFFFFFFFFFFFFFFFFFFCE
:10024000FFFFFFFFFFFFFFFFFFFFFFFFFFFFFFFFBE
:10025000FFFFFFFFFFFFFFFFFFFFFFFFFFFFFFFFAE
:10026000FFFFFFFFFFFFFFFFFFFFFFFFFFFFFFFF9E
:10027000FFFFFFFFFFFFFFFFFFFFFFFFFFFFFFFF8E
:10028000FFFFFFFFFFFFFFFFFFFFFFFFFFFFFFFF7E
:10029000FFFFFFFFFFFFFFFFFFFFFFFFFFFFFFFF6E
:1002A000FFFFFFFFFFFFFFFFFFFFFFFFFFFFFFFF5E
:1002B000FFFFFFFFFFFFFFFFFFFFFFFFFFFFFFFF4E
:1002C000FFFFFFFFFFFFFFFFFFFFFFFFFFFFFFFF3E
:1002D000FFFFFFFFFFFFFFFFFFFFFFFFFFFFFFFF2E
:1002E000FFFFFFFFFFFFFFFFFFFFFFFFFFFFFFFF1E
:1002F000FFFFFFFFFFFFFFFFFFFFFFFFFFFFFFFF0E
:1003000080B582B000AF021CFB1D1A70064BFA1DAF
:100310001278111C1F220A40012191400A1C1A6008
:10032000BD4602B080BDC04600E100E080B582B0AD
:1003300000AF021CFB1D1A70074AFB1D1B78191C1D
:100340001F230B40012199400B1C191C8023D15005
:10035000BD4602B080BDC04600E100E080B582B07D
:1003600000AF7860154B00229A60144B00221A618E
:10037000134B1B68134A934203D1104B2F22DA60B0
:1003800002E00E4B0B22DA600C4B05225A610B4B3C
:100390007A689A61C046094B9A697B689A42FAD199
:1003A000064B01225A60C046044B5B680122134091
:1003B000FAD1C046BD4602B080BDC04600C0004074
:1003C00004000010006CDC0280B582B000AF7860E1
:1003D00006E00A4B181CFFF7C1FF7B68413B7B60BE
:1003E0007B68402BF5DC7B68FA2292005343181C93
:1003F000FFF7B4FFC046BD4602B080BDE8FD000077
:1004000080B500AF2F492F4A8D239B00D3588022FF
:1004100093431A1C8D239B00CA502A4B00221A6753
:10042000284B00225A67274B01225A67254B00228E
:100430001A64244B00225A64224B01225A64214937
:10044000204A8E239B00D35880221A438E239B0080
:10045000CA501C4B23229A601A491A4A8E239B00C9
:10046000D358802293431A1C8E239B00CA5001202C
:100470000D21002201F05EFD01200E21002201F07D
:1004800059FD0120FFF7A0FFC0460E4BDB68002B93
:10049000FBD001200D21012201F04CFD01200E2195
:1004A000012201F047FD074B03221A67054B00228A
:1004B0005A67044B01225A67034B044A1A60BD462F
:1004C00080BDC0460080044004000010006CDC02C7
:1004D00080B500AF01200D21002201F02BFD01208D
:1004E0000E21012201F026FD394B394A126A012101
:1004F0000A431A623649364A8E239B00D35810228B
:1005000093431A1C8E239B00CA503149304A8E23D4
:100510009B00D358402293431A1C8E239B00CA5041
:100520002B492B4A8023D3588022134380228B509F
:100530002749274A8023D358802252001343802220
:100540008B502349224A8023D358802292001343A0
:1005500080228B501E491E4A8023D3588022D2000D
:10056000134380228B501A49194A8023D358802282
:100570001202134380228B501549154A8023D35809
:100580008022D202134380228B501149104A8023CB
:10059000D35880225201134380228B500C490C4ABD
:1005A0008023D35880229201134380228B50084A23
:1005B0009C230821D150064B054A526804210A4366
:1005C0005A60034A98230121D150C046BD4680BDE0
:1005D0000080044080B582B000AF78607B68181C52
:1005E00000F062FB7B68181C002102F097F902F012
:1005F000BFF80123181CBD4602B080BD80B584B091
:1006000000AF78607B68181C00F0C8FC031CFB601E
:10061000FB68002B01DA01230BE0C046074B5B6946
:10062000064BFA68FF210A401A600120FFF7CCFE52
:100630000023181CBD4604B080BDC04600800040A9
:10064000F0B58DB000AFF8616B461E1C314B1B68D6
:10065000002B01D1012358E00023FB622D4B1B68C6
:10066000BB621520FFF762FE2A4B1B685A1E7A6296
:100670001A1C3A6100227A6138697969021C520FAA
:1006800038617961C90079607968114379603A69A4
:10069000D2003A601A1CBA600022FA60B868F968A1
:1006A000021C520FB860F960CD001543BA68D4003F
:1006B0000733DB08DB006A46D31A9D466B460033DE
:1006C0003B62396A134B1B68134A081C111C1A1C25
:1006D00002F026FB01F0CAFE1520FFF711FE0EE026
:1006E0003A6AFB6AD3181B781A1CFB69181C111C88
:1006F00000F00CFC031E02D1FB6A0133FB62BB6AF3
:100700005A1CFB6A9A42EBDA0023B546181CBD4618
:100710000DB0F0BD080000101400001090B5E94CB9
:10072000A54404AF00200221002201F0C3FB0020F9
:100730000721002201F0BEFB00201421012201F05C
:10074000B9FB00201421012201F0F4FB01200D214E
:10075000012201F0AFFB01200E21012201F0AAFBD2
:1007600001201B21012201F0A5FB00201121012203
:1007700001F0A0FB00201121002201F0DBFBFFF7BC
:10078000A7FEFFF73DFE012026211A220D2301F0CE
:1007900067FC0123009300230193002302930023AD
:1007A0000393012008210022012301F0AFFC2F2038
:1007B0002E2101F0BBFD96239B01181C01F080FE49
:1007C000C14BF322D200BA18D2188023DB00BF49F4
:1007D000D150BD4BF322D2009446BC446344BC4983
:1007E000BC4A5A50AA235B00FB18181C00F05AFBA5
:1007F000B94B181C00F058FAAA235B00FB18181C10
:100800000021002200F0C2FAB44B181C00F04CFA90
:100810000023B34ABA1813600023F222D200BA1898
:1008200013600023AF4ABA18136001F003FF64207D
:10083000FFF7CAFD01F0D8FEAB4B181CFFF7CAFE4C
:100840002F202E2101F024FD2420252101F06EFD12
:1008500096239B01181C01F033FEA44B181CFFF7D4
:10086000B9FEAA235B00FB18181C00F0B7FE031E9C
:1008700025D1E1235B02181C01F022FE9C4B181CC1
:10088000FFF7A8FEAA235B00FB18181C00F0A6FEC9
:10089000031E14D19623DB01181C01F011FE954BA9
:1008A000181CFFF797FEAA235B00FB18181C00F02A
:1008B00095FE031E03D1904B181CFFF78BFEAA2355
:1008C0005B00FB18181C00F089FEAA235B00F918D6
:1008D00096239A010023009300230193081C111C06
:1008E0000822032300F090FE96239B01181C01F0C0
:1008F000E7FDAA235B00FB18181C00F06FFEAA237B
:100900005B00FB18181C012100F0FCFE03E07B4B90
:10091000181C00F0C9F9AA235B00F918784A794B32
:10092000081C111C1A1C00F01FFF031EEFD1282306
:10093000FB18181C0321082200F028FA724B181C1F
:1009400000F0B2F9AA235B00F918704A2823FB18BB
:10095000081C111C1A1C00F0B5FB6D4B181C00F094
:10096000A3F92823FB18181C0321082200F00EFA13
:100970002823FB18181C00F097F9AA235B00FA182B
:100980002823FB18101C191C00F0F6FF2823FB1865
:10099000181C00F089F95F4B181CFFF71BFEAA23F7
:1009A0005B00FA182823FB18101C191C01F054F8DE
:1009B000FA23DB00181CFFF707FDAA235B00F918D8
:1009C000554A564C564B0093081C0021231C01F03D
:1009D000B3F8544B181C00F067F905E0AA235B003C
:1009E000FB18181C01F09CF9374BF322D2009446F7
:1009F000BC4463444C4A9B58012BEFDD4B4B181C05
:100A000000F052F9AA235B00FA182823FB18101CE7
:100A1000191C01F0E9F92823FB18181C00F044F90F
:100A20003C4B181CFFF7D6FDAA235B00FA182823BD
:100A3000FB18101C191C01F0D7F92823FB18181CEF
:100A400000F032F9334B181CFFF7C4FDAA235B00FA
:100A5000FA182823FB18101C191C01F0C5F92823CB
:100A6000FB18181C00F020F92A4B181CFFF7B2FDE8
:100A7000AA235B00FB18181C00F056FFAA235B009A
:100A8000F918224A2823FB18081C111C1A1C00F014
:100A900019FBFA23DB00181CFFF796FCAA235B0066
:100AA000F918234A2823FB18081C111C1A1C00F0F3
:100AB00009FB204B181CFFF787FC1F4B181C00F08C
:100AC000F3F8FEE754F8FFFFBCF9FFFF4106000012
:100AD00004040000FD050000803400008C34000098
:100AE000940700008C070000903400009C34000044
:100AF000A4340000B0340000BC340000D034000046
:100B0000EC340000043500001035000030350000E2
:100B10004035000060350000643500006835000095
:100B20000A1A0000783500003406000090350000F5
:100B3000AC350000B80B0000B435000080B586B0BD
:100B400000AF786064237B6101233B611323FB606A
:100B5000544B1B68002B13D03A69FB68101C191CFE
:100B6000012201F0A7F93A69FB68101C191C012247
:100B700001F0E0F90A20FFF727FC4A4B00221A6037
:100B80003A69FB68101C191C002201F0D3F97B693B
:100B9000181CFFF7E3FB7B68012213403969FA68F0
:100BA000081C111C1A1C01F0C5F97B69181CFFF701
:100BB000D5FB7B68022213405B103969FA68081C78
:100BC000111C1A1C01F0B6F97B69181CFFF7C6FB53
:100BD0007B68042213409B103969FA68081C111CB9
:100BE0001A1C01F0A7F97B69181CFFF7B7FB7B689B
:100BF00008221340DB103969FA68081C111C1A1C02
:100C000001F098F97B69181CFFF7A8FB7B6810229C
:100C100013401B113969FA68081C111C1A1C01F0D9
:100C200089F97B69181CFFF799FB7B682022134028
:100C30005B113969FA68081C111C1A1C01F07AF959
:100C40007B69181CFFF78AFB7B68402213409B11CD
:100C50003969FA68081C111C1A1C01F06BF97B69D0
:100C6000181CFFF77BFB7B6880221340DB1139697E
:100C7000FA68081C111C1A1C01F05CF97B69181C2D
:100C8000FFF76CFB3A69FB68101C191C012201F08C
:100C900051F97B69181CFFF761FBC046BD4606B0E1
:100CA00080BDC0460000001080B584B000AF786001
:100CB0000023FB6009E0FB687A68D3181B78181CD6
:100CC000FFF73CFFFB680133FB60FB687A68D318D1
:100CD0001B78002B02D0FB68C72BECDDC046BD465D
:100CE00004B080BD80B584B000AF786039600B235C
:100CF000FB1801221A700A23FB1814221A700B2306
:100D0000FB181B78002B0FD00A23FB181A787B687E
:100D100053437B607868396802F0E2FA031C7B6019
:100D20000A23FB181B783B600023FB600D20FFF7B4
:100D300005FF124B181CFFF7B7FF06E0104B181CFD
:100D4000FFF7B2FFFB680133FB60FA687B689A42E9
:100D5000F4DB06E00B4B181CFFF7A6FFFB68013322
:100D6000FB60FA683B689A42F4DB074B181CFFF7FC
:100D70009BFFC046BD4604B080BDC046CC350000D8
:100D8000D0350000D4350000D835000080B588B0DB
:100D900000AFF860B9607A600023FB61FA68102345
:100DA000FB18101C191C102201F0E6FE184B181C31
:100DB000FFF77AFFFB68181C01F088FF021C7B68B4
:100DC0009B1A0233FB6106E0124B181CFFF76CFF05
:100DD000FB69013BFB61FB69002BF5DC1023FB1871
:100DE000181CFFF761FFBB680122134003D00A4BB8
:100DF000181CFFF759FFBB680222134003D0074BB2
:100E0000181CFFF751FFC046BD4608B080BDC04664
:100E1000E8350000DC350000E0350000E435000076
:100E200080B582B000AF78607B68FA2252001A6009
:100E30007A68FC235B000021D1507A68FE235B00B6
:100E40000021D1507B6800221A717B6800225A7100
:100E50000023181CBD4602B080BDC04680B582B0DC
:100E600000AF78607A6880239B00FA214900D15056
:100E70007A68FE239B000021D1507A68FF239B00F3
:100E80000021D1507A6881239B000021D1547B68D6
:100E9000034A002199540023181CBD4602B080BDAE
:100EA0000502000080B582B000AF78607B68181C36
:100EB000FFF7B6FF7B68181CFFF7D0FF7A68812325
:100EC000DB000021D1547B680D4A002199507B68DA
:100ED0000C49FA2252005A507A68C123DB000021E3
:100EE000D1507A688223DB000021D1547B68064A06
:100EF000002199540023181CBD4602B080BDC04695
:100F000034060000040600001104000080B582B021
:100F100000AF78600A1CFB1C1A707A68FE235B0025
:100F2000D2587B681B689A4201DB012331E07A6862
:100F3000FC235B00D3587968FA1CCB1812781A711D
:100F40007A68FC235B00D35801337A68D3180022F7
:100F50001A717A68FC235B00D358591C7A68FC2309
:100F60005B00D1507A68FC235B00D2587B681B6819
:100F70009A4204DD7A68FC235B000021D1507A6834
:100F8000FE235B00D358591C7A68FE235B00D150C6
:100F90000023181CBD4602B080BDC04680B584B099
:100FA00000AF78607A68FF239B00D358002B01D1F3
:100FB000184B2AE07A68FE239B00D2587968FF23F9
:100FC0009B00CB58D31AFB60FB68002B06DA7A68CB
:100FD00080239B00D358FA68D318FB600B23FB18BF
:100FE000786880229200F96841188A1812791A707C
:100FF0007A68FF239B00D358591E7A68FF239B0011
:10100000D1500B23FB181B789BB21BB2181CBD469A
:1010100004B080BDFFFF000080B584B000AF7860F1
:1010200039600023FB602DE07A68FF239B00D258D3
:10103000796880239B00CB589A4220DA7A68FE2395
:101040009B00D258FB683968CB18187879688023E0
:101050009B008A18D318021C1A717A68FF239B0020
:10106000D358591C7A68FF239B00D1507A68FE231D
:101070009B00D358591C7A68FE239B00D150FB6813
:101080000133FB60FB683A68D3181B78002BCBD187
:101090000023181CBD4604B080BDC04680B582B098
:1010A00000AF78607B68181CFFF7FEFD7B68181C9A
:1010B000002101F033FC01F05BFB0123181CBD464D
:1010C00002B080BD80B58AB000AFF860B9607A60C8
:1010D00000237B627B6800221A701723FB181E22F4
:1010E0001A702323FB1800221A7000233B6100238F
:1010F000002B03D0C94B181CFFF7D6FDFA68BB685C
:10110000101C191CFFF788FFFB68181CFFF788FEEE
:10111000FA68FC235B00D358FB61BB68181C01F024
:10112000D5FD021CFB699B18FB61FB690233FB6167
:10113000FA68BB4B101C191CFFF76EFF05E0FB683B
:10114000B84A9B58FA68101C9847FA68FF239B001E
:10115000D358002BF3D1B44B181CFFF79FFFBB688B
:10116000181CFFF79BFFB14B181CFFF797FF28E0F7
:10117000FA688023DB00D358FA68101C98472323B1
:10118000FB181A782323FB1801321A702323FA184C
:101190001723FB1812781B789A4200D317E02323F9
:1011A000FB181A781723FB181B78013B101C191C1D
:1011B000FFF798FD9E4B181CFFF776FD6420FFF7A4
:1011C00003F9FA68FE235B00D358012BD0DDC0463B
:1011D000FA688023DB00D358FA68101C9847031C78
:1011E0001A1C01235340DBB2002BF1D11723FB184B
:1011F0001B785A1E1723FB181B78013B101C191C67
:10120000FFF770FD2323FA181723FB1812781B78B9
:101210009A4209D3874B181CFFF740FF834B181CD9
:10122000FFF73CFF00234DE12323FB1800221A7037
:101230000023002B03D0804B181CFFF735FD7EE008
:10124000FA688023DB00D358FA68101C9847FB68C3
:101250001A1D7A4B101C191C01F08EFD031E0BD0B9
:10126000774B181CFFF71AFF7A68744B101C191C77
:1012700001F00AFD002325E1FB681A1D714B101CCB
:10128000191C01F079FD031E0BD06F4B181CFFF7E2
:1012900005FF7A686B4B101C191C01F0F5FC00234C
:1012A00010E1FB681A1D694B101C191C01F064FD4C
:1012B000031E0BD0664B181CFFF7F0FE7A68634BD9
:1012C000101C191C01F0E0FC0023FBE0FB681A1D58
:1012D000F968FC235B00CB58181CF968FE235B00FF
:1012E000CB58C31AFA2149004B43D218594B101C52
:1012F000191C01F041FD031C7B622323FB181A78A3
:101300002323FB1801321A702323FA181723FB1822
:1013100012781B789A4200D315E02323FB181A7821
:101320001723FB181B78013B101C191CFFF7DAFC74
:10133000494B181CFFF7B8FC6420FFF745F87B6A9F
:10134000002B00D17CE71723FB181B785A1E1723AC
:10135000FB181B78013B101C191CFFF7C3FC334B17
:10136000181CFFF79BFE0023002B03D03B4B181CDF
:10137000FFF79AFC2323FA181723FB1812781B781F
:101380009A4205D32B4B181CFFF788FE002399E0E7
:101390000023002B03D0324B181CFFF785FCFA68A2
:1013A000FC235B00D258FB69D31A3B613B69053BC8
:1013B0003B610023002B03D02A4B181CFFF774FC61
:1013C000FB69FA68D3181A1D79683B69081C111C5F
:1013D0001A1C01F0A5FCBB68181C01F077FC031C6B
:1013E000FB610023002B03D01F4B181CFFF75CFC94
:1013F0000023FB6102E0FB690133FB61FB697A6852
:10140000D3181B780D2BF6D0FB697A68D3181B789C
:101410000A2BF0D00023BB6136E0C046F035000057
:1014200004360000040400000836000010360000F6
:10143000143600001C36000028360000403600003C
:1014400048360000543600005C3600006836000064
:10145000703600007C3600008036000088360000C0
:10146000A0360000B8360000D0360000BB697A68AC
:10147000D318B969FA698A18111C7A685218127857
:101480001A70BB690133BB61BA693B699A42EDD3FB
:10149000FB693A69D31A7A68D31800221A700023BC
:1014A000002B03D0094B181CFFF7FEFB0023002B79
:1014B00003D0074B181CFFF7F7FB064B181CFFF770
:1014C000F3FB0123181CBD460AB080BDE8360000BE
:1014D000003700001837000080B596B000AF786084
:1014E000396079683A680823FB18081C111C1A1C1B
:1014F000FFF7E8FD031E01D0012300E00023181CC4
:10150000BD4616B080BDC04680B584B000AF7860DF
:1015100039607B68181CFFF783FCC0467A6880231B
:10152000DB00D3587A68101C9847031C1A1C01234F
:101530005340DBB2002BF1D10023FB607B681A1D06
:101540007968FC235B00CB58181C7968FE235B008C
:10155000CB58C31AFA2149004B43D2181C4B101C1C
:10156000191C01F009FC031CFB60FB68002B01D176
:10157000012328E0C0467A688023DB00D3587A68CC
:10158000101C9847031C1A1C01235340DBB2002B8C
:10159000F1D1104B181CFFF781FDFB68181CFFF7F9
:1015A0007DFD0D4B181CFFF779FDFB68181C01F041
:1015B0008DFB031C01333968FA68081C111C1A1CC6
:1015C00001F081FA0023181CBD4604B080BDC0465E
:1015D0002C370000343700001036000080B582B090
:1015E00000AF78607A68074B101C191CFFF774FF76
:1015F000031E01D0012300E00023181CBD4602B0E9
:1016000080BDC0464437000080B58EB000AFF860A2
:10161000B960191CFB1D1A70BB1D0A1C1A7010231F
:10162000FA182E4B101C191C01F02EFBBA689623D9
:101630009B019A4207D11023FA18294B101C191C40
:1016400001F0F2FA18E0BA689623DB019A4207D15A
:101650001023FA18234B101C191C01F0E5FA0BE0BB
:10166000BA68E1235B029A4206D11023FA181E4B96
:10167000101C191C01F0D8FA1023FA181B4B101C6F
:10168000191C01F0D1FA1023FA18194B101C191C5F
:1016900001F0CAFA1023FA18164B101C191C01F09D
:1016A000C3FA154B181CFFF7FFFAFA681023FB1852
:1016B000101C191CFFF710FF031E05D00F4B181C40
:1016C000FFF7F2FA012304E00D4B181CFFF7ECFAC8
:1016D0000023181CBD460EB080BDC0465037000028
:1016E000603700006837000070370000783700006E
:1016F0007C3700008437000088370000A4370000E2
:10170000BC37000080B582B000AF786039603B68BC
:10171000002B0ED07A68114B101C191CFFF7DCFE51
:10172000031E15D03B68D9B27B680D4A995401233A
:101730000FE07A680B4B101C191CFFF7CDFE031E3F
:1017400006D03B68D9B27B68054A9954012300E072
:101750000023181CBD4602B080BDC046F83700000B
:10176000090400000438000080B59CB000AFF860A8
:10177000B9607A600023FB660A237B665C4B181C09
:10178000FFF792FABB68181CFFF78EFA594B181C2A
:10179000FFF78AFA7B68181CFFF786FA564B181C6D
:1017A000FFF782FA1423FA18544B101C191C01F08D
:1017B0006BFA1423FA18524B101C191C01F034FA5E
:1017C0001423FA18BB68101C191C01F02DFA1423FD
:1017D000FA184B4B101C191C01F026FA1423FA18A6
:1017E000484B101C191C01F01FFA1423FA18444B23
:1017F000101C191C01F018FA1423FA187B68101C2D
:10180000191C01F011FA1423FA183D4B101C191C75
:1018100001F00AFAFA681423FB18101C191CFFF7D0
:101820005BFE031E01D000235EE01423FA18364B42
:10183000101C191C01F028FA51E0F968334A1423EE
:10184000FB18081C111C1A1CFFF73CFC031E19D0C6
:101850001423FB18181CFFF727FA1423FA182C4B33
:10186000101C191C01F088FA031E05D0294B181C06
:10187000FFF71AFA002337E0274B181CFFF714FA7A
:10188000012331E01423FA18244B101C191C01F019
:1018900073FA031E1BD0224B181CFFF705FA002316
:1018A000BB660CE0BB6E181C0A21FFF71BFAFA237B
:1018B0005B00181CFEF788FDBB6E0133BB66BB6E78
:1018C0000A2BEFDD174B181CFFF7EEF904E0FA23A3
:1018D0009B00181CFEF778FDFB6E0133FB66FA6E69
:1018E0007B6E9A42A9DB0123181CBD461CB080BD4B
:1018F000103800002838000010360000383800008A
:1019000048380000783700004C380000503800009C
:10191000603800006C3800008C3800006836000029
:10192000A43800000436000080B582B000AF7860B3
:101930000D4B181CFFF7B8F97A680C4B101C191CDA
:10194000FFF7CAFD031E05D0094B181CFFF7ACF9C1
:10195000002304E0074B181CFFF7A6F90123181C0D
:10196000BD4602B080BDC046C8380000D83800006F
:10197000E43800000039000080B584B000AF786022
:1019800039602D4B181CFFF78FF979682B4A3B689B
:10199000081C111C1A1CFFF795FB031E43D03A6864
:1019A000274B101C191C01F0E7F9031CFB60244BAA
:1019B000181C01F08BF9031C1A1CFB689B18FB60B8
:1019C0003B68181C01F082F9031C01333968FA687E
:1019D000081C111C1A1C01F076F83A68194B101CEF
:1019E000191C01F0C9F9031CFB60FB68002B09D12D
:1019F000154B181CFFF758F9144B181CFFF754F936
:101A0000012315E0FB6800221A70114B181CFFF728
:101A10004BF93B68181CFFF747F90E4B181CFFF7F2
:101A200043F9002304E0094B181CFFF73DF901239B
:101A3000181CBD4604B080BD1039000020390000DC
:101A40002C390000483800003C39000054390000AF
:101A5000603900001036000080B584B000AF7860B7
:101A600039602D4B181CFFF71FF979682B4A3B682A
:101A7000081C111C1A1CFFF725FB031E43D03A68F3
:101A8000274B101C191C01F077F9031CFB60244B39
:101A9000181C01F01BF9031C1A1CFB689B18FB6047
:101AA0003B68181C01F012F9031C01333968FA680D
:101AB000081C111C1A1C01F006F83A68194B101C7E
:101AC000191C01F059F9031CFB60FB68002B09D1BC
:101AD000154B181CFFF7E8F8144B181CFFF7E4F837
:101AE000012315E0FB6800221A70114B181CFFF748
:101AF000DBF83B68181CFFF7D7F80E4B181CFFF7F4
:101B0000D3F8002304E0094B181CFFF7CDF801239C
:101B1000181CBD4604B080BD743900002039000097
:101B2000843900004838000094390000AC390000C6
:101B3000BC3900001036000080B59CB000AFF860E2
:101B40007A603B600B23FB180A1C1A700B23FB18EE
:101B50001A781C23FB18101C191C0A2201F00CF81F
:101B60007823FB181A881423FB18101C191C0A224E
:101B700001F002F87A685A4B101C191C01F062F847
:101B8000031E00D194E07A68564B101C191C01F01A
:101B900059F8031E00D089E02023FA18524B101C7C
:101BA000191C01F071F8FB68504A9B5C002B15D1A1
:101BB0004F4B181CFFF778F83B68181CFFF774F8B8
:101BC0004C4B181CFFF770F81423FB18181CFFF778
:101BD0006BF8494B181CFFF767F825E02023FA182B
:101BE0001C23FB18101C191C01F01EF8434B181C79
:101BF000FFF75AF81C23FB18181CFFF755F8404B49
:101C0000181CFFF751F83B68181CFFF74DF8394BCB
:101C1000181CFFF749F81423FB18181CFFF744F8A9
:101C2000354B181CFFF740F82023FA18354B101CD1
:101C3000191C00F0F9FF2023FA187B68101C191CEE
:101C400000F0F2FF2023FA182F4B101C191C00F093
:101C5000EBFF2023FA183B68101C191C00F0E4FF6E
:101C60002023FA18294B101C191C00F0DDFF20233B
:101C7000FA181423FB18101C191C00F0D5FF2023A0
:101C8000FA18234B101C191C00F0CEFF2023FA1861
:101C90001423FB18101C191C00F0C6FF2023FA188F
:101CA0001C4B101C191C00F0BFFF01E0012313E0C6
:101CB000FA682023FB18101C191CFFF70DFC031EEB
:101CC00005D0154B181CFEF7EFFF002304E0134B63
:101CD000181CFEF7E9FF0123181CBD461CB080BD8F
:101CE000303A0000343A0000383A0000090400009D
:101CF000483A0000643A0000103A0000683A0000D8
:101D00007C3A0000843A0000883A00008C3A0000D7
:101D100078370000903A0000943A0000A03A0000A2
:101D200080B590B000AF78600023FB637A68082329
:101D3000FB18101C191CFFF7E7FB031E4BD07B6838
:101D4000274A9B587968C122D2008A588221C9004B
:101D50008C46624479688A1879688333FF339B0024
:101D6000CB185A6029E07A68C123DB00D2580823D7
:101D7000F918FB6BCB18187879688223DB008A1876
:101D8000D318021C1A707A68C123DB00D358591C7F
:101D90007A68C123DB00D150FB6B0133FB637A68A7
:101DA000C123DB00D2587B680E495B589A4204DDA0
:101DB0007A68C123DB000021D1500823FA18FB6B9D
:101DC000D3181B78002BCED17B68054A9B585A1C30
:101DD0007B6803495A500023181CBD4610B080BDD3
:101DE000340600000406000080B584B000AF7860BF
:101DF00039600023FB607B682B4A9B58002B01D184
:101E000001234DE07B68294A9B58BB601BE0FB68BF
:101E1000BA68D2187B6826495B588221C9008C4673
:101E200063447968CB189A4202D9BB68043BBB6013
:101E3000FB683A68D318FA68B9688A1812781A7079
:101E4000FB680133FB607A68FB688333FF339B00D8
:101E5000D3185B68002BDAD17B68134A9B585A1E53
:101E60007B6811495A500023FB6012E0FB685A1C42
:101E700079688223DB008A18D3181878796882235E
:101E8000DB00FA688A18D318021C1A70FB68013349
:101E9000FB607B68044A9A58FB689A42E6DC0023A0
:101EA000181CBD4604B080BD340600000C060000BE
:101EB0000406000080B584B000AFF860B9607A60B5
:101EC0007B68002B17D0A023DB05A022D205F96880
:101ED000802000018446614489008A58B968012045
:101EE0008840011C1143FA68802000018446624446
:101EF0009200D15019E0A023DB05A022D205F96899
:101F0000802000018446614489008A58B968012014
:101F10008840011CFF200140C9431140FA6880201D
:101F20000001844662449200D150C046BD4604B0D0
:101F300080BDC04680B584B000AFF860B9607A60FB
:101F40007B68012B31D87B68002B17D0A023DB05E1
:101F5000A022D205F96888200001844661448900E6
:101F60008A58B96801208840011C1143FA6888200A
:101F70000001844662449200D15016E0A023DB05A4
:101F8000A022D205F9688A200001844661448900B4
:101F90008A58B96801208840011C1143FA688A20D8
:101FA0000001844662449200D150C046BD4604B050
:101FB00080BDC04680B582B000AF021CFB1D1A7008
:101FC000074AFB1D1B78191C1F230B400121994058
:101FD0000B1C191C8023D150BD4602B080BDC046E9
:101FE00000E100E080B500AF00F01CF80123181CF0
:101FF000BD4680BD80B500AF044B044A126808217D
:102000000A431A60FFF7EEFFBD4680BD0040004066
:1020100080B500AFFEF75CFAFEF7F2F90123181C59
:10202000BD4680BD80B500AF0A4B00221A600A4948
:10203000094A85239B00D358084A1A4085239B00F0
:10204000CA501920FFF7B6FFFFF7E2FF0123181C63
:10205000BD4680BD0080034000800440FFEFFFFFCD
:1020600080B584B000AFF860B9607A603B60FB680F
:10207000002B00D1FEE7FB68012B40D1BB68112B80
:1020800006D1214B204A526D02210A435A650AE0CB
:10209000BB68262B07D11C491B4AB823D358022200
:1020A0001343B8228B507B681E2B06D1164B164A61
:1020B000926D02210A439A650AE07B681A2B07D1C8
:1020C0001149114AB423D35802221343B4228B502E
:1020D0003B682B2B08D10C490B4A9C23D358032275
:1020E00013439C228B500AE03B680D2B07D1064915
:1020F000054AB023D35802221343B0228B50C04666
:10210000BD4604B080BDC0460040044080B586B0E6
:1021100000AFF860B9607A603B6000237B61BB6808
:10212000013BBB60BB68022B01DC0323BB60BB68C7
:102130000F221340BB607B68032B01D100237B601F
:102140007B68032213407B603B68012213403B60A5
:102150003B6A012213403B627B6AFF2213407B6291
:102160007B681A01BB681A433B689B011A433B6AB0
:10217000DB011A437B6A1B0213437B61FB68002B64
:1021800003D11D4B7A691A6005E0FB68012B02D16F
:102190001A4B7A691A6000237B61BB6A9B007B61E2
:1021A000FB68002B08D1144B7A695A60124B7A698C
:1021B00002210A435A600AE0FB68012B07D10F4B4A
:1021C0007A695A600D4B7A6902210A435A60FB6AA8
:1021D000FE221340FB62FB68002B03D1064BFA6A18
:1021E0001A6105E0FB68012B02D1044BFA6A1A61FF
:1021F000C046BD4606B080BD0000044000800540DA
:1022000080B582B000AF786039607B68002B0FD159
:10221000C046124BDB6802221340FAD00F4B3A68DB
:102220009A60C0460D4BDB6810221340FAD112E0D1
:102230007B68012B0ED1C046094BDB68022213409C
:10224000FAD0074B3A689A60C046054BDB6810220B
:102250001340FAD1C046BD4602B080BD0000044024
:102260000080054080B582B000AF021CFB1D1A70D3
:10227000064BFA1D1278111C1F220A4001219140C1
:102280000A1C1A60BD4602B080BDC04600E100E0F5
:1022900080B582B000AF78607B682F2B06D1224BCF
:1022A000214AD26C07218A43DA6438E07B680C2B20
:1022B00008D11D491C4ACC23D35807229343CC2272
:1022C0008B502CE07B68242B08D11749164A9423A5
:1022D000D3580722934394228B5020E07B682E2B07
:1022E00006D1114B104A926C07218A439A6416E07A
:1022F0007B680B2B08D10C490B4AC823D358072203
:102300009343C8228B500AE07B68252B07D10649EE
:10231000054A9823D3580722934398228B50C046EE
:10232000BD4602B080BDC0460040044080B582B0CA
:1023300000AF786039607B68181CFFF7A9FF3B6825
:10234000181CFFF7A5FF7B682F2B06D1214B214AD4
:10235000D26C01210A43DA6416E07B680C2B08D1A9
:102360001C491C4ACC23D35802221343CC228B5045
:102370000AE07B68242B07D11649164A9423D358C8
:102380000322134394228B503B682E2B06D1114B12
:10239000104A926C01210A439A6416E03B680B2BA9
:1023A00008D10C490B4AC823D35802221343C82230
:1023B0008B500AE03B68252B07D10649054A982334
:1023C000D3580322134398228B50C046BD4602B017
:1023D00080BDC0460040044080B500AF2CE0A02383
:1023E000DA0588239B0180218902D1501A4B0122F2
:1023F0001A701A4B1B681A1C194BD218194B1B6800
:10240000DBB21370A023DA058A239B0180218902A5
:10241000D150124B1B68C72B05DC104B1B685A1C94
:102420000E4B1A6003E0104B181CFEF73DFC0A4BE4
:1024300000221A700B4B5B690A4B5B690122134047
:10244000CDD1064B1B681A1C054BD31800221A70FD
:10245000C046BD4680BDC0460C00001008000010FC
:102460001400001000800040B03A000080B500AFBA
:10247000FFF7B2FF084B084A926802210A439A60AC
:10248000064B00221A60064B00221A70044B0022F1
:102490005A70C046BD4680BD008000400800001054
:1024A0001400001080B500AF044B1B78DBB2002B8A
:1024B00001D1FFF791FFBD4680BDC0460C00001062
:1024C00080B584B000AF78602B492B4A8023D35865
:1024D00080225201134380228B50274A98230121E6
:1024E000D150254B9A6F254B1B685343191C224A28
:1024F0009823D3587A6853431B01081C191C00F019
:10250000F2FE031CFB60FA68131C5B019B1A9B0024
:102510009B181433DB09FB60194BC1229A62184BDC
:102520008322DA60164BFA68120A5A60144BFA6872
:10253000FF210A401A60124B0322DA60104B072277
:102540009A600F4B0E4A526804210A435A600C4BA2
:102550000B4A526801210A435A60094B084A9268A3
:102560009A60FFF783FF1520FFF77CFE0123181CFC
:10257000BD4604B080BDC046008004400400001089
:102580000080004080B500AF01201C210022FFF731
:10259000D1FC01201C210122FFF7CCFCC046BD4626
:1025A00080BDC04680B582B000AF002000F0BCF80E
:1025B000002000F0C9F800237B600EE000233B60A0
:1025C00005E0002000F08CF83B6801333B603B687D
:1025D000052BF6DD7B6801337B607B68532BEDDDDB
:1025E000C046BD4602B080BD80B582B000AF0023BA
:1025F0007B6016E000233B600DE00D497A68131CF8
:102600005B009B185B003A689B189B0000225A50A5
:102610003B6801333B603B68052BEEDD7B68013393
:102620007B607B68532BE5DDC046BD4602B080BDB4
:10263000DC00001080B500AF01201C210122FFF753
:1026400039FC01201D210122FFF734FC01201F214C
:102650000122FFF72FFC012016210122FFF72AFC9F
:10266000012014210122FFF725FC01201D21012258
:10267000FFF760FC012014210022FFF75BFCFFF74D
:1026800081FF212000F03EF8902000F03BF8202050
:1026900000F038F8092000F035F80D2000F032F88D
:1026A0000C2000F02FF8FFF77DFFC046BD4680BD2F
:1026B00080B582B000AF786001201D210022FFF7B5
:1026C00039FC7B680120191CFFF79AFD01201D21B0
:1026D0000122FFF72FFCC046BD4602B080BDC046B8
:1026E00080B582B000AF786001201F210122FFF782
:1026F00021FC7B68181CFFF7DBFFC046BD4602B01B
:1027000080BDC04680B582B000AF786001201F2137
:102710000022FFF70FFC7B68181CFFF7C9FFC046BB
:10272000BD4602B080BDC04680B582B000AF7860C3
:102730007B68802213437B607B68181CFFF7E2FFF5
:10274000C046BD4602B080BD80B582B000AF7860A3
:102750007B68472213407B607B68402213437B6089
:102760007B68181CFFF7CEFFC046BD4602B080BD97
:1027700080B582B000AF0020FFF7D6FF0020FFF742
:10278000E3FF00233B6020E000237B600FE0124961
:102790007A68131C5B009B185B003A689B189B00CF
:1027A0005B58181CFFF79CFF7B6801337B607B68DC
:1027B000532BECDD0020FFF7B7FF3B680133181CFB
:1027C000FFF7C2FF3B6801333B603B68062BDBDD54
:1027D000C046BD4602B080BDDC00001080B584B0AC
:1027E00000AF78600023BB6021E00023FB6017E0AE
:1027F000BB68581C1B49FA68131C5B009B185B00E4
:102800001B189B0058581749FA68131C5B009B184B
:102810005B00BA689B189B005850FB680133FB6053
:10282000FB68522BE4DDBA687B68D318BB60BB68D9
:10283000042BDADD0023FB600DE00A49FA68131C63
:102840005B009B185B00BA689B189B0000225A50E3
:10285000FB680133FB60FB68522BEEDDBD4604B024
:1028600080BDC046DC00001080B588B000AFF860C5
:10287000B9607A600023FB610023BB611723FB185A
:10288000FA681A703BE0BB68062B00DD3EE0FA6890
:10289000FB69D218131C5B009B185B001A1CBB69F8
:1028A000D318542B00DD31E0FA68FB69D218131CF1
:1028B0005B009B185B001A1CBB69D218FB69796826
:1028C000CB181B78191C0B1C9B005918BB69CB1823
:1028D0001049CB5C181C1049131C5B009B185B0053
:1028E000BA689B189B005850BB690133BB61BB6938
:1028F000042B04DDFB690133FB610023BB61FB6931
:102900007A68D3181B78002BBDD1C046BD4608B0ED
:1029100080BDC046183B0000DC00001080B584B0CC
:1029200000AF78600A1CFB1C1A700F23FB180022F2
:102930001A700C23FB1800225A707B68181C00F0D8
:10294000C5F9021C0E23FB181A7062E00F23FB1856
:102950001B787A68D3181B780A2B10D1334B1B785D
:102960000133DAB2314B1A70304B1B78052B43D947
:102970000120FFF733FF2D4B05221A703CE00F2397
:10298000FB181B787A68D3181B780D2B03D1284BC2
:1029900000221A7030E00F23FB181B787A68D318D6
:1029A0001A780C23FB181A70214B1B78191C1F4B2B
:1029B0001B781A1C0C23FB18081C111C1A1CFFF78F
:1029C00053FF1B4B1B780133DAB2194B1A70184BAB
:1029D0001B780D2B10D9154B1B78042B06D8134BE5
:1029E0001B780133DAB2114B1A7002E00120FFF7B5
:1029F000F5FE0F4B00221A700F23FB181A780F23D5
:102A0000FB1801321A70FB1C1B78002B01D0FFF75A
:102A1000AFFE0F23FA180E23FB1812781B789A4288
:102A200094D3C046BD4604B080BDC0460D00001022
:102A30000E0000108E2120201C4B89005A5882B0B5
:102A400082435A5000221A620192019AC72A03D87F
:102A5000C046019A0132F7E7012200211A645A6444
:102A600059645A640121586C104A0842FAD0002077
:102A700010675167506751670121586F0B4A084230
:102A8000FAD08E23802091679B00D158C00001436B
:102A90008020D150D15840000143D1508021044AB8
:102AA0004902D36F0B43D36702B0704700800440E4
:102AB00004800440002008B5011C021C00F008F846
:102AC000FDF72CFE08BD08B500F05DFC08BD000058
:102AD000A02238B5224C00215200201C00F05DF9E4
:102AE000C02000F09BFA1F4D0021C022286000F09A
:102AF00054F900232868282218215A435943A21860
:102B0000411801335162082BF5D1221C16490020CF
:102B100000F06AF980228023201C5B010021D20092
:102B200000F05EF8114D124C291C221C012000F00F
:102B30005BF980228023201C5B010021D20000F081
:102B40004FF80C4C291C221C022000F04DF9802269
:102B50008023201C0021D2005B0100F041F838BD29
:102B6000C0080010BC080010184000001A40000007
:102B7000E8080010100900100023F7B50E1C171EFE
:102B800001930A2F01D1984222DB341C391C051C09
:102B900000F0A9FB3B1C4343ED1A104B621C5B5D2C
:102BA0002370002801D0141CF0E7019B002B02D0F9
:102BB0002D23A21C63700021531E1170321C9A42F7
:102BC0000AD219781078013B587011700132F6E77B
:102BD000012340420193D8E7301CFEBD1C40000099
:102BE000F0B5C5680124AE071AD08026B600B242FF
:102BF0000BD08026F600B24204D080267600B24286
:102C00000ED102E0416A231C04E0064E5F1E01243F
:102C1000B74205D80024154301610160C361C56056
:102C2000201CF0BDFEFFFF00021C10B51378002B26
:102C300001D00132FAE7CC5CD4540133002CFAD134
:102C400010BD0000031C0B4310B59B070CD102689C
:102C50000B689A4208D10A4BD3189343094A13428E
:102C600002D104300431F2E70022835C8C5CA34281
:102C700001D0181B03E00132002BF6D1181C10BD47
:102C8000FFFEFEFE80808080031C0B4330B59B0757
:102C900011D1031C0A680B4C0B4D141994432C42A0
:102CA00002D104C30431F5E7D1B219700133002910
:102CB00007D01212F8E70023CA5CC2540133002A7D
:102CC000FAD130BDFFFEFEFE8080808010B5431C2F
:102CD000820706D00130421E1278002AF8D1C01AAD
:102CE00018E002680C490D4C51189143214201D162
:102CF0000430F6E7D4B2411C002C0AD0FF24240291
:102D0000811C224205D0FF242404C11C224200D091
:102D1000011DC81A10BDC046FFFEFEFE80808080E7
:102D200070B5041C0C43031CA4070CD1032A0AD958
:102D30000D680F4C0F4E2C19AC43344203D120C305
:102D40000431043AF2E7013A541C10D00C780133F4
:102D50005D1E2C700131551E002C06D19A1893422D
:102D600005D0002119700133F9E72A1CECE770BD8A
:102D7000FFFEFEFE8080808010B50023CA5C002A22
:102D80000AD0C45C944201D10133F7E70130431EFD
:102D90001B78002BF1D1181C10BD08B500F001FB09
:102DA00008BD0000202310B5041CC2689A43436A82
:102DB000E2605B6882699A420DD000F049F8E268EF
:102DC000074B134010221343626AE3605368A36108
:102DD000236993602360E268024B1340E36010BDF7
:102DE000EFCFFFFFBFBFFFFF70B50D1C061C101C0F
:102DF000141C00F023F92B78722B09D0772B04D008
:102E0000612B20D10823114A04E00423022201E0AF
:102E100000230122013529782B2905D0622908D108
:102E200004210A43033902E003210A4301390B4319
:102E3000F0E7E26066611B0706D5201C0021022234
:102E400000F04EF900E00024201C70BD028000005C
:102E500038B5436AC2689968144B05691340C3606A
:102E6000822304681340022B02D001235B421BE043
:102E700080235B02134017D0A14200D2211C041C06
:102E8000A94209D1636AE1689D600023084A256070
:102E90000A40A360E26007E0491B281C221C00F0E6
:102EA00009F80028EED0E0E7181C38BDFFFFF7FF57
:102EB000FFFFFEFFF7B5D66801900D1C141C576983
:102EC000F30205D51023381C1E4300F08BFAA061D5
:102ED000114B1E4209D0381CA16900F095FA8023DD
:102EE000002811DB0D4B1E40E6602A1C381C01999E
:102EF00000F096FA43005B08ED1AA3695D19002300
:102F0000A561984205D08033E2681343E360012352
:102F10005B42181CFEBDC04610000200EFFFFDFF23
:102F2000F7B5314EC51C3468AD080196002813D0A2
:102F30008022291CEB1C002752050A319C4604E024
:102F40002368934213D0271CA468002CF8D10C30BE
:102F500000F076F9431C0FD1002043E03E68964212
:102F600017D17E689B1903336360BB68A360A768B1
:102F70006368002FF2D10CE080239B05036045605D
:102F80008460002F02D1019B186000E0B8600C3013
:102F900028E0AB4205DB9C4503DB80239B052360D7
:102FA0001EE08B4210D98022201C802192052260D5
:102FB0000C30AA005B1B82184905033B6560A260C8
:102FC0001160536097600DE0002FBCD19B00C01AC8
:102FD00000F036F9431CBFD080239B052360656059
:102FE000201CD4E7FEBDC046000A001010B5002822
:102FF00012D080235B05191C0C3803608268002AFC
:103000000AD013688B4207D1546843681B190333F5
:10301000436093688360F1E710BD000010B5FFF7CF
:103020007FFF041E05D10449172200F0F9F900F0D2
:10303000CDF9201C10BDC0462D400000F0B5436AFC
:10304000C5688BB0476906690193AB0727D0041C9C
:103050002B0716D400F02AF8381C00F0BDF92B0518
:1030600002D5301CFFF7C2FF0F4BAD0DAD059D42E1
:1030700007D102A8216A202200F0CCF902A800F0B2
:10308000D5F800211822606AFFF787FE201C002176
:103090002822FFF782FE019B0020636201E00120ED
:1030A00040420BB0F0BDC046000080AD38B50028EE
:1030B00003D000F0E5F8051C0EE0041C051C0748D1
:1030C000201800F0DDF8002801D001256D42A02372
:1030D00028345B009C42F2D1281C38BDC008001087
:1030E000F7B5C368161C0093009A3B4B041C0D1CDB
:1030F00047691A426BD0381C00F07AF90190002819
:1031000065D1012E04D0022E07D0002E5FD124E01D
:10311000201C00F065F82D181FE0381C00F062F943
:10312000002805DA8023E2681343E36001234FE0BF
:10313000626A21689368994200D90B1CA1695B18E7
:1031400021695B1AE168890603D55268934200DA67
:10315000131C834200DA031CED18002D37DB009BA3
:10316000616A9B0404D523688A689A4200D28B6006
:10317000A3699D420DDB20688A68824200D2021C4E
:103180002069D618361AB54203DCCF68DE19B5427D
:1031900007DB2023009A13430022A26062604D6087
:1031A00011E0ED1A009B9B0701D5EF1BA760009B68
:1031B000DB0702D5821AAA1862602023009A4519FB
:1031C0009A43131C2560054A1340E36001E0022383
:1031D00001930198FEBDC04603001000BFCFF7FF6A
:1031E000C3689A0705D1212201200F4B40421A6083
:1031F00018E0202219030BD5134202D0436A586805
:1032000004E00368826900699B18181A013809E014
:10321000134202D0436A586804E003688269006977
:103220009B18181A7047C0461000001010B5041CF7
:10323000FFF74CFD011C201C00F0E0F810BD000061
:1032400070B50C4D2B68002B01D10B4B2B60032369
:10325000C41C2E689C433419201C00F037F8002849
:1032600002D12C60301C04E00C220120034B4042B0
:103270001A6070BD040A0010080A00101000001047
:103280000323C26870B51340041C181E1AD093069D
:1032900005D5636A201C5E68FFF784FD04E023689F
:1032A000A2699E182369F61AE268074B201C134096
:1032B000E360FFF7CDFD051C311C201C0022FFF749
:1032C0000FFF281C70BDC046FFCFFFFF034B021C41
:1032D000181E02D000209A424041704700000000B2
:1032E00003000B4321D4002931D00122D207030966
:1032F00001E0090112099942FBD9430801E04900A4
:1033000052089942FBD900E04908401A07D35241BC
:10331000FAD301461046704749084018F7D2921870
:10332000FAD34018014610467047CB0F00D04942EF
:10333000021000D54042534008B5FFF7D4FF0CBC43
:10334000521000D34042002A00D549421847F446A3
:10335000002000F001F8604770478446830708D1D9
:103360008B0706D1131F04D304C904C0043BFBD24E
:103370001A1D524205D0891A801A8B5C835401327F
:10338000FBD160467047884207D98B18834204D925
:10339000013A8B5C8354FBD1704700B5FFF7DDFF2A
:1033A00000BD8446043A09D3830707D109060B0AF6
:1033B00019430B0C1943043A02C0FCD2043203D067
:1033C00001700130013AFBD1604670471820014975
:1033D000ABBE70472600020003B469460220ABBEB4
:1033E00002B0704703B469460C20ABBE02B0704710
:1033F00003B469460920ABBE02B0704703B4694606
:103400000E20ABBE02B0704703B469460A20ABBEC3
:1034100002B070470FB469460D20ABBE04B07047D0
:103420000FB469460520ABBE04B07047464C41530B
:10343000482045524153452040200000466C6173AE
:103440006820777269746520676F20402000000053
:103450003B200000206279746573200A0D00000093
:10346000466C61736820777269746520656E640AC2
:103470000D000000526561642040200A0D0000002C
:103480006573703031616464723A20000D0A000087
:1034900045535020746573740A0D0000393630307E
:1034A0003F0A0D003131353230303F0A0D00000047
:1034B00031393230303F0A0D0000000045535020B2
:1034C000636F6D6D206661696C210A0D000000005C
:1034D000547279696E672077696669636F6E6E658D
:1034E000637420616761696E0A0D00004361742096
:1034F00070696374757265207265706F7369746F3B
:10350000727900006B617373696B61727600000001
:1035100043697073746174757320726573706F6E34
:10352000736520726571756573740A0D0000000083
:1035300041542B434950535441545553000000000B
:1035400043697073746174757320726573706F6E04
:103550007365206F636375727265640A0D00000005
:103560000A0D0000554450003139322E3136382EC4
:10357000312E31363600000057414954494E47201C
:103580003220444154415041434B4554530D0A00AD
:103590005052494E54494E472033204441544150E3
:1035A00041434B4554530D0A0000000041542B5237
:1035B000535400002D2D50524F4752414D20464943
:1035C0004E49534845442D2D0A0D00005B00000074
:1035D0003D000000200000005D0000003000000001
:1035E0000D0000000A00000030780000306200008A
:1035F0002020202020546573746C696E653A203554
:10360000300A0D000D0A0000436D64523A000000BC
:103610000A0D000020312F32202000004641494C85
:103620002841290A0D000000202020202054657325
:10363000746C696E653A203230300A0D000000006B
:103640004552524F520000004641494C2845290A34
:103650000D0000004641494C000000004641494C25
:103660002846290A0D0000006275737900000000E9
:103670004641494C2862290A0D0000004F4B0000CA
:1036800020322F32000000002020202020546573BB
:10369000746C696E653A203234300A0D0000000007
:1036A0002020202020546573746C696E653A2032A6
:1036B00034350A0D000000002020202020546573BE
:1036C000746C696E653A203235300A0D00000000D6
:1036D0002020202020546573746C696E653A203276
:1036E00035350A0D0000000020202020205465738D
:1036F000746C696E653A203236300A0D00000000A5
:103700002020202020546573746C696E653A203344
:1037100032300A0D00000000434D44206F6B2C2016
:1037200072657475726E696E670D0A002B4950449C
:103730002C00000047657474696E672064617461D1
:103740003A0000004154000041542B5253540000F1
:1037500041542B554152545F4355523D00000000E7
:10376000393630300000000031393230300000008E
:1037700031313532303000002C000000382C312C33
:10378000300000002C310000446F696E6720434D0B
:103790004420666F72205541525473706565640D04
:1037A0000A00000055415254537065656420434D32
:1037B0004420737563636573730D0A005541525459
:1037C000537065656420434D44206661696C0D0A41
:1037D0000000000041542B43574D4F44453D3100FC
:1037E00041542B43574D4F44453D320041542B43E8
:1037F000574D4F44453D330041542B4349504D559F
:10380000583D310041542B4349504D55583D3000EF
:10381000417474656D7074696E6720746F206A6F8F
:10382000696E2041503A20002077697468207061E9
:1038300073733A200000000041542B43574A415013
:103840005F4355523D0000002200000000000000D0
:1038500041542B43495053544154555300000000E8
:103860005354415455533A32000000005769666979
:1038700020636F6E6E656374656420737563636542
:103880007366756C6C7921210A0D000057696669B1
:1038900020636F6E6E656374206661696C65642E6B
:1038A0000A0D000045787472612074696D652063AB
:1038B00061757365207265706F72746564206275DE
:1038C0007379210A0D0000004469746368696E67AA
:1038D0002041500A0D00000041542B4357514150E4
:1038E00000000000446974636865642041502073DF
:1038F00075636365737366756C6C790A0D000000FF
:103900004150206469746368206661696C0A0D0027
:1039100047657474696E672049500A0D0000000005
:1039200041542B4349465352000000002B43494663
:1039300053523A53544149502C22000049502073AD
:103940007472696E67206E6F7420666F756E640A9C
:103950000D0000004E6F204950203420550A0D0004
:103960004C6F6F6B73206C696B65204950206973D5
:103970003A20000047657474696E67204D41430A20
:103980000D0000002B43494653523A5354414D41D8
:10399000432C22004D414320737472696E67206E80
:1039A0006F7420666F756E640A0D00004E6F204DB7
:1039B0004143203420550A0D000000004C6F6F6B0E
:1039C00073206C696B65204D41432069733A200078
:1039D00041542B434950434C4F534500436C6F7344
:1039E000696E67206F6E6C7920636F6E6E656374AD
:1039F000696F6E2E0D0A00003D000000436C6F736E
:103A0000696E6720636F6E6E656374696F6E200008
:103A10002E0D0A00436C6F7365642E0D0A000000C2
:103A20004E6F7420636C6F7365642E0D0A00000086
:103A3000544350005544500041542B434950535473
:103A40004152543D000000004F70656E696E672062
:103A50006F6E6C7920636F6E6E656374696F6E2034
:103A6000746F20003A0000004F70656E696E672029
:103A7000636F6E6E656374696F6E200020746F20D3
:103A8000000000002C220000222C2200222C00002A
:103A90002C3000004F70656E65642E0D0A0000002A
:103AA0004E6F74206F70656E65642E0D0A00000005
:103AB0005541525442554646455246554C4C210AB2
:103AC0000D0000004C53525265673A2030620000EE
:103AD0003B204C53525265673A2030620000000090
:103AE0003B2052784253743A203078003B20527881
:103AF000496E3A20307800003B20527842456E3AB9
:103B0000203078000D0A0000527842436F6E743AFC
:103B100020000000210D0A0000000000003E5B4F65
:103B20005B3E3E6B4F6B3E1C3E7C3E1C183C7E3C1D
:103B3000181C577D571C1C5E7F5E1C00183C18002B
:103B4000FFE7C3E7FF0018241800FFE7DBE7FF30BB
:103B5000483A060E2629792926407F050507407F29
:103B600005253F5A3CE73C5A7F3E1C1C08081C1C9C
:103B70003E7F14227F22145F5F005F5F06097F0192
:103B80007F006689956A606060606094A2FFA2947D
:103B900008047E040810207E201008082A1C08084B
:103BA0001C2A08081E101010100C1E0C1E0C303899
:103BB0003E3830060E3E0E06000000000000005F9A
:103BC00000000007000700147F147F14242A7F2AB6
:103BD0001223130864623649562050000807030078
:103BE000001C2241000041221C002A1C7F1C2A08C4
:103BF000083E080800807030000808080808000027
:103C000060600020100804023E5149453E00427F9A
:103C1000400072494949462141494D331814127FE9
:103C20001027454545393C4A494931412111090789
:103C30003649494936464949291E0000140000000A
:103C400040340000000814224114141414140041DC
:103C500022140802015909063E415D594E7C121199
:103C6000127C7F494949363E414141227F414141D1
:103C70003E7F494949417F090909013E414151734C
:103C80007F0808087F00417F41002040413F017FBD
:103C9000081422417F404040407F021C027F7F0485
:103CA00008107F3E4141413E7F090909063E4151CE
:103CB000215E7F09192946264949493203017F01BE
:103CC000033F4040403F1F2040201F3F4038403FBF
:103CD000631408146303047804036159494D4300D5
:103CE0007F4141410204081020004141417F04020C
:103CF00001020440404040400003070800205454A3
:103D000078407F2844443838444444283844442880
:103D10007F385454541800087E090218A4A49C78D3
:103D20007F0804047800447D40002040403D007F2F
:103D30001028440000417F40007C047804787C080F
:103D40000404783844444438FC18242418182424E3
:103D500018FC7C08040408485454542404043F44C8
:103D6000243C4040207C1C2040201C3C4030403CF7
:103D700044281028444C9090907C4464544C440057
:103D800008364100000077000000413608000201BB
:103D90000204023C2623263C1EA1A161123A4040A7
:103DA000207A385454555921555579412254547824
:103DB00042215554784020545579400C1E527212BD
:103DC0003955555559395454545939555454580046
:103DD00000457C410002457D420001457C407D124A
:103DE00011127DF0282528F07C54554500205454AC
:103DF0007C547C0A097F4932494949323A44444457
:103E00003A324A4848303A4141217A3A4240207891
:103E1000009DA0A07D3D4242423D3D4040403D3C92
:103E200024FF2424487E4943662B2FFC2F2BFF09B7
:103E300029F620C0887E09032054547941000044AB
:103E40007D413048484A32384040227A007A0A0A96
:103E5000727D0D19317D2629292F28262929292609
:103E600030484D4020380808080808080808382F4E
:103E700010C8ACBA2F102834FA00007B00000814D8
:103E80002A142222142A14085500550055AA55AAAE
:103E900055AAFF55FF55FF000000FF00101010FF4E
:103EA00000141414FF001010FF00FF1010F010F0A9
:103EB000141414FC001414F700FF0000FF00FF149A
:103EC00014F404FC141417101F10101F101F1414E6
:103ED000141F00101010F0000000001F1010101030
:103EE0001F10101010F010000000FF101010101024
:103EF00010101010FF10000000FF140000FF00FF62
:103F000000001F10170000FC04F4141417101714FD
:103F100014F404F40000FF00F7141414141414141F
:103F2000F700F7141414171410101F101F14141492
:103F3000F4141010F010F000001F101F0000001FFC
:103F400014000000FC140000F010F01010FF10FF2F
:103F5000141414FF141010101F00000000F010FFC4
:103F6000FFFFFFFFF0F0F0F0F0FFFFFF00000000A8
:103F700000FFFF0F0F0F0F0F3844443844FC4A4A2C
:103F80004A347E02020606027E027E0263554941E1
:103F9000633844443C04407E201E2006027E020218
:103FA00099A5E7A5991C2A492A1C4C7201724C302C
:103FB0004A4D4D303048784830BC625A463D3E4903
:103FC0004949007E0101017E2A2A2A2A2A44445FA7
:103FD000444440514A444040444A51400000FF019B
:103FE00003E080FF000008086B6B083612362436A9
:103FF000060F090F0600001818000000101000300E
:1040000040FF0101001F01011E00191D1712003C95
:104010003C3C3C000000000072007700303132333D
:10402000343536373839616263646566002A2A2A76
:10403000205F437379735F616C6C6F6320666169A5
:084040006C65640A00FFFFFF3C
:0840480001000000001BB7009D
:040000030000015D9B
:00000001FF
