:10000000002000105D010000F5010000FD0100006E
:1000100000000000000000000000000000000000E0
:1000200000000000000000000000000005020000C9
:1000300000000000000000000D020000150200009A
:100040001D0200001D0200001D0200001D02000034
:100050001D0200001D0200001D0200001D02000024
:100060001D0200001D020000000000000000000052
:1000700000000000000000001D0200001D02000042
:100080001D0200001D0200001D0200001D020000F4
:100090001D0200001D0200001D0200001D020000E4
:1000A0001D0200001D0200001D0200001D020000D4
:1000B00000000000000000001D0200000000000021
:1000C00008200000000000100400000008200000CC
:1000D0000040002000000000040000103009000073
:1000E000004000200000000080B588B000AFF8603C
:1000F000B9607A60BB68FB61FB68BB6100237B6110
:100100000AE0FB691A1DFA61BA69111DB96112682A
:100110001A607B6904337B617A697B689A42F0D309
:10012000BD4608B080BDC04680B584B000AF7860E1
:1001300039607B68FB600023BB6007E0FB681A1D29
:10014000FA6000221A60BB680433BB60BA683B687F
:100150009A42F3D3BD4604B080BDC04680B586B098
:1001600000AF204B3B613B691B68C02212051A435C
:100170003B691A601C4B7B6116E07B691A1D7A6132
:100180001B68FB607B691A1D7A611B68BB607B6919
:100190001A1D7A611B687B60F968BA687B68081C65
:1001A000111C1A1CFFF7A0FF7A69104B9A42E4D386
:1001B0000FE07B691A1D7A611B68BB607B691A1DA1
:1001C0007A611B687B60BA687B68101C191CFFF79A
:1001D000ABFF7A69064B9A42EBD300F0EFFE00F0DA
:1001E0002DFFFEE780800440C0000000D800000022
:1001F000E800000080B500AFFEE7C04680B500AF64
:10020000FEE7C04680B500AFFEE7C04680B500AF50
:10021000FEE7C04680B500AFFEE7C04680B500AF40
:10022000FEE7C046FFFFFFFFFFFFFFFFFFFFFFFFEF
:10023000FFFFFFFFFFFFFFFFFFFFFFFFFFFFFFFFCE
:10024000FFFFFFFFFFFFFFFFFFFFFFFFFFFFFFFFBE
:10025000FFFFFFFFFFFFFFFFFFFFFFFFFFFFFFFFAE
:10026000FFFFFFFFFFFFFFFFFFFFFFFFFFFFFFFF9E
:10027000FFFFFFFFFFFFFFFFFFFFFFFFFFFFFFFF8E
:10028000FFFFFFFFFFFFFFFFFFFFFFFFFFFFFFFF7E
:10029000FFFFFFFFFFFFFFFFFFFFFFFFFFFFFFFF6E
:1002A000FFFFFFFFFFFFFFFFFFFFFFFFFFFFFFFF5E
:1002B000FFFFFFFFFFFFFFFFFFFFFFFFFFFFFFFF4E
:1002C000FFFFFFFFFFFFFFFFFFFFFFFFFFFFFFFF3E
:1002D000FFFFFFFFFFFFFFFFFFFFFFFFFFFFFFFF2E
:1002E000FFFFFFFFFFFFFFFFFFFFFFFFFFFFFFFF1E
:1002F000FFFFFFFFFFFFFFFFFFFFFFFFFFFFFFFF0E
:1003000080B582B000AF7860104B00229A600F4B2E
:1003100000221A610D4B0B22DA600C4B05225A6148
:100320000A4B7A689A61C046084B9A697B689A4280
:10033000FAD1064B01225A60C046044B5B68012289
:100340001340FAD1C046BD4602B080BD00C0004097
:1003500080B582B000AF786006E00A4B181CFFF74A
:10036000CFFF7B68413B7B607B68402BF5DC7B6883
:10037000FA2292005343181CFFF7C2FFC046BD4645
:1003800002B080BDE8FD000080B500AF01200D2166
:10039000002200F01DFA01200E21012200F018FABF
:1003A0002F4B2F4A126A01210A431A622C492C4A08
:1003B0008E239B00D358102293431A1C8E239B003C
:1003C000CA502749264A8023D358802213438022CB
:1003D0008B502349224A8023D35880225200134352
:1003E00080228B501E491E4A8023D35880229200BF
:1003F000134380228B501A49194A8023D3588022F4
:10040000D200134380228B501549154A8023D358BC
:100410008022D202134380228B501149104A80233C
:10042000D35880225201134380228B500C490C4A2E
:100430008023D35880229201134380228B50084A94
:100440009C230821D150064B054A526804210A43D7
:100450005A60034A98230121D150C046BD4680BD51
:100460000080044080B59CB004AF0020022100222F
:1004700000F06EF900200721002200F069F9012048
:100480000D21012200F064F901200E21012200F06B
:100490005FF901201B21012200F05AF9FFF774FFD8
:1004A000012026211A220D2300F0EEF901230093EA
:1004B00000230193002302930023039301200821CA
:1004C0000022012300F036FA0023FB6500237B6540
:1004D0000023BB6501200D21002200F079F9E12302
:1004E0005B02181C00F076FB2F202E2100F01CFB75
:1004F000834B181C00F0BCFB824B181C00F0B8FBAF
:1005000000F032FC804B181C00F0B2FB6420FFF7B7
:100510001FFF00F003FC7D4B181C00F0A9FB7C4B77
:10052000002000211A1C00F0F3FC7A4B022002216B
:100530001A1C00F0EDFC784B062003211A1C00F079
:10054000E7FC764B042004211A1C00F0E1FC744BFC
:10055000181C00F08DFB00F0A5FC724B181C00F07D
:1005600087FB714B181C00F083FB01200D21012239
:1005700000F02EF901200E21002200F029F90023BD
:10058000FB650020022100F063F9031E05D0012065
:100590000E21002200F01CF910E00020072100F0DD
:1005A00057F9031E05D001200E21002200F010F99A
:1005B00004E001200E21012200F00AF9FB6D013355
:1005C000FB65FB6D012B0ADD01200D21012200F0EE
:1005D000FFF80023FB65BB6D0133BB6504E0012020
:1005E0000D21002200F0F4F8FA20FFF7B1FEFA2006
:1005F000FFF7AEFE2C23FA184C4B101C191C00F010
:10060000D1FDBB6D013301D10023BB65BB6D484AF1
:10061000934206D82C23FA18464B101C191C00F0E4
:10062000B3FDBB6D444A934206D82C23FA18414BC4
:10063000101C191C00F0A8FDBB6D404A934206D85F
:100640002C23FA183B4B101C191C00F09DFDBB6DB0
:100650003B4A934206D82C23FA18364B101C191C1F
:1006600000F092FDBB6D374A934206D82C23FA184E
:10067000304B101C191C00F087FDBB6D324A9342B1
:1006800006D82C23FA182B4B101C191C00F07CFDEB
:10069000BB6D2E4A934206D82C23FA18254B101C0A
:1006A000191C00F071FDBB6D632B06D82C23FA18C2
:1006B000204B101C191C00F067FDBB6D092B06D8E0
:1006C0002C23FA181B4B101C191C00F05DFDBA6D91
:1006D0003B1D101C191C0A2200F00EFD2C23FA18D9
:1006E0003B1D101C191C00F04FFD2C23FB18022091
:1006F00000211A1C00F00CFC00F0D4FB41E7C046BE
:10070000241A0000341A0000441A0000581A00008D
:10071000741A00007C1A0000841A0000881A000075
:10072000901A0000AC1A0000BC1A0000D01A000099
:10073000FFC99A3BD41A0000FFE0F5057F969800A8
:100740003F420F009F8601000F270000E7030000D3
:1007500080B584B000AFF860B9607A607B68002B28
:1007600017D0A023DB05A022D205F9688020000164
:100770008446614489008A58B96801208840011C78
:100780001143FA6880200001844662449200D150EF
:1007900019E0A023DB05A022D205F9688020000122
:1007A0008446614489008A58B96801208840011C48
:1007B000FF200140C9431140FA68802000018446AF
:1007C00062449200D150C046BD4604B080BDC046D0
:1007D00080B584B000AFF860B9607A607B68012BA7
:1007E00031D87B68002B17D0A023DB05A022D205CF
:1007F000F968882000018446614489008A58B968F4
:1008000001208840011C1143FA68882000018446B9
:1008100062449200D15016E0A023DB05A022D2054D
:10082000F9688A2000018446614489008A58B968C1
:1008300001208840011C1143FA688A200001844687
:1008400062449200D150C046BD4604B080BDC0464F
:1008500080B582B000AF78603960A023DB057A688C
:10086000862109018C4662449200D3583A680121DE
:1008700091400A1C134001D0012300E00023181C02
:10088000BD4602B080BDC04680B584B000AFF86000
:10089000B9607A603B60FB68002B00D1FEE7FB6823
:1008A000012B40D1BB68112B06D1214B204A526D40
:1008B00002210A435A650AE0BB68262B07D11C496E
:1008C0001B4AB823D35802221343B8228B507B68AB
:1008D0001E2B06D1164B164A926D02210A439A65C9
:1008E0000AE07B681A2B07D11149114AB423D35867
:1008F00002221343B4228B503B682B2B08D10C49A6
:100900000B4A9C23D358032213439C228B500AE0AA
:100910003B680D2B07D10649054AB023D358022264
:100920001343B0228B50C046BD4604B080BDC046C4
:100930000040044080B586B000AFF860B9607A60CE
:100940003B6000237B61BB68013BBB60BB68022B43
:1009500001DC0323BB60BB680F221340BB607B68D4
:10096000032B01D100237B607B68032213407B6053
:100970003B68012213403B603B6A012213403B620B
:100980007B6AFF2213407B627B681A01BB681A43B3
:100990003B689B011A433B6ADB011A437B6A1B02DB
:1009A00013437B61FB68002B03D11D4B7A691A60EE
:1009B00005E0FB68012B02D11A4B7A691A6000230B
:1009C0007B61BB6A9B007B61FB68002B08D1144BE9
:1009D0007A695A60124B7A6902210A435A600AE026
:1009E000FB68012B07D10F4B7A695A600D4B7A696E
:1009F00002210A435A60FB6AFE221340FB62FB6835
:100A0000002B03D1064BFA6A1A6105E0FB68012B43
:100A100002D1044BFA6A1A61C046BD4606B080BDD9
:100A2000000004400080054080B582B000AF7860CF
:100A300039607B68002B0FD1C046124BDB68022265
:100A40001340FAD00F4B3A689A60C0460D4BDB68F2
:100A500010221340FAD112E07B68012B0ED1C04660
:100A6000094BDB6802221340FAD0074B3A689A60C0
:100A7000C046054BDB6810221340FAD1C046BD4684
:100A800002B080BD000004400080054080B582B007
:100A900000AF78607B682F2B06D1224B214AD26CA5
:100AA00007218A43DA6438E07B680C2B08D11D49A2
:100AB0001C4ACC23D35807229343CC228B502CE0E2
:100AC0007B68242B08D11749164A9423D358072250
:100AD000934394228B5020E07B682E2B06D1114B40
:100AE000104A926C07218A439A6416E07B680B2BAC
:100AF00008D10C490B4AC823D35807229343C82274
:100B00008B500AE07B68252B07D10649054A9823BC
:100B1000D3580722934398228B50C046BD4602B05B
:100B200080BDC0460040044080B582B000AF786010
:100B300039607B68181CFFF7A9FF3B68181CFFF79A
:100B4000A5FF7B682F2B06D1214B214AD26C0121B6
:100B50000A43DA6416E07B680C2B08D11C491C4A56
:100B6000CC23D35802221343CC228B500AE07B685B
:100B7000242B07D11649164A9423D3580322134332
:100B800094228B503B682E2B06D1114B104A926C4D
:100B900001210A439A6416E03B680B2B08D10C49EB
:100BA0000B4AC823D35802221343C8228B500AE0B1
:100BB0003B68252B07D10649054A9823D3580322C1
:100BC000134398228B50C046BD4602B080BDC0463C
:100BD0000040044080B584B000AF78602149214ACC
:100BE0008023D35880225201134380228B501D4A08
:100BF00098230121D1501B4B9A6F1B4B1B68534309
:100C0000191C184A9823D3587A6853431B01081CAF
:100C1000191C00F0B8FD031CFB600623FB60134B9E
:100C2000C1229A62114B8322DA60104BFA68120AD1
:100C30005A600E4BFA68FF210A401A600B4B0322E0
:100C4000DA600A4B07229A60084B04225A60074B6D
:100C5000064A9268C0210A439A600123181CBD46C7
:100C600004B080BD008004400000001000800040FF
:100C700080B584B000AF78600023FB600EE0C04612
:100C80000C4B5B6920221340FAD00A4BFA68796852
:100C90008A1812781A60FB680133FB60FB687A6877
:100CA000D3181B78002BEAD10123181CBD4604B0D1
:100CB00080BDC0460080004080B500AF01201C21EF
:100CC0000022FFF785FD01201C210122FFF780FD96
:100CD000C046BD4680BDC04680B582B000AF002092
:100CE00000F0BCF8002000F0C9F800237B600EE0A3
:100CF00000233B6005E0002000F08CF83B680133E6
:100D00003B603B68052BF6DD7B6801337B607B68CD
:100D1000532BEDDDC046BD4602B080BD80B582B02C
:100D200000AF00237B6016E000233B600DE00D491F
:100D30007A68131C5B009B185B003A689B189B0049
:100D400000225A503B6801333B603B68052BEEDDC7
:100D50007B6801337B607B68532BE5DDC046BD4675
:100D600002B080BD0800001080B500AF01201C213A
:100D70000122FFF7EDFC01201D210122FFF7E8FC15
:100D800001201F210122FFF7E3FC0120162101228F
:100D9000FFF7DEFC012014210122FFF7D9FC01201E
:100DA0001D210122FFF714FD012014210022FFF76D
:100DB0000FFDFFF781FF212000F03EF8902000F0AA
:100DC0003BF8202000F038F8092000F035F80D201D
:100DD00000F032F80C2000F02FF8FFF77DFFC0463E
:100DE000BD4680BD80B582B000AF786001201D2176
:100DF0000022FFF7EDFC7B680120191CFFF714FEB1
:100E000001201D210122FFF7E3FCC046BD4602B0D0
:100E100080BDC04680B582B000AF786001201F2140
:100E20000122FFF7D5FC7B68181CFFF7DBFFC046EB
:100E3000BD4602B080BDC04680B582B000AF7860CC
:100E400001201F210022FFF7C3FC7B68181CFFF75D
:100E5000C9FFC046BD4602B080BDC04680B582B065
:100E600000AF78607B68802213437B607B68181C2E
:100E7000FFF7E2FFC046BD4602B080BD80B582B03C
:100E800000AF78607B68472213407B607B6840221C
:100E900013437B607B68181CFFF7CEFFC046BD463E
:100EA00002B080BD80B582B000AF0020FFF7D6FF52
:100EB0000020FFF7E3FF00233B6020E000237B607E
:100EC0000FE012497A68131C5B009B185B003A68BC
:100ED0009B189B005B58181CFFF79CFF7B68013335
:100EE0007B607B68532BECDD0020FFF7B7FF3B688E
:100EF0000133181CFFF7C2FF3B6801333B603B68BE
:100F0000062BDBDDC046BD4602B080BD08000010E8
:100F100080B586B000AFF860B9607A6000237B616D
:100F200000233B613BE0BB68062B00DD3EE0FA6836
:100F30007B69D218131C5B009B185B001A1C3B6971
:100F4000D318542B00DD31E0FA687B69D218131CEA
:100F50005B009B185B001A1C3B69D2187B6979689F
:100F6000CB181B78191C0B1C9B0059183B69CB181C
:100F70001049CB5C181C1049131C5B009B185B00CC
:100F8000BA689B189B0058503B6901333B613B6931
:100F9000042B04DD7B6901337B6100233B617B69AA
:100FA0007A68D3181B78002BBDD1C046BD4606B069
:100FB00080BDC046D81A0000080000108E212020F5
:100FC0001C4B89005A5882B082435A5000221A6240
:100FD0000192019AC72A03D8C046019A0132F7E765
:100FE000012200211A645A6459645A640121586C20
:100FF000104A0842FAD000201067516750675167C5
:101000000121586F0B4A0842FAD08E238020916745
:101010009B00D158C00001438020D150D1584000DE
:101020000143D1508021044A4902D36F0B43D36757
:1010300002B070470080044004800440002008B5DE
:10104000011C021C00F004F8FFF70CFA08BD0000B8
:10105000A02238B5224C00215200201C00F0EEF8EE
:10106000C02000F02BFA1F4D0021C022286000F0A4
:10107000E5F800232868282218215A435943A2186A
:10108000411801335162082BF5D1221C164900206A
:1010900000F0FAF880228023201C5B010021D2009E
:1010A00000F04EF8114D124C291C221C012000F0BA
:1010B000EBF880228023201C5B010021D20000F08D
:1010C0003FF80C4C291C221C022000F0DDF8802285
:1010D0008023201C0021D2005B0100F031F838BDD4
:1010E000EC070010E8070010D81F0000DA1F00000E
:1010F000140800103C080010F7B50B1C061C0F1C50
:101100000D1C0192301C01991C1C00F03CFB019B42
:101110004343F61A094B9B5D061C2370631C002891
:10112000F0D16070A54206D223782A78013C627023
:101130002B700135F6E7381CFEBDC046DC1F0000F1
:10114000F0B5C5680124AE071AD08026B600B242B9
:101150000BD08026F600B24204D080267600B24240
:101160000ED102E0416A231C04E0064E5F1E0124FA
:10117000B74205D80024154301610160C361C56011
:10118000201CF0BDFEFFFF00021C10B51378002BE1
:1011900001D00132FAE7CC5CD4540133002CFAD1EF
:1011A00010BD0000031C0B4330B59B0711D1031C7D
:1011B0000A680B4C0B4D141994432C4202D104C302
:1011C0000431F5E7D1B219700133002907D01212AA
:1011D000F8E70023CA5CC2540133002AFAD130BDBB
:1011E000FFFEFEFE8080808010B5431C820706D083
:1011F0000130421E1278002AF8D1C01A18E00268A5
:101200000C490D4C51189143214201D10430F6E7AD
:10121000D4B2411C002C0AD0FF242402811C22429B
:1012200005D0FF242404C11C224200D0011DC81A8D
:1012300010BDC046FFFEFEFE8080808008B500F035
:10124000DCFA08BD202310B5041CC2689A43436A27
:10125000E2605B6882699A420DD000F049F8E2686A
:10126000074B134010221343626AE3605368A36183
:10127000236993602360E268024B1340E36010BD72
:10128000EFCFFFFFBFBFFFFF70B50D1C061C101C8A
:10129000141C00F023F92B78722B09D0772B04D083
:1012A000612B20D10823114A04E00423022201E02B
:1012B00000230122013529782B2905D0622908D184
:1012C00004210A43033902E003210A4301390B4395
:1012D000F0E7E26066611B0706D5201C00210222B0
:1012E00000F04EF900E00024201C70BD02800000D8
:1012F00038B5436AC2689968144B05691340C360E6
:10130000822304681340022B02D001235B421BE0BE
:1013100080235B02134017D0A14200D2211C041C81
:10132000A94209D1636AE1689D600023084A2560EB
:101330000A40A360E26007E0491B281C221C00F061
:1013400009F80028EED0E0E7181C38BDFFFFF7FFD2
:10135000FFFFFEFFF7B5D66801900D1C141C5769FE
:10136000F30205D51023381C1E4300F067FAA06174
:10137000114B1E4209D0381CA16900F071FA80237C
:10138000002811DB0D4B1E40E6602A1C381C019919
:1013900000F072FA43005B08ED1AA3695D1900239F
:1013A000A561984205D08033E2681343E3600123CE
:1013B0005B42181CFEBDC04610000200EFFFFDFF9F
:1013C000F7B5314EC51C3468AD080196002813D01E
:1013D0008022291CEB1C002752050A319C4604E0A0
:1013E0002368934213D0271CA468002CF8D10C303A
:1013F00000F076F9431C0FD1002043E03E6896428E
:1014000017D17E689B1903336360BB68A360A7682C
:101410006368002FF2D10CE080239B0503604560D8
:101420008460002F02D1019B186000E0B8600C308E
:1014300028E0AB4205DB9C4503DB80239B05236052
:101440001EE08B4210D98022201C80219205226050
:101450000C30AA005B1B82184905033B6560A26043
:101460001160536097600DE0002FBCD19B00C01A43
:1014700000F036F9431CBFD080239B0523606560D4
:10148000201CD4E7FEBDC0462C09001010B5002872
:1014900012D080235B05191C0C3803608268002A77
:1014A0000AD013688B4207D1546843681B19033371
:1014B000436093688360F1E710BD000010B5FFF74B
:1014C0007FFF041E05D10449172200F0D5F900F072
:1014D000A9F9201C10BDC046ED1F0000F0B5436AFD
:1014E000C5688BB0476906690193AB0727D0041C18
:1014F0002B0716D400F02AF8381C00F099F92B05B8
:1015000002D5301CFFF7C2FF0F4BAD0DAD059D425C
:1015100007D102A8216A202200F0A8F902A800F051
:10152000D5F800211822606AFFF788FE201C0021F0
:101530002822FFF783FE019B0020636201E0012067
:1015400040420BB0F0BDC046000080AD38B5002869
:1015500003D000F0E5F8051C0EE0041C051C07484C
:10156000201800F0DDF8002801D001256D42A023ED
:1015700028345B009C42F2D1281C38BDEC070010D7
:10158000F7B5C368161C0093009A3B4B041C0D1C56
:1015900047691A426BD0381C00F056F901900028B8
:1015A00065D1012E04D0022E07D0002E5FD124E099
:1015B000201C00F065F82D181FE0381C00F03EF9E3
:1015C000002805DA8023E2681343E36001234FE03B
:1015D000626A21689368994200D90B1CA1695B1863
:1015E00021695B1AE168890603D55268934200DAE3
:1015F000131C834200DA031CED18002D37DB009B1F
:10160000616A9B0404D523688A689A4200D28B6081
:10161000A3699D420DDB20688A68824200D2021CC9
:101620002069D618361AB54203DCCF68DE19B542F8
:1016300007DB2023009A13430022A26062604D6002
:1016400011E0ED1A009B9B0701D5EF1BA760009BE3
:10165000DB0702D5821AAA1862602023009A451976
:101660009A43131C2560054A1340E36001E00223FE
:1016700001930198FEBDC04603001000BFCFF7FFE5
:10168000C3689A0705D1212201200F4B40421A60FE
:1016900018E0202219030BD5134202D0436A586880
:1016A00004E00368826900699B18181A013809E090
:1016B000134202D0436A586804E0036882690069F3
:1016C0009B18181A7047C0460400001010B5041C7F
:1016D000FFF78AFD011C201C00F0BCF810BD0000C3
:1016E00070B50C4D2B68002B01D10B4B2B600323E5
:1016F000C41C2E689C433419201C00F037F80028C5
:1017000002D12C60301C04E00C220120034B40422B
:101710001A6070BD30090010340900100400001078
:101720000323C26870B51340041C181E1AD0930618
:1017300005D5636A201C5E68FFF784FD04E023681A
:10174000A2699E182369F61AE268074B201C134011
:10175000E360FFF7CDFD051C311C201C0022FFF7C4
:101760000FFF281C70BDC046FFCFFFFF034B021CBC
:10177000181E02D000209A4240417047000000002D
:1017800003000B4321D4002931D00122D2070309E1
:1017900001E0090112099942FBD9430801E049001F
:1017A00052089942FBD900E04908401A07D3524138
:1017B000FAD301461046704749084018F7D29218EC
:1017C000FAD34018014610467047CB0F00D049426B
:1017D000021000D54042534008B5FFF7D4FF0CBCBF
:1017E000521000D34042002A00D549421847F4461F
:1017F000002000F001F8604770478446043A09D39E
:10180000830707D109060B0A19430B0C1943043A45
:1018100002C0FCD2043203D001700130013AFBD186
:101820006046704718200149ABBE70472600020091
:1018300003B469460220ABBE02B0704703B46946E8
:101840000C20ABBE02B0704703B469460920ABBEA2
:1018500002B0704703B469460E20ABBE02B07047B9
:1018600003B469460A20ABBE02B070470FB46946A4
:101870000D20ABBE04B070470FB469460520ABBE67
:1018800004B070475278526F7574696E6520697341
:1018900020676F210A0D00005278204649464F20EC
:1018A000656D707479202D2031200000527820461B
:1018B00049464F206861732064617461202D203196
:1018C000000000007C0000002D0000000A0D000058
:1018D0002020202020202020202020202020202008
:1018E0002020202020202020202020202020000038
:1018F000446174613A2000005B3078253032785DB5
:10190000200000002E0A0D00436C656172656420A2
:101910006461746120726563656976656420696ECF
:10192000746572727570740A0D0000005478526FFD
:101930007574696E6520697320676F210A0D000058
:101940004372617020746F205478204649464F21BD
:101950000A0D0000437261702073756363657373D1
:1019600066756C6C7920696E205478204649464F24
:10197000210A0D00536B6970706564207472616E8A
:10198000736D697373696F6E0A0D00004661696C4F
:10199000656420746F2073656E64210A0D00000079
:1019A000466C757368656420627566666572210AA7
:1019B0000D0000004D41545F525420696E746572F1
:1019C00072757074206163746976650A0D00000099
:1019D0004D41545F525420696E7465727275707413
:1019E00020636C65617265640A0D000054585F44A1
:1019F0005320696E746572727570742061637469C6
:101A000076650A0D0000000054585F445320696E4B
:101A10007465727275707420636C65617265640AB6
:101A20000D0000000D0A417979206C6D616F210A6B
:101A30000D0000004C434420616374697669747939
:101A40000A0D0000203531313020696E6974206440
:101A50006F6E650A0D00000020353131302066724E
:101A6000616D6562756666657220636C6561720A98
:101A70000D0000006C7576203C3300004B697474D7
:101A800069657300620000006375746521000000E1
:101A90002035313130206672616D6562756666652C
:101AA000722073657475700A0D00000020353131A5
:101AB00030207265647261776E0A0D004C434420D9
:101AC000616374697669747920646F6E650A0D00CC
:101AD000000000003000000000000000003E5B4FEE
:101AE0005B3E3E6B4F6B3E1C3E7C3E1C183C7E3C7E
:101AF000181C577D571C1C5E7F5E1C00183C18008C
:101B0000FFE7C3E7FF0018241800FFE7DBE7FF301B
:101B1000483A060E2629792926407F050507407F89
:101B200005253F5A3CE73C5A7F3E1C1C08081C1CFC
:101B30003E7F14227F22145F5F005F5F06097F01F2
:101B40007F006689956A606060606094A2FFA294DD
:101B500008047E040810207E201008082A1C0808AB
:101B60001C2A08081E101010100C1E0C1E0C3038F9
:101B70003E3830060E3E0E06000000000000005FFA
:101B800000000007000700147F147F14242A7F2A16
:101B900012231308646236495620500008070300D8
:101BA000001C2241000041221C002A1C7F1C2A0824
:101BB000083E080800807030000808080808000087
:101BC00060600020100804023E5149453E00427FFB
:101BD000400072494949462141494D331814127F4A
:101BE0001027454545393C4A4949314121110907EA
:101BF0003649494936464949291E0000140000006B
:101C0000403400000008142241141414141400413C
:101C100022140802015909063E415D594E7C1211F9
:101C2000127C7F494949363E414141227F41414131
:101C30003E7F494949417F090909013E41415173AC
:101C40007F0808087F00417F41002040413F017F1D
:101C5000081422417F404040407F021C027F7F04E5
:101C600008107F3E4141413E7F090909063E41512E
:101C7000215E7F09192946264949493203017F011E
:101C8000033F4040403F1F2040201F3F4038403F1F
:101C9000631408146303047804036159494D430035
:101CA0007F4141410204081020004141417F04026C
:101CB0000102044040404040000307080020545403
:101CC00078407F28444438384444442838444428E1
:101CD0007F385454541800087E090218A4A49C7834
:101CE0007F0804047800447D40002040403D007F90
:101CF0001028440000417F40007C047804787C0870
:101D00000404783844444438FC1824241818242443
:101D100018FC7C08040408485454542404043F4428
:101D2000243C4040207C1C2040201C3C4030403C57
:101D300044281028444C9090907C4464544C4400B7
:101D4000083641000000770000004136080002011B
:101D50000204023C2623263C1EA1A161123A404007
:101D6000207A385454555921555579412254547884
:101D700042215554784020545579400C1E5272121D
:101D800039555555593954545459395554545800A6
:101D900000457C410002457D420001457C407D12AA
:101DA00011127DF0282528F07C545545002054540C
:101DB0007C547C0A097F4932494949323A444444B7
:101DC0003A324A4848303A4141217A3A42402078F2
:101DD000009DA0A07D3D4242423D3D4040403D3CF3
:101DE00024FF2424487E4943662B2FFC2F2BFF0918
:101DF00029F620C0887E090320545479410000440C
:101E00007D413048484A32384040227A007A0A0AF6
:101E1000727D0D19317D2629292F28262929292669
:101E200030484D4020380808080808080808382FAE
:101E300010C8ACBA2F102834FA00007B0000081438
:101E40002A142222142A14085500550055AA55AA0E
:101E500055AAFF55FF55FF000000FF00101010FFAE
:101E600000141414FF001010FF00FF1010F010F009
:101E7000141414FC001414F700FF0000FF00FF14FA
:101E800014F404FC141417101F10101F101F141446
:101E9000141F00101010F0000000001F1010101090
:101EA0001F10101010F010000000FF101010101084
:101EB00010101010FF10000000FF140000FF00FFC2
:101EC00000001F10170000FC04F41414171017145E
:101ED00014F404F40000FF00F71414141414141480
:101EE000F700F7141414171410101F101F141414F3
:101EF000F4141010F010F000001F101F0000001F5D
:101F000014000000FC140000F010F01010FF10FF8F
:101F1000141414FF141010101F00000000F010FF24
:101F2000FFFFFFFFF0F0F0F0F0FFFFFF0000000008
:101F300000FFFF0F0F0F0F0F3844443844FC4A4A8C
:101F40004A347E02020606027E027E026355494141
:101F5000633844443C04407E201E2006027E020278
:101F600099A5E7A5991C2A492A1C4C7201724C308C
:101F70004A4D4D303048784830BC625A463D3E4963
:101F80004949007E0101017E2A2A2A2A2A44445F07
:101F9000444440514A444040444A51400000FF01FB
:101FA00003E080FF000008086B6B08361236243609
:101FB000060F090F0600001818000000101000306E
:101FC00040FF0101001F01011E00191D1712003CF6
:101FD0003C3C3C000000000072007700303132339E
:101FE000343536373839616263646566002A2A2AD7
:101FF000205F437379735F616C6C6F632066616906
:082000006C65640A00FFFFFF9C
:04200800001BB70002
:040000030000015D9B
:00000001FF
