:10000000002000105D010000F5010000FD0100006E
:1000100000000000000000000000000000000000E0
:1000200000000000000000000000000005020000C9
:1000300000000000000000000D020000150200009A
:100040001D0200001D0200001D0200001D02000034
:100050001D0200001D0200001D0200001D02000024
:100060001D0200001D020000000000000000000052
:1000700000000000000000001D0200001D02000042
:100080001D0200001D0200001D0200001D020000F4
:100090001D020000850D00001D0200001D02000071
:1000A0001D0200001D0200001D0200001D020000D4
:1000B00000000000000000001D0200000000000021
:1000C000E02100000000001004000000E02100001A
:1000D000004000200000000004000010000A0000A2
:1000E000004000200000000080B588B000AFF8603C
:1000F000B9607A60BB68FB61FB68BB6100237B6110
:100100000AE0FB691A1DFA61BA69111DB96112682A
:100110001A607B6904337B617A697B689A42F0D309
:10012000BD4608B080BDC04680B584B000AF7860E1
:1001300039607B68FB600023BB6007E0FB681A1D29
:10014000FA6000221A60BB680433BB60BA683B687F
:100150009A42F3D3BD4604B080BDC04680B586B098
:1001600000AF204B3B613B691B68C02212051A435C
:100170003B691A601C4B7B6116E07B691A1D7A6132
:100180001B68FB607B691A1D7A611B68BB607B6919
:100190001A1D7A611B687B60F968BA687B68081C65
:1001A000111C1A1CFFF7A0FF7A69104B9A42E4D386
:1001B0000FE07B691A1D7A611B68BB607B691A1DA1
:1001C0007A611B687B60BA687B68101C191CFFF79A
:1001D000ABFF7A69064B9A42EBD301F031F801F09C
:1001E0006FF8FEE780800440C0000000D8000000E7
:1001F000E800000080B500AFFEE7C04680B500AF64
:10020000FEE7C04680B500AFFEE7C04680B500AF50
:10021000FEE7C04680B500AFFEE7C04680B500AF40
:10022000FEE7C046FFFFFFFFFFFFFFFFFFFFFFFFEF
:10023000FFFFFFFFFFFFFFFFFFFFFFFFFFFFFFFFCE
:10024000FFFFFFFFFFFFFFFFFFFFFFFFFFFFFFFFBE
:10025000FFFFFFFFFFFFFFFFFFFFFFFFFFFFFFFFAE
:10026000FFFFFFFFFFFFFFFFFFFFFFFFFFFFFFFF9E
:10027000FFFFFFFFFFFFFFFFFFFFFFFFFFFFFFFF8E
:10028000FFFFFFFFFFFFFFFFFFFFFFFFFFFFFFFF7E
:10029000FFFFFFFFFFFFFFFFFFFFFFFFFFFFFFFF6E
:1002A000FFFFFFFFFFFFFFFFFFFFFFFFFFFFFFFF5E
:1002B000FFFFFFFFFFFFFFFFFFFFFFFFFFFFFFFF4E
:1002C000FFFFFFFFFFFFFFFFFFFFFFFFFFFFFFFF3E
:1002D000FFFFFFFFFFFFFFFFFFFFFFFFFFFFFFFF2E
:1002E000FFFFFFFFFFFFFFFFFFFFFFFFFFFFFFFF1E
:1002F000FFFFFFFFFFFFFFFFFFFFFFFFFFFFFFFF0E
:1003000080B582B000AF7860154B00229A60144B24
:1003100000221A61134B1B68134A934203D1104BFE
:100320002F22DA6002E00E4B0B22DA600C4B052222
:100330005A610B4B7A689A61C046094B9A697B688F
:100340009A42FAD1064B01225A60C046044B5B68C0
:1003500001221340FAD1C046BD4602B080BDC0465E
:1003600000C0004000000010006CDC0280B582B0CC
:1003700000AF786006E00A4B181CFFF7C1FF7B68EE
:10038000413B7B607B68402BF5DC7B68FA22920066
:100390005343181CFFF7B4FFC046BD4602B080BDF2
:1003A000E8FD000080B500AF2F492F4A8D239B0048
:1003B000D358802293431A1C8D239B00CA502A4B8A
:1003C00000221A67284B00225A67274B01225A67DE
:1003D000254B00221A64244B00225A64224B01222E
:1003E0005A642149204A8E239B00D35880221A4305
:1003F0008E239B00CA501C4B23229A601A491A4A2A
:100400008E239B00D358802293431A1C8E239B007B
:10041000CA5001200D21002200F0F8F901200E2120
:10042000002200F0F3F90120FFF7A0FFC0460E4BB9
:10043000DB68002BFBD001200D21012200F0E6F942
:1004400001200E21012200F0E1F9074B03221A6777
:10045000054B00225A67044B01225A67034B044A9A
:100460001A60BD4680BDC0460080044000000010F8
:10047000006CDC0280B500AF01200D21002200F0ED
:10048000C5F901200E21012200F0C0F92F4B2F4A9F
:10049000126A01210A431A622C492C4A8E239B00BE
:1004A000D358102293431A1C8E239B00CA5027490D
:1004B000264A8023D3588022134380228B5023491D
:1004C000224A8023D35880225200134380228B502B
:1004D0001E491E4A8023D358802292001343802253
:1004E0008B501A49194A8023D3588022D2001343D3
:1004F00080228B501549154A8023D3588022D2027E
:10050000134380228B501149104A8023D3588022F4
:100510005201134380228B500C490C4A8023D3583C
:1005200080229201134380228B50084A9C23012190
:10053000D150064B054A526804210A435A60034AC7
:1005400098230121D150C046BD4680BD00800440A3
:1005500080B582B000AF78607B68181C002100F085
:10056000E3FD00F00BFD0123181CBD4602B080BD69
:1005700080B59AB004AF00200221002200F006F9F5
:1005800000200721002200F001F90020142101229F
:1005900000F0FCF800201421002200F037F90120BF
:1005A0000D21012200F0F2F801200E21012200F0BD
:1005B000EDF801201B21012200F0E8F8FFF75AFFB7
:1005C000FFF7F0FE012026211A220D2300F05EF92C
:1005D000012300930023019300230293002303933C
:1005E000012008210022012300F0A6F900237B65E9
:1005F00000233B6501200D21002200F007F92F2088
:100600002E2100F05BFA2420252100F0A5FAE12339
:100610005B02181C00F0F6FA00F012FC6420FFF7F1
:10062000A5FE00F0E7FB054B181CFFF791FF00F05B
:1006300091F800F09FF800F08DF8FEE7781C0000BC
:1006400080B582B000AF78607B68181C002100F094
:100650006BFD00F093FC0123181CBD4602B080BD69
:1006600080B584B000AF78600023FB600A23FB18DC
:100670001E221A700B23FB1800221A7000F070FB68
:100680007B68181C00F016FB00F06AFB284B181C56
:1006900000F010FB274B181CFFF7D2FF264B181C4D
:1006A000FFF7CEFF7B68181CFFF7CAFF234B181C0F
:1006B000FFF7C6FF20E0224A224B101C191C00F055
:1006C000ABFE031CFB6000F019FB0B23FB181A7830
:1006D0000B23FB1801321A700B23FA180A23FB189C
:1006E00012781B789A4200D309E0174B181CFFF7C9
:1006F000A7FF6420FFF73AFEFB68002BDBD00F4B0F
:10070000181CFFF79DFF00F02BFBFB68002B05D0AA
:100710000E4B181CFFF794FF012304E00C4B181C30
:10072000FFF78EFF0023181CBD4604B080BDC046F5
:10073000841C0000881C0000901C0000981C000015
:10074000100000109C1C0000A01C0000A41C000055
:10075000B01C000080B500AF054B181CFFF780FFF0
:10076000031E01D0012300E00023181CBD4680BDFC
:10077000B81C000080B500AF034B181CFFF770FFDA
:100780000023181CBD4680BDBC1C000080B584B091
:1007900000AFF860B9607A607B68002B17D0A023A7
:1007A000DB05A022D205F96880200001844661445F
:1007B00089008A58B96801208840011C1143FA68F1
:1007C00080200001844662449200D15019E0A023A9
:1007D000DB05A022D205F96880200001844661442F
:1007E00089008A58B96801208840011CFF20014017
:1007F000C9431140FA688020000184466244920097
:10080000D150C046BD4604B080BDC04680B584B05E
:1008100000AFF860B9607A607B68012B31D87B68E3
:10082000002B17D0A023DB05A022D205F968882071
:1008300000018446614489008A58B96801208840D3
:10084000011C1143FA68882000018446624492002A
:10085000D15016E0A023DB05A022D205F9688A203A
:1008600000018446614489008A58B96801208840A3
:10087000011C1143FA688A200001844662449200F8
:10088000D150C046BD4604B080BDC04680B584B0DE
:1008900000AFF860B9607A603B60FB68002B00D164
:1008A000FEE7FB68012B40D1BB68112B06D1214B21
:1008B000204A526D02210A435A650AE0BB68262B82
:1008C00007D11C491B4AB823D35802221343B8222C
:1008D0008B507B681E2B06D1164B164A926D022157
:1008E0000A439A650AE07B681A2B07D11149114A1D
:1008F000B423D35802221343B4228B503B682B2BD2
:1009000008D10C490B4A9C23D358032213439C2241
:100910008B500AE03B680D2B07D10649054AB023EE
:10092000D35802221343B0228B50C046BD4604B0B8
:1009300080BDC0460040044080B586B000AFF8607E
:10094000B9607A603B6000237B61BB68013BBB60A0
:10095000BB68022B01DC0323BB60BB680F22134082
:10096000BB607B68032B01D100237B607B68032283
:1009700013407B603B68012213403B603B6A0122CD
:1009800013403B627B6AFF2213407B627B681A0143
:10099000BB681A433B689B011A433B6ADB011A435D
:1009A0007B6A1B0213437B61FB68002B03D11D4B49
:1009B0007A691A6005E0FB68012B02D11A4B7A694B
:1009C0001A6000237B61BB6A9B007B61FB68002B84
:1009D00008D1144B7A695A60124B7A6902210A4392
:1009E0005A600AE0FB68012B07D10F4B7A695A6005
:1009F0000D4B7A6902210A435A60FB6AFE221340BA
:100A0000FB62FB68002B03D1064BFA6A1A6105E012
:100A1000FB68012B02D1044BFA6A1A61C046BD463D
:100A200006B080BD000004400080054080B582B063
:100A300000AF786039607B68002B0FD1C046124B45
:100A4000DB6802221340FAD00F4B3A689A60C04626
:100A50000D4BDB6810221340FAD112E07B68012BAA
:100A60000ED1C046094BDB6802221340FAD0074B77
:100A70003A689A60C046054BDB6810221340FAD1F1
:100A8000C046BD4602B080BD000004400080054065
:100A900080B582B000AF021CFB1D1A70064BFA1D18
:100AA0001278111C1F220A40012191400A1C1A6071
:100AB000BD4602B080BDC04600E100E080B582B016
:100AC00000AF78607B682F2B06D1224B214AD26C75
:100AD00007218A43DA6438E07B680C2B08D11D4972
:100AE0001C4ACC23D35807229343CC228B502CE0B2
:100AF0007B68242B08D11749164A9423D358072220
:100B0000934394228B5020E07B682E2B06D1114B0F
:100B1000104A926C07218A439A6416E07B680B2B7B
:100B200008D10C490B4AC823D35807229343C82243
:100B30008B500AE07B68252B07D10649054A98238C
:100B4000D3580722934398228B50C046BD4602B02B
:100B500080BDC0460040044080B582B000AF7860E0
:100B600039607B68181CFFF7A9FF3B68181CFFF76A
:100B7000A5FF7B682F2B06D1214B214AD26C012186
:100B80000A43DA6416E07B680C2B08D11C491C4A26
:100B9000CC23D35802221343CC228B500AE07B682B
:100BA000242B07D11649164A9423D3580322134302
:100BB00094228B503B682E2B06D1114B104A926C1D
:100BC00001210A439A6416E03B680B2B08D10C49BB
:100BD0000B4AC823D35802221343C8228B500AE081
:100BE0003B68252B07D10649054A9823D358032291
:100BF000134398228B50C046BD4602B080BDC0460C
:100C00000040044080B584B000AF78602649264A91
:100C10008023D35880225201134380228B50224AD2
:100C200098230121D150204B9A6F204B1B685343CE
:100C3000191C1D4A9823D3587A6853431B01081C7A
:100C4000191C00F0A0FE031CFB60FA68131C5B017A
:100C50009B1A9B009B181433DB09FB60144BC122C9
:100C60009A62134B8322DA60114BFA68120A5A60B7
:100C70000F4BFA68FF210A401A600D4B0322DA601D
:100C80000B4B07229A600A4B04225A60084B084A11
:100C90009268C0210A439A601520FFF7F9FE0123EC
:100CA000181CBD4604B080BD008004400000001048
:100CB0000080004080B584B000AF78600023FB6006
:100CC0000EE0C0460C4B5B6920221340FAD00A4B61
:100CD000FA6879688A1812781A60FB680133FB6039
:100CE000FB687A68D3181B78002BEAD10123181C03
:100CF000BD4604B080BDC0460080004080B500AF56
:100D000019E0144B1B681A1C134BD218134B1B68A9
:100D1000DBB21370114B5B690122134002D1012039
:100D2000FFF724FB0B4B1B68C72B04DC094B1B682C
:100D30005A1C084B1A60094B5B6901221340E0D131
:100D4000044B1B685A1C044BD31800221A70C0466F
:100D5000BD4680BD0400001010000010008000405F
:100D600080B500AF054B00221A60054B00221A70B7
:100D7000034B00225A70C046BD4680BD04000010DF
:100D80001000001080B500AFFFF7B8FFBD4680BD72
:100D900080B500AF01201C210022FFF737FD0120A4
:100DA0001C210122FFF732FDC046BD4680BDC04672
:100DB00080B582B000AF002000F0BCF8002000F049
:100DC000C9F800237B600EE000233B6005E00020B3
:100DD00000F08CF83B6801333B603B68052BF6DD87
:100DE0007B6801337B607B68532BEDDDC046BD46DD
:100DF00002B080BD80B582B000AF00237B6016E0FA
:100E000000233B600DE00D497A68131C5B009B18C2
:100E10005B003A689B189B0000225A503B680133E4
:100E20003B603B68052BEEDD7B6801337B607B68B4
:100E3000532BE5DDC046BD4602B080BDD800001092
:100E400080B500AF01201C210122FFF79FFC01208B
:100E50001D210122FFF79AFC01201F210122FFF72B
:100E600095FC012016210122FFF790FC012014219E
:100E70000122FFF78BFC01201D210122FFF7C6FC98
:100E8000012014210022FFF7C1FCFFF781FF212080
:100E900000F03EF8902000F03BF8202000F038F8F9
:100EA000092000F035F80D2000F032F80C2000F099
:100EB0002FF8FFF77DFFC046BD4680BD80B582B0EC
:100EC00000AF786001201D210022FFF79FFC7B68A6
:100ED0000120191CFFF7AAFD01201D210122FFF7A7
:100EE00095FCC046BD4602B080BDC04680B582B00C
:100EF00000AF786001201F210122FFF787FC7B688B
:100F0000181CFFF7DBFFC046BD4602B080BDC046DF
:100F100080B582B000AF786001201F210022FFF76A
:100F200075FC7B68181CFFF7C9FFC046BD4602B0C0
:100F300080BDC04680B582B000AF78607B688022FB
:100F400013437B607B68181CFFF7E2FFC046BD4679
:100F500002B080BD80B582B000AF78607B68472268
:100F600013407B607B68402213437B607B68181CC6
:100F7000FFF7CEFFC046BD4602B080BD80B582B04F
:100F800000AF0020FFF7D6FF0020FFF7E3FF0023AC
:100F90003B6020E000237B600FE012497A68131C5D
:100FA0005B009B185B003A689B189B005B58181C01
:100FB000FFF79CFF7B6801337B607B68532BECDD84
:100FC0000020FFF7B7FF3B680133181CFFF7C2FF93
:100FD0003B6801333B603B68062BDBDDC046BD460A
:100FE00002B080BDD800001080B584B000AF78603A
:100FF0000023BB6021E00023FB6017E0BB68581CA6
:101000001B49FA68131C5B009B185B001B189B00B4
:1010100058581749FA68131C5B009B185B00BA68A4
:101020009B189B005850FB680133FB60FB68522BF8
:10103000E4DDBA687B68D318BB60BB68042BDADDDB
:101040000023FB600DE00A49FA68131C5B009B1843
:101050005B00BA689B189B0000225A50FB68013362
:10106000FB60FB68522BEEDDBD4604B080BDC04680
:10107000D800001080B588B000AFF860B9607A6021
:101080000023FB610023BB611723FB18FA681A7069
:101090003BE0BB68062B00DD3EE0FA68FB69D21836
:1010A000131C5B009B185B001A1CBB69D318542BE4
:1010B00000DD31E0FA68FB69D218131C5B009B1855
:1010C0005B001A1CBB69D218FB697968CB181B78C6
:1010D000191C0B1C9B005918BB69CB181049CB5C21
:1010E000181C1049131C5B009B185B00BA689B1806
:1010F0009B005850BB690133BB61BB69042B04DD05
:10110000FB690133FB610023BB61FB697A68D3187B
:101110001B78002BBDD1C046BD4608B080BDC0467F
:10112000C41C0000D800001080B584B000AF786007
:101130000A1CFB1C1A700F23FB1800221A700C23C8
:10114000FB1800225A707B68181C00F03BF9021C47
:101150000E23FB181A7062E00F23FB181B787A68C5
:10116000D3181B780A2B10D1334B1B780133DAB21A
:10117000314B1A70304B1B78052B43D90120FFF7F8
:1011800033FF2D4B05221A703CE00F23FB181B7810
:101190007A68D3181B780D2B03D1284B00221A70C4
:1011A00030E00F23FB181B787A68D3181A780C23C9
:1011B000FB181A70214B1B78191C1F4B1B781A1C2B
:1011C0000C23FB18081C111C1A1CFFF753FF1B4BA8
:1011D0001B780133DAB2194B1A70184B1B780D2BA0
:1011E00010D9154B1B78042B06D8134B1B780133F1
:1011F000DAB2114B1A7002E00120FFF7F5FE0F4B37
:1012000000221A700F23FB181A780F23FB180132E3
:101210001A70FB1C1B78002B01D0FFF7AFFE0F23C9
:10122000FA180E23FB1812781B789A4294D3C04602
:10123000BD4604B080BDC046080000100900001083
:101240008E2120201C4B89005A5882B082435A506C
:1012500000221A620192019AC72A03D8C046019A55
:101260000132F7E7012200211A645A6459645A6472
:101270000121586C104A0842FAD0002010675167CB
:10128000506751670121586F0B4A0842FAD08E23EC
:10129000802091679B00D158C00001438020D1502D
:1012A000D15840000143D1508021044A4902D36FF4
:1012B0000B43D36702B070470080044004800440B1
:1012C000002008B5011C021C00F004F8FFF750F9DB
:1012D00008BD0000A02238B5224C00215200201C7D
:1012E00000F0ABF8C02000F0E9F91F4D0021C0224A
:1012F000286000F0A2F800232868282218215A4309
:101300005943A218411801335162082BF5D1221C10
:101310001649002000F0B8F880228023201C5B01D1
:101320000021D20000F02AF8114D124C291C221C79
:10133000012000F0A9F880228023201C5B010021FD
:10134000D20000F01BF80C4C291C221C022000F0DB
:101350009BF880228023201C0021D2005B0100F03A
:101360000DF838BDBC080010B8080010C4210000FA
:10137000C6210000E40800100C090010F0B5C56893
:101380000124AE071AD08026B600B2420BD08026C8
:10139000F600B24204D080267600B2420ED102E0BE
:1013A000416A231C04E0064E5F1E0124B74205D8A3
:1013B0000024154301610160C361C560201CF0BDBC
:1013C000FEFFFF0010B5431C820706D00130421E0D
:1013D0001278002AF8D1C01A18E002680C490D4CA6
:1013E00051189143214201D10430F6E7D4B2411C97
:1013F000002C0AD0FF242402811C224205D0FF24A5
:101400002404C11C224200D0011DC81A10BDC046D0
:10141000FFFEFEFE8080808010B50023CA5C002A9B
:101420000AD0C45C944201D10133F7E70130431E76
:101430001B78002BF1D1181C10BD08B500F0DDFAA7
:1014400008BD0000202310B5041CC2689A43436AFB
:10145000E2605B6882699A420DD000F049F8E26868
:10146000074B134010221343626AE3605368A36181
:10147000236993602360E268024B1340E36010BD70
:10148000EFCFFFFFBFBFFFFF70B50D1C061C101C88
:10149000141C00F023F92B78722B09D0772B04D081
:1014A000612B20D10823114A04E00423022201E029
:1014B00000230122013529782B2905D0622908D182
:1014C00004210A43033902E003210A4301390B4393
:1014D000F0E7E26066611B0706D5201C00210222AE
:1014E00000F04EF900E00024201C70BD02800000D6
:1014F00038B5436AC2689968144B05691340C360E4
:10150000822304681340022B02D001235B421BE0BC
:1015100080235B02134017D0A14200D2211C041C7F
:10152000A94209D1636AE1689D600023084A2560E9
:101530000A40A360E26007E0491B281C221C00F05F
:1015400009F80028EED0E0E7181C38BDFFFFF7FFD0
:10155000FFFFFEFFF7B5D66801900D1C141C5769FC
:10156000F30205D51023381C1E4300F067FAA06172
:10157000114B1E4209D0381CA16900F071FA80237A
:10158000002811DB0D4B1E40E6602A1C381C019917
:1015900000F072FA43005B08ED1AA3695D1900239D
:1015A000A561984205D08033E2681343E3600123CC
:1015B0005B42181CFEBDC04610000200EFFFFDFF9D
:1015C000F7B5314EC51C3468AD080196002813D01C
:1015D0008022291CEB1C002752050A319C4604E09E
:1015E0002368934213D0271CA468002CF8D10C3038
:1015F00000F076F9431C0FD1002043E03E6896428C
:1016000017D17E689B1903336360BB68A360A7682A
:101610006368002FF2D10CE080239B0503604560D6
:101620008460002F02D1019B186000E0B8600C308C
:1016300028E0AB4205DB9C4503DB80239B05236050
:101640001EE08B4210D98022201C8021920522604E
:101650000C30AA005B1B82184905033B6560A26041
:101660001160536097600DE0002FBCD19B00C01A41
:1016700000F036F9431CBFD080239B0523606560D2
:10168000201CD4E7FEBDC046FC09001010B50028A0
:1016900012D080235B05191C0C3803608268002A75
:1016A0000AD013688B4207D1546843681B1903336F
:1016B000436093688360F1E710BD000010B5FFF749
:1016C0007FFF041E05D10449172200F0D5F900F070
:1016D000A9F9201C10BDC046C8210000F0B5436A1E
:1016E000C5688BB0476906690193AB0727D0041C16
:1016F0002B0716D400F02AF8381C00F099F92B05B6
:1017000002D5301CFFF7C2FF0F4BAD0DAD059D425A
:1017100007D102A8216A202200F0A8F902A800F04F
:10172000D5F800211822606AFFF787FE201C0021EF
:101730002822FFF782FE019B0020636201E0012066
:1017400040420BB0F0BDC046000080AD38B5002867
:1017500003D000F0E5F8051C0EE0041C051C07484A
:10176000201800F0DDF8002801D001256D42A023EB
:1017700028345B009C42F2D1281C38BDBC08001004
:10178000F7B5C368161C0093009A3B4B041C0D1C54
:1017900047691A426BD0381C00F056F901900028B6
:1017A00065D1012E04D0022E07D0002E5FD124E097
:1017B000201C00F065F82D181FE0381C00F03EF9E1
:1017C000002805DA8023E2681343E36001234FE039
:1017D000626A21689368994200D90B1CA1695B1861
:1017E00021695B1AE168890603D55268934200DAE1
:1017F000131C834200DA031CED18002D37DB009B1D
:10180000616A9B0404D523688A689A4200D28B607F
:10181000A3699D420DDB20688A68824200D2021CC7
:101820002069D618361AB54203DCCF68DE19B542F6
:1018300007DB2023009A13430022A26062604D6000
:1018400011E0ED1A009B9B0701D5EF1BA760009BE1
:10185000DB0702D5821AAA1862602023009A451974
:101860009A43131C2560054A1340E36001E00223FC
:1018700001930198FEBDC04603001000BFCFF7FFE3
:10188000C3689A0705D1212201200F4B40421A60FC
:1018900018E0202219030BD5134202D0436A58687E
:1018A00004E00368826900699B18181A013809E08E
:1018B000134202D0436A586804E0036882690069F1
:1018C0009B18181A7047C0460C00001010B5041C75
:1018D000FFF778FD011C201C00F0BCF810BD0000D3
:1018E00070B50C4D2B68002B01D10B4B2B600323E3
:1018F000C41C2E689C433419201C00F037F80028C3
:1019000002D12C60301C04E00C220120034B404229
:101910001A6070BD000A0010040A00100C000010CC
:101920000323C26870B51340041C181E1AD0930616
:1019300005D5636A201C5E68FFF784FD04E0236818
:10194000A2699E182369F61AE268074B201C13400F
:10195000E360FFF7CDFD051C311C201C0022FFF7C2
:101960000FFF281C70BDC046FFCFFFFF034B021CBA
:10197000181E02D000209A4240417047000000002B
:1019800003000B4321D4002931D00122D2070309DF
:1019900001E0090112099942FBD9430801E049001D
:1019A00052089942FBD900E04908401A07D3524136
:1019B000FAD301461046704749084018F7D29218EA
:1019C000FAD34018014610467047CB0F00D0494269
:1019D000021000D54042534008B5FFF7D4FF0CBCBD
:1019E000521000D34042002A00D549421847F4461D
:1019F000002000F001F8604770478446043A09D39C
:101A0000830707D109060B0A19430B0C1943043A43
:101A100002C0FCD2043203D001700130013AFBD184
:101A20006046704718200149ABBE7047260002008F
:101A300003B469460220ABBE02B0704703B46946E6
:101A40000C20ABBE02B0704703B469460920ABBEA0
:101A500002B0704703B469460E20ABBE02B07047B7
:101A600003B469460A20ABBE02B070470FB46946A2
:101A70000D20ABBE04B070470FB469460520ABBE65
:101A800004B070475278526F7574696E652069733F
:101A900020676F210A0D00005278204649464F20EA
:101AA000656D707479202D20312000005278204619
:101AB00049464F206861732064617461202D203194
:101AC000000000007C0000002D0000000A0D000056
:101AD0002020202020202020202020202020202006
:101AE0002020202020202020202020202020000036
:101AF000446174613A2000005B3078253032785DB3
:101B0000200000002E0A0D00436C656172656420A0
:101B10006461746120726563656976656420696ECD
:101B2000746572727570740A0D0000005478526FFB
:101B30007574696E6520697320676F210A0D000056
:101B40004372617020746F205478204649464F21BB
:101B50000A0D0000437261702073756363657373CF
:101B600066756C6C7920696E205478204649464F22
:101B7000210A0D00536B6970706564207472616E88
:101B8000736D697373696F6E0A0D00004661696C4D
:101B9000656420746F2073656E64210A0D00000077
:101BA000466C757368656420627566666572210AA5
:101BB0000D0000004D41545F525420696E746572EF
:101BC00072757074206163746976650A0D00000097
:101BD0004D41545F525420696E7465727275707411
:101BE00020636C65617265640A0D000054585F449F
:101BF0005320696E746572727570742061637469C4
:101C000076650A0D0000000054585F445320696E49
:101C10007465727275707420636C65617265640AB4
:101C20000D000000464C4153482045524153452089
:101C300040200000466C61736820777269746520EB
:101C4000676F2040200000003B2000002062797474
:101C50006573200A0D000000466C6173682077727E
:101C600069746520656E640A0D0000005265616448
:101C70002040200A0D000000455350207465737405
:101C80000A0D00000D0A00005278432E0A0D0000D4
:101C9000436D643A000000000A0D00004F4B000045
:101CA0002E0000004F4B204745540A0D0000000055
:101CB0004641494C0A0D00004154000041542B524A
:101CC0005354000000000000003E5B4F5B3E3E6B43
:101CD0004F6B3E1C3E7C3E1C183C7E3C181C577DC6
:101CE000571C1C5E7F5E1C00183C1800FFE7C3E712
:101CF000FF0018241800FFE7DBE7FF30483A060E24
:101D00002629792926407F050507407F05253F5A6A
:101D10003CE73C5A7F3E1C1C08081C1C3E7F1422DA
:101D20007F22145F5F005F5F06097F017F00668985
:101D3000956A606060606094A2FFA29408047E04CB
:101D40000810207E201008082A1C08081C2A0808F1
:101D50001E101010100C1E0C1E0C30383E383006B1
:101D60000E3E0E06000000000000005F00000007AD
:101D7000000700147F147F14242A7F2A12231308DB
:101D8000646236495620500008070300001C2241B7
:101D9000000041221C002A1C7F1C2A08083E08085B
:101DA000008070300008080808080000606000200B
:101DB000100804023E5149453E00427F40007249EE
:101DC0004949462141494D331814127F1027454592
:101DD00045393C4A494931412111090736494949A8
:101DE00036464949291E0000140000004034000016
:101DF000000814224114141414140041221408027F
:101E0000015909063E415D594E7C1211127C7F49F1
:101E10004949363E414141227F4141413E7F494946
:101E200049417F090909013E414151737F08080872
:101E30007F00417F41002040413F017F0814224143
:101E40007F404040407F021C027F7F0408107F3E9D
:101E50004141413E7F090909063E4151215E7F090A
:101E6000192946264949493203017F01033F404071
:101E7000403F1F2040201F3F4038403F631408145C
:101E80006303047804036159494D43007F41414194
:101E90000204081020004141417F04020102044075
:101EA00040404040000307080020545478407F28F9
:101EB0004444383844444428384444287F385454EF
:101EC000541800087E090218A4A49C787F08040412
:101ED0007800447D40002040403D007F10284400B1
:101EE00000417F40007C047804787C080404783842
:101EF00044444438FC1824241818242418FC7C0872
:101F0000040408485454542404043F44243C4040EE
:101F1000207C1C2040201C3C4030403C44281028A1
:101F2000444C9090907C4464544C440008364100EA
:101F30000000770000004136080002010204023C64
:101F40002623263C1EA1A161123A4040207A385433
:101F500054555921555579412254547842215554AC
:101F6000784020545579400C1E52721239555555FF
:101F700059395454545939555454580000457C41EA
:101F80000002457D420001457C407D1211127DF02A
:101F9000282528F07C545545002054547C547C0A54
:101FA000097F4932494949323A4444443A324A481D
:101FB00048303A4141217A3A42402078009DA0A021
:101FC0007D3D4242423D3D4040403D3C24FF242473
:101FD000487E4943662B2FFC2F2BFF0929F620C092
:101FE000887E090320545479410000447D413048E3
:101FF000484A32384040227A007A0A0A727D0D1926
:10200000317D2629292F28262929292630484D4087
:1020100020380808080808080808382F10C8ACBA83
:102020002F102834FA00007B000008142A14222202
:10203000142A14085500550055AA55AA55AAFF554B
:10204000FF55FF000000FF00101010FF00141414D3
:10205000FF001010FF00FF1010F010F0141414FC1B
:10206000001414F700FF0000FF00FF1414F404FC38
:10207000141417101F10101F101F1414141F001019
:102080001010F0000000001F101010101F10101092
:1020900010F010000000FF101010101010101010A1
:1020A000FF10000000FF140000FF00FF00001F10E1
:1020B000170000FC04F414141710171414F404F49B
:1020C0000000FF00F714141414141414F700F7148C
:1020D0001414171410101F101F141414F4141010DB
:1020E000F010F000001F101F0000001F140000007F
:1020F000FC140000F010F01010FF10FF141414FF77
:10210000141010101F00000000F010FFFFFFFFFF71
:10211000F0F0F0F0F0FFFFFF0000000000FFFF0F05
:102120000F0F0F0F3844443844FC4A4A4A347E02A9
:10213000020606027E027E0263554941633844442A
:102140003C04407E201E2006027E020299A5E7A5DF
:10215000991C2A492A1C4C7201724C304A4D4D3050
:102160003048784830BC625A463D3E494949007E75
:102170000101017E2A2A2A2A2A44445F444440510C
:102180004A444040444A51400000FF0103E080FFC0
:10219000000008086B6B083612362436060F090F4C
:1021A00006000018180000001010003040FF010168
:1021B000001F01011E00191D1712003C3C3C3C0091
:1021C00000000000720077002A2A2A205F437379FA
:1021D000735F616C6C6F63206661696C65640A0093
:0421E000001BB70029
:040000030000015D9B
:00000001FF
