:10410000002000105D420000F1420000F942000072
:10411000000000000000000000000000000000009F
:10412000000000000000000000000000014300004B
:1041300000000000000000000943000011430000DF
:1041400019430000194300001943000019430000FF
:1041500019430000194300001943000019430000EF
:104160001943000019430000000000000000000097
:104170000000000000000000194300001943000087
:1041800019430000194300001943000019430000BF
:1041900019430000194300001943000019430000AF
:1041A000194300001943000019430000194300009F
:1041B00000000000000000001943000000000000A3
:1041C000E09300000000001004000000E0930000F5
:1041D0000040002000000000040000103009000032
:1041E000004000200000000080B588B000AFF860FB
:1041F000B9607A60BB68FB61FB68BB6100237B61CF
:104200000AE0FB691A1DFA61BA69111DB9611268E9
:104210001A607B6904337B617A697B689A42F0D3C8
:10422000C046BD4608B080BD80B584B000AF7860A0
:1042300039607B68FB600023BB6007E0FB681A1DE8
:10424000FA6000221A60BB680433BB60BA683B683E
:104250009A42F3D3C046BD4604B080BD80B586B057
:1042600000AF1F4B3B613B691B68C02212051A431C
:104270003B691A601B4B7B6114E07B691A1D7A61F4
:104280001B68FB607B691A1D7A611B68BB607B69D8
:104290001A1D7A611B687B607A68B968FB68180030
:1042A000FFF7A2FF7A69104B9A42E6D30FE07B69D1
:1042B0001A1D7A611B68BB607B691A1D7A611B68D5
:1042C0007B607A68BB6811001800FFF7ADFF7A6960
:1042D000064B9A42EBD301F051FA01F08FFAFEE758
:1042E00080800440C0410000D8410000E841000047
:1042F00080B500AFFEE7C04680B500AFFEE7C04620
:1043000080B500AFFEE7C04680B500AFFEE7C0460F
:1043100080B500AFFEE7C04680B500AFFEE7C046FF
:10432000FFFFFFFFFFFFFFFFFFFFFFFFFFFFFFFF9D
:10433000FFFFFFFFFFFFFFFFFFFFFFFFFFFFFFFF8D
:10434000FFFFFFFFFFFFFFFFFFFFFFFFFFFFFFFF7D
:10435000FFFFFFFFFFFFFFFFFFFFFFFFFFFFFFFF6D
:10436000FFFFFFFFFFFFFFFFFFFFFFFFFFFFFFFF5D
:10437000FFFFFFFFFFFFFFFFFFFFFFFFFFFFFFFF4D
:10438000FFFFFFFFFFFFFFFFFFFFFFFFFFFFFFFF3D
:10439000FFFFFFFFFFFFFFFFFFFFFFFFFFFFFFFF2D
:1043A000FFFFFFFFFFFFFFFFFFFFFFFFFFFFFFFF1D
:1043B000FFFFFFFFFFFFFFFFFFFFFFFFFFFFFFFF0D
:1043C000FFFFFFFFFFFFFFFFFFFFFFFFFFFFFFFFFD
:1043D000FFFFFFFFFFFFFFFFFFFFFFFFFFFFFFFFED
:1043E000FFFFFFFFFFFFFFFFFFFFFFFFFFFFFFFFDD
:1043F000FFFFFFFFFFFFFFFFFFFFFFFFFFFFFFFFCD
:1044000080B582B000AF7860104B00229A600F4BED
:1044100000221A610D4B0B22DA600C4B05225A6107
:104420000A4B7A689A61C046084B9A697B689A423F
:10443000FAD1064B01225A60C046044B5B68012248
:104440001340FAD1C046BD4602B080BD00C0004056
:1044500080B582B000AF786006E00A4B1800FFF725
:10446000CFFF7B68413B7B607B68402BF5DC7B6842
:10447000FA22920053431800FFF7C2FFC046BD4620
:1044800002B080BDE8FD000080B500AF00220D2124
:10449000012000F07BFA01220E21012000F076FAC3
:1044A0002F4B2F4A126A01210A431A622C492C4AC7
:1044B0008E239B00D358102293431A008E239B0017
:1044C000CA502749264A8023D3588022134380228A
:1044D0008B502349224A8023D35880225200134311
:1044E00080228B501E491E4A8023D358802292007E
:1044F000134380228B501A49194A8023D3588022B3
:10450000D200134380228B501549154A8023D3587B
:104510008022D202134380228B501149104A8023FB
:10452000D35880225201134380228B500C490C4AED
:104530008023D35880229201134380228B50084A53
:104540009C230121D150064B054A526804210A439D
:104550005A60034A98230121D150C046BD4680BD10
:104560000080044080B59AB004AF2F4B180001F0D2
:10457000BFFE00220221002000F0C8F9002207211E
:10458000002000F0C3F901220D21012000F0BEF946
:1045900001220E21012000F0B9F901221B21012086
:1045A00000F0B4F9FFF770FF0D231A222621012035
:1045B00000F09AFB0023039300230293002301934E
:1045C00001230093012300220821012000F0E2FBD7
:1045D00000237B6500233B6500220D21012000F0B4
:1045E000D5F996239B01180000F028FD2E212F20DD
:1045F00000F0CEFC0D4B180000F074FD00F028F820
:10460000202000F081FA0A230A220121002000F074
:10461000FDFA074B180000F065FD00F0BDF8054BF2
:10462000180000F05FFDFEE7C8860000DC86000091
:10463000EC860000FC86000080B582B000AF786098
:104640007B68180000F04EFDC046BD4602B080BD3C
:1046500080B500AF074B180000F044FD03E0064BA7
:10466000054A12681A60044B5B6901221340F6D1B7
:10467000F4E7C046108700000080004080B582B09B
:1046800002AF00F0ABFD3C4B1800FFF7D5FF6420F4
:10469000FFF7DEFE00F07CFD384B1800FFF7CCFF83
:1046A000374B1A000021002001F010F8354B1A009A
:1046B0000221022001F00AF8334B1A0003210620E0
:1046C00001F004F8314B1A000421042000F0FEFF31
:1046D0002F4B1800FFF7B0FF00F0C2FF2D4B180062
:1046E000FFF7AAFF002000F0F3FD002000F000FE1D
:1046F00001230193A0230093C8230A220A21292021
:1047000000F066FE01230193B4235B0000930023B5
:10471000072228211A2000F05BFE01230193B42315
:104720005B000093002307222821382000F050FE70
:10473000012301930023009303230A220A21292045
:1047400000F0E8FE01230193B42300931423002218
:104750001221232000F0DEFE01230193B4230093F5
:104760001423002212212F2000F0D4FE00F078FF45
:10477000C046BD4680BDC04650870000648700002B
:1047800080870000888700009087000094870000E1
:104790009C870000B887000080B596B000AFFFF797
:1047A0006DFF00237B6500233B657B6D01337B65DB
:1047B0007B6D012B04DD00237B653B6D01333B6585
:1047C000FA20FFF745FE00221B21012000F0DEF851
:1047D000FA20FFF73DFE01221B21012000F0D6F850
:1047E000414A2823FB181100180002F01BFD3B6D05
:1047F000013301D100233B653B6D3C4A934206D80F
:104800003B4A2823FB181100180002F0FEFC3B6D08
:10481000384A934206D8364A2823FB18110018005C
:1048200002F0F3FC3B6D344A934206D8304A282309
:10483000FB181100180002F0E8FC3B6D2F4A934270
:1048400006D82B4A2823FB181100180002F0DDFCC3
:104850003B6D2B4A934206D8254A2823FB181100AA
:10486000180002F0D2FC3B6D264A934206D8204A3B
:104870002823FB181100180002F0C7FC3B6D224AE8
:10488000934206D81A4A2823FB181100180002F098
:10489000BCFC3B6D632B06D8154A2823FB1811007E
:1048A000180002F0B2FC3B6D092B06D8104A2823F1
:1048B000FB181100180002F0A8FC39003B6D0A2219
:1048C000180001F091FD3A002823FB181100180090
:1048D00002F09BFC2823FB181A000021022000F0A4
:1048E000F5FE00F0BDFE60E7C8870000FFC99A3BF7
:1048F00038870000FFE0F5057F9698003F420F00E3
:104900009F8601000F270000E703000080B584B0F8
:1049100000AFF860B9607A607B68002B17D0A023E5
:10492000DB05A022D205F96880200001844661449D
:1049300089008A580120B968884001001143FA684B
:1049400080200001844662449200D1501AE0A023E6
:10495000DB05A022D205F96880200001844661446D
:1049600089008A580120B96888400100FF20014071
:10497000C9431140FA6880200001844662449200D5
:10498000D150C046BD4604B080BDC04680B584B09D
:1049900000AFF860B9607A607B68012B32D87B6821
:1049A000002B17D0A023DB05A022D205F9688820B0
:1049B00000018446614489008A580120B968884012
:1049C00001001143FA688820000184466244920085
:1049D000D15017E0A023DB05A022D205F9688A2078
:1049E00000018446614489008A580120B9688840E2
:1049F00001001143FA688A20000184466244920053
:104A0000D150C046C046BD4604B080BD80B582B01E
:104A100000AF78607B681E3B0C2B6DD89A00384B3A
:104A2000D3181B689F46374B364AD26A07218A4300
:104A3000DA62344B334AD26A80210A43DA625AE09E
:104A4000304B304A126B07218A431A632D4B2D4A93
:104A5000126B80210A431A634DE02A4B294A526B9C
:104A600007218A435A63274B264A526B80210A4307
:104A70005A6340E0234B234A926B07218A439A638F
:104A8000204B204A926B80210A439A6333E01D4BEE
:104A90001C4AD26B07218A43DA631A4B194AD26B3C
:104AA00080210A43DA6326E0164B164A126C07216E
:104AB0008A431A64134B134A126C80210A431A6406
:104AC00019E0104B0F4A926D07218A439A650D4BEE
:104AD0000C4A926D80210A439A650CE0094B094A01
:104AE000D26D07218A43DA65064B064AD26D8021D2
:104AF0000A43DA65C046C046C046BD4602B080BD26
:104B0000D08D00000040044080B582B000AF7860D6
:104B10007B681800FFF77AFF7B681E3B0C2B6DD873
:104B20009A00384BD3181B689F46374B364AD26AD7
:104B300002210A43DA62344B334AD26A80218A4323
:104B4000DA625AE0304B304A126B02210A431A6390
:104B50002D4B2D4A126B80218A431A634DE02A4B5C
:104B6000294A526B02210A435A63274B264A526B49
:104B700080218A435A6340E0234B234A926B0221EF
:104B80000A439A63204B204A926B80218A439A639E
:104B900033E01D4B1C4AD26B02210A43DA631A4BE5
:104BA000194AD26B80218A43DA6326E0164B164AF3
:104BB000126C01210A431A64134B134A126C8021B0
:104BC0008A431A6419E0104B0F4A926D01210A437F
:104BD0009A650D4B0C4A926D80218A439A650CE0D0
:104BE000094B094AD26D01210A43DA65064B064A90
:104BF000D26D80218A43DA65C046C046C046BD46B4
:104C000002B080BD048E000000400440B0B582B008
:104C100000AF05000C0010001900FB1D2A1C1A70C3
:104C2000BB1D221C1A707B1D021C1A703B1D0A1C26
:104C30001A70274B264A1268F91D0978012088400E
:104C400001000A431A60224B214A126821490A4096
:104C50001A601F4B1E4A1268791D097809020A431F
:104C60001A601B4B1A4A12681B490A401A603B1D06
:104C70003A1D12780A218A1A1A70154B144A1268C2
:104C8000391D097849040A431A60BB1D1B78002BA3
:104C900013D00F4B0E4A126810490A401A600C4B91
:104CA0000B4AD2680E490A40DA60094B084A12687A
:104CB000802149020A431A6006E0054B044A126843
:104CC00008490A401A60C046BD4602B0B0BDC046A1
:104CD00000C00140FF00FFFFFFFFF1FFFFFFFFF8F3
:104CE000FFFEFFFFFFFFFEFF80B584B000AFF8605E
:104CF000B9607A603B60FB68002B00D1FEE7FB687F
:104D0000012B41D1BB68112B06D1214B204A526D9A
:104D100002210A435A650AE0BB68262B07D11C49C9
:104D20001B4AB823D35802221343B8228B507B6806
:104D30001E2B06D1164B164A926D02210A439A6524
:104D40000AE07B681A2B07D11149114AB423D358C2
:104D500002221343B4228B503B682B2B08D10C4901
:104D60000B4A9C23D358032213439C228B500BE005
:104D70003B680D2B08D10649054AB023D3580222BF
:104D80001343B0228B50C046C046BD4604B080BD20
:104D90000040044080B586B000AFF860B9607A602A
:104DA0003B6000237B61BB68013BBB60BB68022B9F
:104DB00001DC0323BB60BB680F221340BB607B6830
:104DC000032B01D100237B607B68032213407B60AF
:104DD0003B68012213403B603B6A012213403B6267
:104DE0007B6AFF2213407B627B681A01BB681A430F
:104DF0003B689B011A433B6ADB011A437B6A1B0237
:104E000013437B61FB68002B03D11E4B7A691A6048
:104E100005E0FB68012B02D11B4B7A691A60002365
:104E20007B61BB6A9B007B61FB68002B08D1154B43
:104E30007A695A60134B7A6902210A435A600AE080
:104E4000FB68012B07D1104B7A695A600E4B7A69C7
:104E500002210A435A60FB6AFE221340FB62FB6890
:104E6000002B03D1074BFA6A1A6106E0FB68012B9D
:104E700003D1054BFA6A1A61C046C046BD4606B06A
:104E800080BDC046000004400080054080B582B06F
:104E900000AF786039607B68002B0FD1C046134BA0
:104EA000DB6802221340FAD0104B3A689A60C04681
:104EB0000E4BDB6810221340FAD112E07B68012B05
:104EC0000FD1C0460A4BDB6802221340FAD0084BD0
:104ED0003A689A60C046064BDB6810221340FAD14C
:104EE000C046C046BD4602B080BDC046000004407A
:104EF0000080054080B582B000AF78607B682F2BC2
:104F000006D1224B214AD26C07218A43DA6439E068
:104F10007B680C2B08D11D491C4ACC23D35807228F
:104F20009343CC228B502DE07B68242B08D117496A
:104F3000164A9423D3580722934394228B5021E09E
:104F40007B682E2B06D1114B104A926C07218A43A5
:104F50009A6417E07B680B2B08D10C490B4AC823D5
:104F6000D35807229343C8228B500BE07B68252B34
:104F700008D10649054A9823D3580722934398221B
:104F80008B50C046C046BD4602B080BD00400440C4
:104F900080B582B000AF786039607B681800FFF799
:104FA000A9FF3B681800FFF7A5FF7B682F2B06D1F0
:104FB000214B214AD26C01210A43DA6416E07B6856
:104FC0000C2B08D11C491C4ACC23D3580222134372
:104FD000CC228B500AE07B68242B07D11649164A55
:104FE0009423D3580322134394228B503B682E2BD7
:104FF00006D1114B104A926C01210A439A6417E0C2
:105000003B680B2B08D10C490B4AC823D35802220A
:105010001343C8228B500BE03B68252B08D106496F
:10502000054A9823D3580322134398228B50C04635
:10503000C046BD4602B080BD0040044080B584B08B
:1050400000AF78602449244A8023D358802252013B
:10505000134380228B50204A98230121D1501E4BAC
:105060009A6F1E4B1B68534318001B4A9823D35852
:105070007A6853431B01190002F0DFFD0300FB6057
:10508000FA6813005B019B1A9B009B181433DB0921
:10509000FB60134BC1229A62114B8322DA60104BE2
:1050A000FA68120A5A600E4BFA68FF210A401A6029
:1050B0000B4B0322DA600A4B07229A60084B04224A
:1050C0005A60074B064A9268C0210A439A6001233E
:1050D0001800BD4604B080BD0080044000000010F0
:1050E0000080004080B584B000AF78600023FB6092
:1050F0000EE0C0460C4B5B6920221340FAD00A4BED
:10510000FA6879688A1812781A60FB680133FB60C4
:10511000FB687A68D3181B78002BEAD101231800AA
:10512000BD4604B080BDC0460080004080B500AFE1
:1051300000221C210120FFF729FC01221C21012053
:10514000FFF724FCC046BD4680BDC04680B582B096
:1051500000AF002000F0BCF8002000F0C9F80023E8
:105160007B600EE000233B6005E0002000F08CF83F
:105170003B6801333B603B68052BF6DD7B68013300
:105180007B607B68532BEDDDC046BD4602B080BD21
:1051900080B582B000AF00237B6016E000233B6047
:1051A0000DE00D497A6813005B009B185B003A68BC
:1051B0009B189B0000225A503B6801333B603B68C0
:1051C000052BEEDD7B6801337B607B68532BE5DDCF
:1051D000C046BD4602B080BD5401001080B500AF8E
:1051E00001221C210120FFF791FB01221D2101203A
:1051F000FFF78CFB01221F210120FFF787FB012213
:1052000016210120FFF782FB012214210120FFF764
:105210007DFB01221D210120FFF7B8FB0022142194
:105220000120FFF7B3FBFFF781FF212000F03EF8DC
:10523000902000F03BF8202000F038F8092000F022
:1052400035F80D2000F032F80C2000F02FF8FFF7B1
:105250007DFFC046BD4680BD80B582B000AF78609E
:1052600000221D210120FFF791FB7B68190001201E
:10527000FFF70CFE01221D210120FFF787FBC0462E
:10528000BD4602B080BDC04680B582B000AF786038
:1052900001221F210120FFF779FB7B681800FFF72F
:1052A000DBFFC046BD4602B080BDC04680B582B0BF
:1052B00000AF786000221F210120FFF767FB7B68A9
:1052C0001800FFF7C9FFC046BD4602B080BDC0460A
:1052D00080B582B000AF78607B68802213437B602A
:1052E0007B681800FFF7E2FFC046BD4602B080BDF4
:1052F00080B582B000AF78607B68472213407B6046
:105300007B68402213437B607B681800FFF7CEFF69
:10531000C046BD4602B080BD80B586B000AFF86023
:10532000B9607A6000237B61BB68072B0BDDBB682B
:105330003B6105E03B69083B3B617B6901337B6175
:105340003B69072BF6DC7B69DB00BA68D31ABB60CC
:105350007B68002B1AD01D49FA6813005B009B186C
:105360005B007A699B189B005A580121BB689940E1
:105370000B001A4310001549FA6813005B009B18D4
:105380005B007A699B189B0058501BE00F49FA6834
:1053900013005B009B185B007A699B189B005B58AD
:1053A0000121BA6891400A00D2431A40100007490F
:1053B000FA6813005B009B185B007A699B189B00DE
:1053C0005850C046BD4606B080BDC04654010010CE
:1053D000B0B58AB000AF78613961FA60BB6086E031
:1053E000786902F096FF04000D00B86802F091FFA2
:1053F000434A444B02F05CFC02000B001000190011
:105400000022414B02F012FD02000B0010001900B7
:1054100001F0E0FE38607960F86802F07AFF02007F
:105420000B003868796802F043FC02000B001000A2
:1054300019000022354B02F03BFC02000B0010006B
:1054400019000022324B02F0F1FC02000B00200098
:10545000290002F091FD03000C003B627C62386978
:1054600002F057FF04000D00B86802F052FF244A12
:10547000244B02F01DFC02000B001000190000225A
:10548000214B02F0D3FC02000B001000190000F0C9
:10549000C3F938607960F86802F03BFF02000B0046
:1054A0003868796802F004FC02000B002000290033
:1054B00002F062FD03000C00BB61FC61386A796A8E
:1054C00002F0D6FE0400B869F96902F0D1FE0100CD
:1054D000FB6B1A002000FFF71FFFBB680133BB60A6
:1054E000BA68B4235B009A4201DD0023BB60BA684E
:1054F000BB6B9A4200D073E7C046BD460AB0B0BD50
:105500001F85EB51B81E0940008066400000204016
:1055100000001C40B0B58CB000AF78613961FA6012
:10552000BB60FA68BB689A4200DC86E0FB68FB62FD
:10553000BB68FB60FB6ABB607FE0786902F0E9FE54
:1055400004000D00386C02F0E4FE404A404B02F0CB
:10555000AFFB02000B001000190000223D4B02F0CF
:1055600065FC02000B001000190001F033FE3860EA
:105570007960F86802F0CDFE02000B0038687968A7
:1055800002F096FB02000B00100019000022324BC3
:1055900002F08EFB02000B001000190000222F4BBE
:1055A00002F044FC02000B002000290002F0E4FCA1
:1055B00003000C003B627C62386902F0AAFE040022
:1055C0000D00386C02F0A5FE204A214B02F070FB62
:1055D00002000B001000190000221E4B02F026FCF6
:1055E00002000B001000190000F016F93860796015
:1055F000F86802F08EFE02000B003868796802F04D
:1056000057FB02000B002000290002F0B5FC03004C
:105610000C00BB61FC61386A796A02F029FE040063
:10562000B869F96902F024FE01007B6C1A002000C1
:10563000FFF772FEFB680133FB60FA68BB689A42B1
:1056400000DC7AE7C046BD460CB0B0BD1F85EB510B
:10565000B81E0940008066400000204000001C4049
:1056600080B582B000AF0020FFF732FE0020FFF7C8
:105670003FFE00233B6020E000237B600FE01249E7
:105680007A6813005B009B185B003A689B189B00CC
:105690005B581800FFF7F8FD7B6801337B607B687F
:1056A000532BECDD0020FFF713FE3B68013318009D
:1056B000FFF71EFE3B6801333B603B68062BDBDDDA
:1056C000C046BD4602B080BD5401001080B586B012
:1056D00000AFF860B9607A6000237B6100233B6112
:1056E00039E0BB68062B3EDCFA687B69D2181300F0
:1056F0005B009B185B001A003B69D318542B34DC09
:10570000FA687B69D21813005B009B185B001A00D3
:105710003B69D2187B697968CB181B7819000B009C
:105720009B0059183B69CB181249CB5C18001249F1
:1057300013005B009B185B00BA689B189B005850D5
:105740003B6901333B613B69042B04DD7B69013319
:105750007B6100233B617B697A68D3181B78002B3F
:10576000BFD1C04602E0C04600E0C046BD4606B01C
:1057700080BDC046388E00005401001013B58E2144
:1057800020201C4B89005A5882435A5000221A622A
:105790000192019AC72A03D8C046019A0132F7E75D
:1057A000012200211A645A6459645A645C6C1148DD
:1057B00001211442FAD00022026741674267416723
:1057C000586F0C4A0842FBD0012393678E23802038
:1057D0009B00D158C00001438020D150D1584000D7
:1057E0000143D1508021044A4902D36F0B43D36750
:1057F00013BDC0460080044004800440002210B560
:105800001100100000F09CFDFEF7ACFE10BD10B5BD
:1058100002F045FE10BDFFFF37B500230022050052
:105820000C0002F099FD00280FD02A0023000F4839
:105830000F4902F0A1FB02002800802501232D065C
:10584000019300930B0061190CE0084A084B2800F3
:10585000210002F075FC012302000193009328004F
:105860000B00210001F0CCFE03B030BD182D4454D4
:10587000FB21F93F10B541180A78342A01DC0020D9
:105880001CE00B00352A06D101331A78302AFBD0F0
:10589000002AF4D00B003024013B1A78392A01D1B8
:1058A0001C70F9E701321A700378302BE7D00B1A1D
:1058B00003D40B7801398B70F9E7012010BDF8B5DE
:1058C0000A2704000D008E1F7F42B5420BD0200036
:1058D0000A2102F0AFF93B00434330341C19013D6B
:1058E0006C700400F1E7F8BD0EB430B592B015ABA2
:1058F00010CB05002822002108A80793FFF787FF97
:105900000A2301220B93114B00940A93104B52422D
:105910000293079B08A801930C4B089500F088FDA3
:105920000A9B04000593013B0A93002B03DB002331
:10593000089A137003E008A9002001F0E1FC2000A0
:1059400012B030BC08BC03B01847C046FFFFFF7F51
:1059500055590000F0B54D68A1B017000E68B14A66
:1059600004932B0C0590099608951340934224D17B
:1059700000232D032D0BFB702E436E33002E17D109
:1059800069227B70083BBB70089B3A70002B01DAE0
:10599000A54B08E0049AA54B920704D4049AA44BA3
:1059A000520700D4A34B269A0320136000F06AFC30
:1059B00061223B707A70BB70F4E72023059A0024C3
:1059C0009A43412A00D15DE20022002330002900E1
:1059D00002F0C2FCA04208D0802109066B181D000D
:1059E0000123099A0A93160000E00A90002200237E
:1059F0003000290002F098FC002800D024E213AA0D
:105A00003000290001F090FD149015912E20FA210C
:105A1000139CFF306043884B8900C01802F00AF9DC
:105A20008649021B0600002001F0BEFD1E901F915A
:105A3000002E05DA824A834B74421A921B9306E0C9
:105A40000022814B1A921B93002E17D0340001259F
:105A50002C4209D11A981B991A9A1B9B02F028F91B
:105A600064101A901B91F3E71A981B991E9A1F9BBA
:105A700002F01EF91E901F91012CEBD1149815997C
:105A80001E9A1F9B02F0D2F916901791169817993B
:105A900000226E4B02F060FC002811D01698179976
:105AA00000226B4B02F004F9169017911E981F9973
:105AB0000022674B02F0BAF9013E1E901F91E5E704
:105AC000169817990022634B02F0A2FC002811D00F
:105AD0001698179900225E4B02F0A8F916901791BC
:105AE0001E981F9900225A4B02F0E2F801361E90D0
:105AF0001F91E5E71698179902F0BAFB734205006B
:105B00000B93002E00DB0B96139B2800F41A02F077
:105B100000FC220001F048FD00240023169017919C
:105B200018931994002E33DA454A464B00241A92F2
:105B30001B9300231C931D941A9A1B9B1A981B9964
:105B40000022069207931C9B1D9C0C930D94069AB1
:105B5000079B02F011FA0C9A0D9B02F0F1FA069BDA
:105B6000079C1C901D911A931B941A981B99002254
:105B7000354B02F09DF802000B0000202F4902F087
:105B8000FBF90022304B02F051F91C901D910AE004
:105B900000222D4B00241A921B9300231C931D946A
:105BA000002E00D1A6E00B9C01231C4254D11A9870
:105BB0001B991C9A1D9B069207931C9A1D9B0C9285
:105BC0000D9302000B0002F0BBFA069A079B02F04D
:105BD000B7FA0C9A0D9B02F06BF81C901D911A9865
:105BE0001B991A9A1B9B02F063F81A901B911A9A40
:105BF0001B9B1A981B990022069207931C9A1D9BC7
:105C00000C920D93069A079B02F0B6F90C9A0D9B25
:105C100002F096FA069A079B1C901D9164101A9246
:105C20001B93C1E7F07F00006A93000038930000E7
:105C30003A930000C993000084EAFFFF0000F03FA0
:105C40009A9999999999C93F00001440006AF840BF
:105C50000000244080842E41169A179B06920793D9
:105C60001C9A1D9B1A981B990C920D931C9A1D9BB4
:105C70000E920F93189A199B109211930E9A0F9BE4
:105C800002F05EFA109A119B02F012F80C9A0D9B2A
:105C90000E900F910698079902F00AF802000B0087
:105CA0000E980F9902F04CFA189019911A981B99B6
:105CB000169A179B01F0FCFF16901791169A179BE6
:105CC00016981799002206920793189A199B0C921E
:105CD0000D93069A079B02F04FF90C9A0D9B02F068
:105CE0002FFA069A079B1890199116921793012C78
:105CF00000D05CE716981799149A159B02F05AFB8E
:105D0000002801D1013DFFE6169A179B14981599BA
:105D100002F032F914901591189A199B149815995C
:105D200002F02AF9149015911E9A1F9B1498159948
:105D300002F07CF814901591149815990022BA4B32
:105D400001F0B6FF149015911498159902F090FA8D
:105D5000149A159B04000692079302F0DAFA0200E7
:105D60000B000698079902F007F90022AE4B01F0EC
:105D70009FFF149015911498159902F079FA0690E6
:105D8000069B002B06DAA94A069B944663440693B9
:105D9000013CF5E7A64A0699A54B914206DDA549C7
:105DA000069B8C46634406930134F4E7002C03DA27
:105DB0009E4A013DA418F9E79C4203DD9D4A013546
:105DC000A418F9E79C4B9D421ADC9C49200001F085
:105DD00031FF0A236B430B90C5189849069801F0D0
:105DE00029FF974B0B9A013E5A4314190A22434349
:105DF0005443069A04199B180A225A43069229E032
:105E00008B4B9D4226DD0A21280001F013FF0A2357
:105E10005B4243435D19854B0B905D432D190A216D
:105E2000280001F007FF04000A20404260437F4B36
:105E300040195843069B0A211818053001F0FAFE54
:105E4000013606900B9D05E0002305261C001D0071
:105E5000764206933023B91D3B702800FFF72FFDD3
:105E6000390020000C31FFF72AFD39000698123165
:105E7000FFF725FD3023FB740023741D3B750A9B3F
:105E8000A4001C43E30701D56E4B08E0049A6E4B57
:105E9000920704D4049A6D4B520700D46C4B269A97
:105EA000136001239C43E01702331840059B04193B
:105EB000A410612B10D006DC452B6DD0472B49D0A8
:105EC000412B45D108E0059B662B00D106E1672BED
:105ED00040D0652B3CD15FE0089B1C035A00240B8B
:105EE000520D02D05B4BD31805E0099B234301D12F
:105EF000130000E0574B27990D68002D0FD104992E
:105F000009070CD405985449612800D053495042E0
:105F1000424131243800A21AFFF7E6FC10E0059850
:105F20004F49612800D04F495042424131200293ED
:105F3000099B821A009301942B003800FFF7D4FCD0
:105F4000089A434B002A00DA3E4B269A136099E1E7
:105F5000672305938023049A1B011A43279B04920D
:105F60001B680693002B02DC0123279A1360279BF2
:105F700012211B68112B00DC591C3800FFF77AFC3A
:105F8000279B24181B689C4200DAA0E0279A013B5B
:105F90001360059B023B0593279B1B68112B05DDB6
:105FA000299A113B13601123279A13608026279B9F
:105FB00036011B6806939D1C049B1E4004D12900DA
:105FC0003800FFF757FC24187B783B70279B1B6831
:105FD000002B03D1244B049A1A4202D02E237B704B
:105FE00000E00125299B1B68002B02DD3E237B5529
:105FF0000135002E0DD0049B1B070AD46B1EFA5CE2
:10600000302A01D11D00F9E73E2AFBD02E2A00D10B
:106010001D006A46127D6B1C7A550235002C25DA6C
:1060200064422E002D2223E080842E4140420F0046
:106030003F420F00C0BDF0FF9F860100A086010017
:106040006079FEFF6A930000389300003A930000E5
:10605000C993000001FCFFFF3C9300004493000043
:106060004C9300005B930000080800002E002B22D8
:10607000FA54854B9C420BDDFA212000890001F087
:10608000D9FD030030337B55804B6E1C58432418D8
:10609000632C0BDD2000642101F0CCFD03003033C4
:1060A000BB5564235B4258430136241820000A2163
:1060B00001F0C0FDC0B203003033BB550A235B4280
:1060C000584330340019BA195070B01CDAE0221D60
:1060D00000DA5BE7621C9B1A279A1360279B1E68F5
:1060E00080231B01002C51DA624205926142721C2E
:1060F00091420BDD30233B70023B7B70279B0225D6
:106100001B680593059A299B1A603AE0A619B51CED
:10611000122D03DD1325299A113E1660049A1A42A6
:106120000FD129003800FFF7A5FB002809D0E34371
:1061300001350593002B04D17B783B702E237B70B7
:106140001FE0059A7B19012A09D1DA1B002A03DD19
:106150001A78013B9A70F8E701353023EDE7DA1B36
:10616000002A03DD1A78013BDA70F8E730233B7030
:10617000023B7B700E33BB70059B289A013B0235B6
:106180001360299B1B68002B26DC5BE0A619B51C5D
:10619000122D40DD049A13251A4207D12900380038
:1061A000FFF768FB002801D0013401356A1E3B006F
:1061B000944215DA5A781A700133DA1B9442F9DAEC
:1061C0002E223B195A70279B1B68E4180593299BC4
:1061D000113C1C60002C35D03E237B55013531E04D
:1061E000597819700133D91B8A42F9DC3C227B199A
:1061F000013B1A70641B289B0E3A02341C607A55CE
:10620000279A6B1C1268002A1BD0299902350A6054
:106210003E22FA5416E0049A1A4207D129003800A7
:10622000FFF728FB002801D00134F51C3B005A7809
:106230001A700133DA1B9442F9DA2E233C19637089
:1062400000E01D00049B1B0510D5049B28001B07C4
:1062500018D46B1EFA5C302A01D11D00F9E73E2AE2
:10626000FBD028002E2A0DD118000BE0279B280018
:106270001B68002B06D1049A08331A4013005A42B7
:106280005341E81A21B0F0BDE703000018FCFFFFFE
:10629000F0B50C0091B0150007002822002106A8D7
:1062A0001E00FFF7B4FA0A23621E002409930E4B66
:1062B000009508930D4B0196029306A823000697BC
:1062C00000F0B6F8089B05000593013B0893A34234
:1062D00002DB069B1C7003E006A9200001F010F809
:1062E000280011B0F0BDC046FFFFFF7F55590000E8
:1062F0000FB473B506AB20CB01212A006846019389
:10630000FFF7C6FF041E14DD461C300001F0A2FAA0
:10631000009000280DD0019B2A003100FFF7B8FF44
:10632000064B22000099D86B02F0F8F8009801F0B3
:10633000F7FA200076BC08BC04B01847080000102B
:10634000A02270B5214C520000212000FFF75FFA17
:10635000C02001F0FDFA1E4DC02200212860FFF789
:1063600056FA2B681B4A1900C031136018332832C3
:106370008B42FAD122001849002001F069F88023ED
:1063800080225B01D2000021200000F0FFFE134DAF
:10639000134C29002200012001F05AF880238022AA
:1063A0005B01D2000021200000F0F0FE0D4C29001E
:1063B0002200022001F04CF8802380225B01D200F1
:1063C0000021200000F0E2FE70BDC0460800001071
:1063D000040000102C0000106C9300006E9300006D
:1063E0003000001058000010F7B50B0006000F0039
:1063F0000D000192300001991C0001F01EFC019B70
:106400004343F61A094B9B5D06002370631C00286A
:10641000F0D16070AC4206D923782A78013C6270D2
:106420002B700135F6E73800FEBDC04670930000C2
:10643000F0B5CFB00A920B9300220400549B559FF5
:10644000069218785A1C0792002801D100F09BFE92
:10645000252807D1802104230025079A24388900A4
:106460009C4624E0069B0B9A5D1CDB179A4208DCD5
:1064700001D000F075FE0A9B069A934201D800F005
:106480006FFEA368013BA360002B05DB23685A1C49
:106490002260187000F064FE210000F031FF00F06F
:1064A0005FFE2B2E08D92D2E0CD105431A0016782D
:1064B000531C2B2EF5D109E0202E09D0232E0AD112
:1064C000082206E0302E06D10D43EFE7022200E05D
:1064D00062461543EAE72A2E0BD139683B1D002995
:1064E00002DA012049424540901C079056781F006F
:1064F00008E000213200303AD0B20793092801D8D1
:1065000000F032FEC8430023C017014022910E93D1
:106510002E2E1ED1079B1E782A2E07D13B680437EA
:106520000E93079B5E78023307930AE00A20079BCD
:1065300001333200303AD1B20793092901D800F073
:106540001AFE0E9B002B02DB10231D4301E00023EB
:106550000E936C2E0FD1079B1E786C2E06D15E78A1
:1065600060231D43079B0233079304E0079B01331D
:10657000079320231D434C2E01D0712E05D1079B7C
:106580001E7860231D43079B1DE0682E10D1079BDA
:106590001E78682E06D180235B001D43079B5E7822
:1065A000023311E0079B0133079380231D430CE066
:1065B0006A2E02D140231D4303E07A2E01D0742EAF
:1065C00003D1079B1E7801330793672E1EDC652ECF
:1065D00000DB9BE2472E00D198E209DC412E00D17E
:1065E0008EE2452E00D191E2002E00D1B5E027E0E9
:1065F000612E00D184E203DC582E00D187E11FE038
:10660000632E19D0642E00D129E219E0702E00D13A
:10661000CBE108DC6E2E00D1A5E000DDCFE1692ED4
:1066200000D11CE20CE0752E00D1EEE1782E00D1F5
:1066300094E1732E04D1B5E03B1D10933E6800E059
:106640001097229B013B0E9301232B40119337D1CE
:106650003027AB0500D4103F002200230892099395
:10666000089A069B08999B18229A023A521A0E928F
:1066700025D408980999069B2693DB172793269A19
:10668000279B12184B410B99994203DC10D10A99B0
:1066900091420DD9A368013BA360002B04DB236862
:1066A0005A1C22601F7003E02100380000F028FE11
:1066B000089A099B0120002112184B41CEE706934E
:1066C000069B0B9A5D1CDB179A4204DC11D10A9BD6
:1066D000069A93420DD9A368013BA360002B04DB0B
:1066E00023685A1C22601E7003E02100300000F075
:1066F00007FE119B0695002B01D100F02FFD00260F
:106700000027F3430E9AD34221D4EB1728952993FF
:10671000289A299B92197B410B99994203DC11D14C
:106720000A9991420ED9A368013BA360002B05DBB7
:1067300023685A1C226020221A7003E021002020C6
:1067400000F0DEFD01220023B6185F41D9E7D343F4
:10675000DB1713405B1900F000FD079B1097013B0E
:10676000079300F0FBFC3B1D10933B686A0605D5C0
:10677000069A1A60D2175A6000F0F0FCAA060DD4EF
:10678000EA0504D56A46127E1A7000F0E7FC2A0674
:1067900004D56A46128B1A8000F0E0FC069A1A6053
:1067A00000F0DCFC3B1D10933B681493002B01D1DF
:1067B000B74B1493149800F057FD1190EB0603D5D6
:1067C0000E9A904200DD1192229B119A9B1A089317
:1067D00001232B400E9334D13027AB0500D4103F5A
:1067E00000250026089B013B5A1B21D4069B0B99D0
:1067F0002A93DB172B932A9A2B9B521973419942A8
:1068000003DC10D10A9991420DD9A368013BA36022
:10681000002B04DB23685A1C22601F7003E0210058
:10682000380000F06DFD01220023AD185E41D9E76C
:10683000089AD043C0171040069A1B1A12180692E5
:10684000089300260027119BB34224DD069B0B9979
:106850002C93DB172D932C9A2D9B92197B419942F7
:1068600003DC13D10A99914210D9A368149A013B11
:10687000A3609219002B05DB2368591C2160127854
:106880001A7003E01078210000F03AFD0122002385
:10689000B6185F41D7E7DB43119EDB171E40069B0E
:1068A0009B1906930E9B002B01D100F057FC00268C
:1068B0000027F343089AD34222D4069B0B992E93C8
:1068C000DB172F932E9A2F9B92197B41994203DC61
:1068D00011D10A9991420ED9A368013BA360002B04
:1068E00005DB23685A1C226020221A7003E0210075
:1068F000202000F005FD01220023B6185F41D8E7F3
:10690000D043069BC01710401B1800F026FC402304
:106910002B400AD0072307379F433B0008331093CF
:106920003A687B680492059304E03A1D10923A6835
:106930000593049280232B4004D06B461B8A04935A
:10694000002304E0EA0503D56A46127C049205930D
:10695000504F2B0700D4504F504BCBE040232B40DF
:106960000AD0072307379F433B00083310933A6848
:106970007B680492059304E03A1D10923A680593EF
:10698000049280232B4004D06B461B8A049300237F
:1069900004E0EA0503D56A46127C04920593404F51
:1069A0002B0700D43C4F3F4BA4E03B1D10933B68AA
:1069B0003B4F0493002305933A4B9C46D3E040237E
:1069C0002B400AD0072307379F433B00083310931F
:1069D0003A687B680492059304E03A1D10923A6885
:1069E0000593049280232B4004D06B461B8A0493AA
:1069F000002304E0EA0503D56A46127C049205935D
:106A0000294F2B0700D574E072E040232B400AD0B9
:106A1000072307379F433B00083310933A687B688E
:106A20000492059304E03A1D10923A68059304928B
:106A300080232B4004D06B461B8A0493002304E080
:106A4000EA0503D56A46127C049205931023124A84
:106A50002B4000D185E0154B1D40002381E06B06E3
:106A60000AD5072307379F433B00083310933A6842
:106A70007B680C920D9305E03B1D10933B680C93D3
:106A8000DB170D932B0613D56B4630229B5E16E069
:106A90008193000088930000C99300009093000048
:106AA0008B930000A19300008E930000FFFDFFFF79
:106AB000EB0507D56B4630229B181B785BB20C9315
:106AC000DB170D930D9B002B08DA0C980D99002312
:106AD00042428B41C44F049205930AE00C9A0D9BED
:106AE000C24F04920593AB0703D4C14F6B0700D488
:106AF000C04F00239C46EB0635D5BF490D4032E020
:106B000010231D4202D11D43033B0E938022D2006D
:106B10002A43EB0601D406230E93202307210737CF
:106B20002B408F43002B0DD0386879683B00083329
:106B30001093150000230022449045910492059380
:106B400000230BE03900083110911500386879688E
:106B50000022449045910021049105929C461F001B
:106B600001E09C4617000A980B99069B41973093C9
:106B7000DB173193309A319B801A9941012252429E
:106B80000890099142924392552000220E9B409317
:106B900046A950540132202AFAD18222D20015424D
:106BA00001D101224092672E16DC652E00DBC6E083
:106BB000472E00D1C3E006DC412E00D1BFE0452EB8
:106BC00000D0CCE0BBE0612E00D1B8E0642E12D042
:106BD000582E00D0C3E011E0702E0FD006DC692ED5
:106BE00009D0002207216F2E21D0B8E0752E02D0E7
:106BF000782E03D0B3E0002311932EE000220F2162
:106C00000498059B0E92184300D1AAE063460498AD
:106C100008401E5C059B46A81F07049B16541E09CE
:106C2000059B37431809049705900132E8E7049B58
:106C300005980E92034300D193E0049B46A80B40B5
:106C400030331354059B01325E07049BD808059B23
:106C50000643DB0804960593E9E7119B059A0E931A
:106C6000049B134300D17CE0049E059F059B049A7E
:106C7000DB0752081A43059B1E925B081F93049A78
:106C8000059B92089B071A43059B20929B08219322
:106C9000209821991E9A1F9B12184B411907100921
:106CA00008431909169017911698179912184B4115
:106CB0001906100A0843190A189019911898199979
:106CC00012184B411904100C0843190C1A901B910F
:106CD0001A981B9912184B4100212493259124984E
:106CE000259912184B415907DB081393D00800234C
:106CF000062208431290B6185F41129813990A228F
:106D0000002301F0B5FB361A8F41129813993B0707
:106D100032091A433B091C921D931C9A1D9B801833
:106D200059410A224243049B119E30339B1A46AAC2
:106D3000B354330001331193049005918DE743ABB5
:106D4000039342AB029340AB019341AB00933000FD
:106D50002B0046AA44A9569EB0470E9001E000239E
:106D60000E938023DB002B4023930DD00023409310
:106D7000429B002B01DD013B4093439B002B09DD2F
:106D8000409A013BD31804E0409B0E9A9B1A00D511
:106D9000239B40930E9B409A41989E1800F064FA02
:106DA000229B00279E1B331A119301232B40229311
:106DB000124B1D4214D10026002707E0099BBB425D
:106DC00021DC1DD001220023B6185F41119B013B3D
:106DD0009A1BF3D5119AD743FF171740DB1B11936A
:106DE0000022002332E0C0466A930000389300007E
:106DF0003A930000C9930000FFFDFFFF010200006D
:106E0000089BB342DED9A368013BA360002B05DBDE
:106E100023685A1C226020221A70D3E72100202008
:106E200000F06EFACEE7FB1732973393149815995A
:106E3000329A339B12184B410999994215DC11D0B3
:106E4000149A159B0120002112184B41149215939E
:106E5000149BFE18419B5A1C41921B789C46002BA8
:106E6000E1D112E008999142EAD9A368013BA360FD
:106E7000002B05DB23685A1C226062461A70DFE78C
:106E80002100604600F03CFADAE7229B002B38D163
:106E90003027AB0500D4103F002200231492159335
:106EA000119B149A013B9A1A24D414981599F3173C
:106EB00034963593349A359B12184B41099999426F
:106EC00003DC10D1089991420DD9A368013BA3605E
:106ED000002B04DB23685A1C22601F7003E0210092
:106EE000380000F00DFA149A159B012000211218A9
:106EF0004B41D3E7119AD043C01710401B1A3618E4
:106F00001193239B002B02D1002200239AE000273B
:106F10000E9BBB4200DCE8E046ABF85C3C2804D0AA
:106F20003E2863D10022002343E000220023149274
:106F30001593149BF518429B013B4293002B6BDB8E
:106F400014981599F31736963793369A379B12187B
:106F50004B410999994203DC11D1089991420ED90C
:106F6000A368013BA360002B05DB23685A1C226049
:106F700030221A7003E02100302000F0C1F9149A89
:106F8000159B0120002112184B41D0E7F3173896CA
:106F9000399314981599389A399B12184B410999CD
:106FA000994213DC0FD0149A159B0120002112186E
:106FB0004B4114921593149BF518439B013B43934B
:106FC000002BE3DA28E008999142ECD9A368013B51
:106FD000A360002B05DB23685A1C226030221A7044
:106FE000E1E72100302000F08BF9DCE7099A751CFD
:106FF000F3179A4203DC0FD1089BB3420CD9A36864
:10700000013BA360002B04DB23685A1C226018702C
:1070100002E0210000F074F901372E0078E7F31741
:107020003A963B93149815993A9A3B9B12184B4108
:107030000999994213DC0FD0149A159B0120002165
:1070400012184B4114921593149BF518409B013B69
:107050004093002BE3DA12E008999142ECD9A3683F
:10706000013BA360002B05DB23685A1C2260302201
:107070001A70E1E72100302000F042F9DCE7002639
:1070800000270E9A3300921B002A29DDEA173D9251
:107090003C953C983D9980197941099A8A4203DCD4
:1070A00019D1089A824216D9A2680E99013AA260B3
:1070B000CB1A002A08DB2268511C21604EA9CB188C
:1070C000213B1B78137006E04EAAD318213B187899
:1070D000210000F015F901220023B6185F41D0E726
:1070E0000E9BDE43F6171E407619229B002B32D0F2
:1070F000002200230E920F930E9B119ADB43D34282
:1071000025D40E980F99F3173E963F933E9A3F9BD6
:1071100012184B410999994203DC11D10899914207
:107120000ED9A368013BA360002B05DB23685A1C22
:10713000226020221A7003E02100202000F0E0F8F5
:107140000E9A0F9B0120002112184B41D2E7D04329
:10715000C01710403618069B9B190693109F069D7A
:107160000695079BFFF76DF90A2041431E785118D9
:107170000133FFF7BFF90E991E78414352180E9262
:107180000133FFF7D6F906984FB0F0BDF0B5C668E9
:107190000124B5071AD08025AD00AA420BD0802566
:1071A000ED00AA4204D080256D00AA420ED102E073
:1071B000416A230004E0064F5D1E0124BD4205D84C
:1071C0000024324301610160C361C2602000F0BD50
:1071D000FEFFFF0037B50023002205000C0001F080
:1071E000BBF8002806D080231B06E4180023019377
:1071F000013B01E00123019000932A0023002800B5
:10720000210000F0FDF903B030BD020010B5137885
:10721000002B01D00132FAE7CC5CD4540133002CAE
:10722000FAD110BD03000B4330B59B0711D1030009
:107230000B4D0A680B4C141994432C4202D104C321
:107240000431F6E7D1B219700133002907D01212C8
:10725000F8E70023CA5CC2540133002AFAD130BDDA
:1072600080808080FFFEFEFE032210B5431C10428A
:1072700006D00130411E09780029F8D1C01A18E063
:107280000C4C02680C4951189143214201D1043041
:10729000F7E7D4B2411C002C0AD0FF242402811C41
:1072A000224205D0FF242404C11C224200D0011D2B
:1072B000C81A10BD80808080FFFEFEFE202310B51E
:1072C0000400C2689A43436AE2605B6882699A423A
:1072D0000DD000F0F7F8E268074B1340102213437B
:1072E000626AE3605368A361236993602360E26884
:1072F000024B1340E36010BDEFCFFFFFBFBFFFFFA6
:10730000F8B5CA684F4B060013400C00CB609306DB
:1073100002D50800FFF7D2FFA168E3684A1C0EDA25
:107320009A050CD402225242521AA26090225202B2
:107330001343E36023685A1C22601E707FE0424AB8
:107340001D001A40022A05D00022A2608032134399
:10735000E36054E03D490B40802109028B420AD191
:107360000021200000F068FBE3689B0602D52000A6
:10737000FFF7A4FFE5689023F0225B022B43120184
:10738000E36015421ED1606901F0B0F800280BD00F
:107390006B0509D5636A236123600123E3619223AE
:1073A0005B022B43E3600DE080277F01380000F093
:1073B000CFFA9423E2685B022B431A4320612060DA
:1073C000E761E26090210901226825690B4219D02A
:1073D000636A99688A4200D91100491B09D1636A1E
:1073E0006A1C9A602260E269511EA160DA602E7008
:1073F00025E02200280000F0F7F90028EFD0012056
:1074000040421DE0511C21601670626A216890683C
:10741000884200D90100E769491BD7605B0504D4A5
:10742000F0B20A2801D0B9420ADB00239560280097
:107430002560A360220000F0D7F90028DFD1F0B268
:10744000F8BDC046FFFFF7FF8A10000010A0000043
:10745000F7B50D0001901000140000F09BFA2B7896
:10746000722B09D0772B04D0612B25D10823144A25
:1074700004E00423022201E0002301220220691C0F
:10748000032784460426012508782B2805D0622886
:1074900007D132432B430131F6E760463A430343B9
:1074A000F9E7E260019A62611B0706D5022200211A
:1074B000200000F0C1FA00E000242000FEBDC0461C
:1074C0000280000070B50400436A056901689A688B
:1074D000C068134B0340E36082230340022B02D0B9
:1074E000012040421AE080235B02184016D09142EE
:1074F00000D211008D4209D10020636AE2689D60CC
:10750000084B25601340A060E36007E0491B2200A0
:10751000280000F069F90028EED0E1E770BDC04610
:10752000FFFFF7FFFFFFFEFFF7B5002300920022E9
:1075300004000D0000F0F8FE002805D00023009A9A
:1075400000201360002126E06B00144A5B0D200030
:1075500029009F18002B17D122002B031B0B80261C
:1075600036031E4001965B00D60F3343019E1B037A
:107570001B0B5200002E05D02C0D24051C432100AE
:10758000100001E0013FEAE7009B054A1F60054B40
:107590000B401A43110003B0F0BDC04602FCFFFFD0
:1075A0000000E03FFFFF0F8070B5002316000022AF
:1075B00004000D0000F0B8FE002802D000200021D9
:1075C00015E06A00520D0A4B921920009A4206DD1E
:1075D0002222084B1A60084B1868596807E0002AF5
:1075E000ECDD064B520552082B401343190070BDC9
:1075F000FE07000048010010D8930000FFFF0F8035
:10760000F7B514001D000090019100225A4B200094
:10761000290000F0FDFE00280CD02122574B1A60F3
:10762000802212069446564B1D685B6800936344A3
:107630001C009CE0534A544B2000290000F080FDC0
:10764000504A524B00F0F2FB00F012FE040000F032
:1076500060FE06000F00E30702D5089B5B4208931B
:10766000099B002B07D0300039000022484B00F066
:1076700083FC06000F000022464B3000390000F06A
:1076800017FB02000B000098019900F075FC424ABC
:1076900004000D00414B3000390000F009FB0200EE
:1076A0000B002000290000F04BFD05000C00280015
:1076B000210000F05DF93A4A3A4B00F0A9FE00289B
:1076C0004FD02A0023002800210000F0F1FA060024
:1076D0000F00354A354B00F0EBFA354A354B00F0D8
:1076E0004BFC32003B0000F0E3FA334A334B00F02E
:1076F00027FD32003B0000F0DBFA314A314B00F04D
:107700003BFC32003B0000F0D3FA2F4A2F4B00F035
:1077100017FD32003B0000F0CBFA2D4A2D4B00F054
:107720002BFC32003B0000F0C3FA2B4A2B4B00F03D
:1077300007FD32003B0000F0BBFA294A294B00F05C
:107740001BFC32003B0000F0B3FA2A00230000F0DB
:10775000AFFA02000B002800210000F0F1FC050048
:107760000C00089B002B02DA80231B06E41828007B
:10777000210003B0F0BDC04665CDCD4148010010E9
:10778000D0930000182D4454FB21F93FFB21094000
:107790000000E03F002209409EE59E4BEFAEE23E36
:1077A000BBBDD7D9DF7CDB3D95DF9369FF80E83C2B
:1077B0009C4908DC20E46A3D30D46A683C12E63D0E
:1077C000ABC05D4B45E65A3E63F024A5E31DC73EC2
:1077D0001A3E011AA0012A3FB01011111111813F68
:1077E000555555555555C53FF7B5D66801900D000F
:1077F00014005769F30205D5102338001E4300F02A
:107800006FFEA061114B1E4209D0A169380000F043
:1078100079FE8023002811DB0D4B1E40E6602A0014
:107820000199380000F07AFE43005B08ED1AA36965
:107830005D190023A561984205D08033E2681343A7
:10784000E36001235B421800FEBDC0461000020049
:10785000EFFFFDFFF7B5314EC51C3468AD0801964A
:10786000002813D080222900EB1C002752050A3182
:107870009C4604E02368934213D02700A468002CA0
:10788000F8D10C3000F088F9431C0FD1002043E000
:107890003E68964217D17E689B1903336360BB68CC
:1078A000A360A7686368002FF2D10CE080239B05DA
:1078B000036045608460002F02D1019B186000E0E6
:1078C000B8600C3028E09D4205DC634503DC802372
:1078D0009B0523601EE08B4210D98022200080216E
:1078E0009205656022600C30AA005D1B8218490574
:1078F000033DA2601160556097600DE0002FBCD180
:107900009B00C01A00F048F9431CBFD080239B05A0
:10791000236065602000D4E7FEBDC0464C01001026
:1079200010B5002812D080235B0519000C380360C5
:107930008268002A0AD013688B4207D154684368D2
:107940001B190333436093688360F1E710BDFFFFA9
:1079500010B5FFF77FFF041E05D11722034900F081
:10796000DDFD00F0B1FD200010BDC046B293000067
:1079700070B50C000500002300222800210000F053
:10798000EBFC80231B06E318002800D1230028000D
:10799000190070BDF0B5436AC5688BB0040001934F
:1079A000AB0728D02B0718D44769066900F02AF8DE
:1079B000380000F08FFD2B0502D53000FFF7B0FF37
:1079C0000F4BAD0DAD059D4207D12022216A02A8C3
:1079D00000F09EFD02A800F0D5F818220021606A90
:1079E000FDF715FF282200212000FDF710FF019B65
:1079F0000020636201E0012040420BB0F0BDC046B0
:107A0000000080AD70B5002803D000F0E5F8050057
:107A10000EE0A0260400050076000648201800F0BD
:107A2000DBF8002801D001256D422834B442F4D19E
:107A3000280070BD08000010F7B5C3681600009359
:107A4000009A3B4B04000D001A426CD04769380085
:107A500000F04CFD0190002865D1012E04D0022ECB
:107A600007D0002E5FD124E0200000F065F82D182B
:107A70001FE0380000F034FD002805DA8023E268BA
:107A80001343E36001234FE0626A236891689942DF
:107A900000D90B00A1695B1821695B1AE1688906AE
:107AA00003D55268934200DA1300834200DA0300E0
:107AB000ED18002D37DB009B616A9B0404D5236819
:107AC0008A689A4200D28B60A3699D420DDB886868
:107AD0002268824200D202002069D618361AB542C6
:107AE00003DCCF68DE19B54207DB2023009A13437D
:107AF0000022A26062604D6011E0ED1A009B9B07BE
:107B000001D5EF1BA760009BDB0702D5121AAA1A4A
:107B100062602023009A45199A4313002560054AA4
:107B20001340E36001E0022301930198FEBDC046CB
:107B300003001000BFCFF7FFC3689A0705D12122C9
:107B400001200F4B40421A6018E0202219030BD588
:107B5000134202D0436A586804E0036882690069EE
:107B60009B18181A013809E0134202D0436A58687A
:107B700004E00368826900699B18181A7047C046C0
:107B80004801001010B50400FFF76EFB0100200053
:107B900000F0B2FC10BDFFFF70B50C4D2B68002B40
:107BA00001D10B4B2B600323C41C2E689C4334195A
:107BB000200000F035F8002802D12C60300004E0ED
:107BC0000C220120034B40421A6070BD500100108E
:107BD0003409001048010010C36870B50400032088
:107BE00018401AD09B0605D5636A20005E68FFF72F
:107BF00065FB04E02368A2699E182369F61AE2680F
:107C0000064B20001340E360FFF75CFC05000022F8
:107C100031002000FFF710FF280070BDFFCFFFFFED
:107C2000034B0200181E02D000209A4240417047C8
:107C30000000000003000B4321D4002931D00122B1
:107C4000D207030901E0090112099942FBD943084F
:107C500001E0490052089942FBD900E04908401A66
:107C600007D35241FAD301461046704749084018DD
:107C7000F7D29218FAD34018014610467047CB0F3E
:107C800000D04942021000D54042534008B5FFF7EA
:107C9000D4FF0CBC521000D34042002A00D5494208
:107CA0001847F446002000F001F860477047FFFFD6
:107CB000F0B516001A004C0089B00700640D4A4068
:107CC000002C00D17EE0504DAC427BD05800400DDE
:107CD00078D0A84276D020188024D20FD207019203
:107CE0008025720DDB02134324061C430023090385
:107CF000090B6D030D43220006901900280000F0C7
:107D0000B7FB0023F602029003913200280019000D
:107D100000F0AEFB002305003A0007912000190097
:107D200000F0A6FB0023049005913A0030001900F2
:107D300000F09EFB0B00002184461C00049A059B6A
:107D400028000D0024184D41A4185D410F000B00C0
:107D5000029803992A00079E92197B4112184B4101
:107D6000614688080443069928480918284898421B
:107D70000CD316001F00B6185F4126483B0084460E
:107D8000E00F304302000699640061440027E60FCB
:107D900092197B41802015000006844201D1012008
:107DA00085431D48814205D8019818430B05C11829
:107DB000280027E0019B002902DB184B019A13439E
:107DC00000201EE01648D20FD2074900814205D894
:107DD0005C00844205D80020110013E01148814264
:107DE00003D110485B00834201D9002005E0490D12
:107DF0000020002901D05B0D01D10B4902E0074BA7
:107E00001343190009B0F0BDFF07000001FCFFFF9C
:107E1000FFFF0F0000FCFFFFFD0700000000F07FE8
:107E2000FFFFDFFF0000E0FF0000F87FF7B54F0025
:107E30007D0D64D0494CA446A54260D05F007C0D06
:107E40005DD064455BD02F1B1C004C400194C902DF
:107E5000440D214380242406A446C40260460843FE
:107E600061460500DB02500D03430B43D202AB42D7
:107E700002D803D1A24201D9394908E0E9078C466A
:107E8000664660080643340069080D00354950080D
:107E90007F18D90708433522590800235B00A942FF
:107EA00006D801D1A04203D80126241A8D413343BC
:107EB00024196D41561E212A02D100933200EDE7AC
:107EC000321EEBD1A94208D801D1A04205D8013316
:107ED0005A425A4100998A180092019A2249D20FB7
:107EE000D2078F4205D83F05009CBA181119180017
:107EF00032E01300002F2ADB1C4B134327E01C4DFC
:107F00004C00AC4226D85800A84223D81A000A4395
:107F10005200520D520501D1164906E04B40DB0FCD
:107F2000620DDB07520502D11900100014E0420D6A
:107F3000520503D10D4C1C432100F6E7A84204D0A2
:107F40000A4A00201A43110006E0844202D00020B1
:107F5000190001E00020074903B0F0BDFF07000051
:107F6000FD030000FE030000FD0700000000F07F9D
:107F70000000E0FF0000F87FF8B594460E001F00F7
:107F80000D001A0004006146734007D580242406C2
:107F90003B196246310000F0D3F8C8E0BE4203D37B
:107FA00060450DD8BE420BD1802212069A18634656
:107FB00061465840414035004840040055407A40F1
:107FC0005B4B5C482F0D160DBE1B3B40834200D11E
:107FD000A0E09E4200D19AE080202B0312034003D0
:107FE0001B0B120B034302431F2E51D81000F0400D
:107FF00020251B1A0800F040AE1BB2400243A51A10
:10800000AC42A4410A0064421B1BB2402C00002A6F
:1080100005D0013C611C4842414152425B1AC021DB
:1080200049030B4252D1E10F5B00D20F0B436400B6
:1080300014431A00224301D0BA1E02E011001000BE
:1080400075E0590B05D1210E1B020B432402083A9F
:10805000F7E7590C04D1210F1B010B432401043A0B
:10806000D90C04D1A10F9B000B43A400023A190DB7
:1080700004D1E10F5B000B436400013AFF0AD10A0F
:108080008F4202D11205D11850E00020F9074EE0CE
:10809000352E1BD81500203EF540651BAC42A4418F
:1080A000202064421B1B0C00801B8240F440090608
:1080B0002243002902D0FF210A4302E02C00002ABB
:1080C00004D06C1E6942694152425B1AD9020DD438
:1080D000013F7D0507D0E10FD00F5B0064000B432B
:1080E0000443520002E03905280020E012493F0510
:1080F0000B40002A09DA0134614261415B1880219A
:1081000009068A4201D101229443F9180EE0311E7A
:1081100009D00AE02B030020002B01D0074906E01C
:10812000002E02D10549300001E029002000F8BDF1
:10813000FFF7FFFFFF070000FFFFEFFF0000F87FE2
:108140009446F8B51A001D000E00040067464B4027
:1081500006D5802424062B196246FFF70DFF7DE02B
:10816000A94208D2784067464740594078406B4062
:108170000E001A0004003A4B3A48310D0B4083427E
:1081800064D0150D4D1B9D425AD08020330312033D
:1081900040031B0B120B034302431F2D10D810008A
:1081A000E84020261B183800E840751BAA4002430F
:1081B000A4189442924152429B183A00AA4014E0FB
:1081C000352D12D81000203DE8402418844280410B
:1081D00040421B182020401B82403800E8403F06E8
:1081E0000243002F01D0FF200243980218D501342A
:1081F000604260411B18002A01D1023294435808A2
:108200000A05121818485500854205D86408DB078E
:1082100023431100180021E04B1C002019051DE02C
:108220000139002A09DA0134604260411B188020BC
:108230000006824201D1012294430A05D1180CE0C4
:10824000002D09D1F60FF107280007E033030020C5
:10825000002B01D0054901E031002000F8BDC046E7
:10826000FFF7FFFFFF070000FFFFDFFF0000F87FC1
:10827000CB02400D184380231B0618430A4B0A0DFE
:108280009B1AD840FF2B0ED9E022D2004042134265
:1082900009D000204B0006D5044A4B00934202D877
:1082A000034BC80FC01870471E0400000000E0FF19
:1082B000FFFFFF7F10B5002802D10300020025E078
:1082C000030C01D1000402E080235B04C918030EF3
:1082D00001D1000202E080231B04C918030F01D161
:1082E000000102E08023DB03C918830F01D1800065
:1082F00002E080239B03C918002801DB400002E054
:1083000080235B03C918C4126318420510001900CA
:1083100010BDC10F10B5C90700D040428023DB0556
:10832000C918FFF7C7FF10BDF0B50F0049000500E1
:108330001E001400084304D15B001A430130002AD8
:1083400007D00020B74204D1A54202D1014B8B4295
:108350004041F0BD0000E0FFF0B51C000E001D0024
:108360000C43134F0CD45B000024BB421ED80134D5
:10837000A9421BD3002490428041A94216D114E0A7
:1083800049000024B94211D85B00BB420ED801431A
:10839000A14202D11343A34208D00124AE4205D822
:1083A0000024AE4202D18242804144422000F0BD0E
:1083B0000000E0FFF7B51C000E001D0001920C4309
:1083C000124F0DD45B000024BB421DD80134A942DA
:1083D0001AD30024A94217D113008342644113E049
:1083E00049000024B9420FD85B00BB420CD80134CD
:1083F000AE4209D801D1904206D200240143A142E5
:1084000002D113435C425C412000FEBD0000E0FF4E
:10841000F7B5040018000843009014480E00844685
:1084200000981D000192490000280BDB00206145E7
:108430001BD801309E4218D800209E4215D194428C
:10844000404112E0002061450FD85B0063450CD825
:108450000130AE4209D301D1944206D90020214314
:10846000814202D1134358425841FEBD0000E0FF53
:1084700010B543435143C918040C130C5C4309194C
:1084800092B2040C544380B2434350432204240C60
:10849000801861411A041B0C8018594110BD844694
:1084A000043A09D3830707D109060B0A19430B0CB9
:1084B0001943043A02C0FCD2043203D001700130E7
:1084C000013AFBD16046704718200149ABBE7047A6
:1084D0002600020003B469460220ABBE02B070471A
:1084E00003B469460C20ABBE02B0704703B46946C2
:1084F0000920ABBE02B0704703B469460E20ABBE84
:1085000002B0704703B469460A20ABBE02B07047A0
:108510000FB469460D20ABBE04B070470FB4694676
:108520000520ABBE04B070475278526F7574696E07
:108530006520697320676F210A0D0000527820467C
:1085400049464F20656D707479202D203120000040
:108550005278204649464F206861732064617461F7
:10856000202D2031000000007C0000002D000000C4
:108570000A0D000020202020202020202020202064
:1085800020202020202020202020202020202020EB
:1085900020200000446174613A2000005B3078259F
:1085A0003032785D200000002E0A0D00436C6561BA
:1085B00072656420646174612072656365697665C3
:1085C0006420696E746572727570740A0D00000023
:1085D0005478526F7574696E6520697320676F21D6
:1085E0000A0D00004372617020746F205478204699
:1085F00049464F210A0D0000437261702073756374
:108600006365737366756C6C7920696E205478208D
:108610004649464F210A0D00536B6970706564200E
:108620007472616E736D697373696F6E0A0D000009
:108630004661696C656420746F2073656E64210AFD
:108640000D000000466C757368656420627566668F
:108650006572210A0D0000004D41545F525420699B
:108660006E74657272757074206163746976650AE0
:108670000D0000004D41545F525420696E746572C4
:108680007275707420636C65617265640A0D000018
:1086900054585F445320696E74657272757074200B
:1086A0006163746976650A0D0000000054585F44E8
:1086B0005320696E7465727275707420636C6561A5
:1086C0007265640A0D00000048656C6C6F2C2074A4
:1086D000686973206973206170702E000D0A4179FA
:1086E00079206C6D616F210A0D0000004C4344201D
:1086F00061637469766974790A0D00004C43442003
:10870000616374697669747920646F6E650A0D001F
:1087100055415254206C6F6F706261636B206973B6
:1087200020676F0A0D0000004144432076616C759C
:1087300065733A2000000000300000003B2000007C
:108740002028303B202E2E2E3B2037290A0D0000FA
:10875000203531313020696E697420646F6E650A8E
:108760000D0000002035313130206672616D656288
:10877000756666657220636C6561720A0D000000A3
:108780006C7576203C3300004B6974746965730026
:1087900062000000637574652100000020353131EE
:1087A00030206672616D65627566666572207365FC
:1087B0007475700A0D00000020353131302072656B
:1087C000647261776E0A0D000000000057686174E2
:1087D00020746865206675636B2064696420796F16
:1087E00075206A757374206675636B696E67207394
:1087F00061792061626F7574206D652C20796F75C9
:10880000206C6974746C652062697463683F2049E8
:10881000E280996C6C206861766520796F75206BB9
:108820006E6F77204920677261647561746564209A
:10883000746F70206F66206D7920636C6173732094
:10884000696E20746865204E617679205365616C8D
:10885000732C20616E642049E28099766520626500
:10886000656E20696E766F6C76656420696E206E29
:10887000756D65726F7573207365637265742072B0
:1088800061696473206F6E20416C2D517561656460
:10889000612C20616E6420492068617665206F76C6
:1088A00065722033303020636F6E6669726D656467
:1088B000206B696C6C732E204920616D207472618D
:1088C000696E656420696E20676F72696C6C6120E7
:1088D0007761726661726520616E642049E28099F9
:1088E0006D2074686520746F7020736E6970657296
:1088F00020696E2074686520656E74697265205504
:10890000532061726D656420666F726365732E20FB
:10891000596F7520617265206E6F7468696E67208B
:10892000746F206D6520627574206A7573742061A0
:108930006E6F74686572207461726765742E204969
:108940002077696C6C207769706520796F75207469
:108950006865206675636B206F757420776974682D
:1089600020707265636973696F6E20746865206C2E
:10897000696B6573206F662077686963682068613A
:1089800073206E65766572206265656E207365651D
:108990006E206265666F7265206F6E207468697301
:1089A0002045617274682C206D61726B206D792096
:1089B0006675636B696E6720776F7264732E2059DA
:1089C0006F75207468696E6B20796F752063616EB6
:1089D00020676574206177617920776974682073F6
:1089E0006179696E672074686174207368697420A6
:1089F000746F206D65206F766572207468652049FC
:108A00006E7465726E65743F205468696E6B206188
:108A10006761696E2C206675636B65722E204173E9
:108A200020776520737065616B204920616D20633C
:108A30006F6E74616374696E67206D79207365630E
:108A4000726574206E6574776F726B206F66207329
:108A500070696573206163726F7373207468652039
:108A600055534120616E6420796F75722049502002
:108A70006973206265696E67207472616365642042
:108A80007269676874206E6F7720736F20796F75D5
:108A90002062657474657220707265706172652001
:108AA000666F72207468652073746F726D2C206D10
:108AB0006167676F742E205468652073746F726DE0
:108AC0002074686174207769706573206F757420F5
:108AD000746865207061746865746963206C69747A
:108AE000746C65207468696E6720796F75206361A6
:108AF0006C6C20796F7572206C6966652E20596FD9
:108B000075E280997265206675636B696E67206493
:108B10006561642C206B69642E20492063616E209E
:108B2000626520616E7977686572652C20616E7967
:108B300074696D652C20616E6420492063616E202C
:108B40006B696C6C20796F7520696E206F76657229
:108B500020736576656E2068756E64726564207733
:108B60006179732C20616E642074686174E280996D
:108B700073206A7573742077697468206D79206238
:108B80006172652068616E64732E204E6F74206F71
:108B90006E6C7920616D204920657874656E73690B
:108BA00076656C7920747261696E656420696E20E7
:108BB000756E61726D656420636F6D6261742C20E7
:108BC000627574204920686176652061636365730E
:108BD0007320746F2074686520656E7469726520F7
:108BE000617273656E616C206F66207468652055D4
:108BF0006E6974656420537461746573204D61728D
:108C0000696E6520436F72707320616E6420492025
:108C100077696C6C2075736520697420746F2069A6
:108C200074732066756C6C20657874656E7420743E
:108C30006F207769706520796F7572206D69736533
:108C40007261626C6520617373206F666620746860
:108C5000652066616365206F662074686520636FB8
:108C60006E74696E656E742C20796F75206C6974F2
:108C7000746C6520736869742E204966206F6E6C71
:108C80007920796F7520636F756C642068617665F3
:108C9000206B6E6F776E207768617420756E686FD9
:108CA0006C79207265747269627574696F6E20796F
:108CB0006F7572206C6974746C6520E2809C636CC3
:108CC00065766572E2809D20636F6D6D656E7420C0
:108CD0007761732061626F757420746F20627269AE
:108CE0006E6720646F776E2075706F6E20796F7578
:108CF0002C206D6179626520796F7520776F756CB6
:108D00006420686176652068656C6420796F75728F
:108D1000206675636B696E6720746F6E6775652E6C
:108D20002042757420796F7520636F756C646EE2F4
:108D30008099742C20796F75206469646EE2809943
:108D4000742C20616E64206E6F7720796F75E280DD
:108D500099726520706179696E672074686520700A
:108D6000726963652C20796F7520676F6464616D2B
:108D70006E206964696F742E20492077696C6C20BD
:108D800073686974206675727920616C6C206F76E7
:108D9000657220796F7520616E6420796F75207718
:108DA000696C6C2064726F776E20696E2069742E16
:108DB00020596F75E280997265206675636B696EE4
:108DC0006720646561642C206B6964646F2E00FF0A
:108DD000C24A0000F84A0000264A0000404A00004B
:108DE0005A4A0000744A0000F84A0000F84A00009D
:108DF000F84A00008E4A0000A84A0000F84A000025
:108E0000DC4A0000C64B0000FC4B00002A4B00006F
:108E1000444B00005E4B0000784B0000FC4B000010
:108E2000FC4B0000FC4B0000924B0000AC4B0000E0
:108E3000FC4B0000E04B000000000000003E5B4FD8
:108E40005B3E3E6B4F6B3E1C3E7C3E1C183C7E3CAA
:108E5000181C577D571C1C5E7F5E1C00183C1800B8
:108E6000FFE7C3E7FF0018241800FFE7DBE7FF3048
:108E7000483A060E2629792926407F050507407FB6
:108E800005253F5A3CE73C5A7F3E1C1C08081C1C29
:108E90003E7F14227F22145F5F005F5F06097F011F
:108EA0007F006689956A606060606094A2FFA2940A
:108EB00008047E040810207E201008082A1C0808D8
:108EC0001C2A08081E101010100C1E0C1E0C303826
:108ED0003E3830060E3E0E06000000000000005F27
:108EE00000000007000700147F147F14242A7F2A43
:108EF0001223130864623649562050000807030005
:108F0000001C2241000041221C002A1C7F1C2A0850
:108F1000083E0808008070300008080808080000B3
:108F200060600020100804023E5149453E00427F27
:108F3000400072494949462141494D331814127F76
:108F40001027454545393C4A494931412111090716
:108F50003649494936464949291E00001400000097
:108F60004034000000081422411414141414004169
:108F700022140802015909063E415D594E7C121126
:108F8000127C7F494949363E414141227F4141415E
:108F90003E7F494949417F090909013E41415173D9
:108FA0007F0808087F00417F41002040413F017F4A
:108FB000081422417F404040407F021C027F7F0412
:108FC00008107F3E4141413E7F090909063E41515B
:108FD000215E7F09192946264949493203017F014B
:108FE000033F4040403F1F2040201F3F4038403F4C
:108FF000631408146303047804036159494D430062
:109000007F4141410204081020004141417F040298
:10901000010204404040404000030708002054542F
:1090200078407F284444383844444428384444280D
:109030007F385454541800087E090218A4A49C7860
:109040007F0804047800447D40002040403D007FBC
:109050001028440000417F40007C047804787C089C
:109060000404783844444438FC1824241818242470
:1090700018FC7C08040408485454542404043F4455
:10908000243C4040207C1C2040201C3C4030403C84
:1090900044281028444C9090907C4464544C4400E4
:1090A0000836410000007700000041360800020148
:1090B0000204023C2623263C1EA1A161123A404034
:1090C000207A3854545559215555794122545478B1
:1090D00042215554784020545579400C1E5272124A
:1090E00039555555593954545459395554545800D3
:1090F00000457C410002457D420001457C407D12D7
:1091000011127DF0282528F07C5455450020545438
:109110007C547C0A097F4932494949323A444444E3
:109120003A324A4848303A4141217A3A424020781E
:10913000009DA0A07D3D4242423D3D4040403D3C1F
:1091400024FF2424487E4943662B2FFC2F2BFF0944
:1091500029F620C0887E0903205454794100004438
:109160007D413048484A32384040227A007A0A0A23
:10917000727D0D19317D2629292F28262929292696
:1091800030484D4020380808080808080808382FDB
:1091900010C8ACBA2F102834FA00007B0000081465
:1091A0002A142222142A14085500550055AA55AA3B
:1091B00055AAFF55FF55FF000000FF00101010FFDB
:1091C00000141414FF001010FF00FF1010F010F036
:1091D000141414FC001414F700FF0000FF00FF1427
:1091E00014F404FC141417101F10101F101F141473
:1091F000141F00101010F0000000001F10101010BD
:109200001F10101010F010000000FF1010101010B0
:1092100010101010FF10000000FF140000FF00FFEE
:1092200000001F10170000FC04F41414171017148A
:1092300014F404F40000FF00F714141414141414AC
:10924000F700F7141414171410101F101F1414141F
:10925000F4141010F010F000001F101F0000001F89
:1092600014000000FC140000F010F01010FF10FFBC
:10927000141414FF141010101F00000000F010FF51
:10928000FFFFFFFFF0F0F0F0F0FFFFFF0000000035
:1092900000FFFF0F0F0F0F0F3844443844FC4A4AB9
:1092A0004A347E02020606027E027E02635549416E
:1092B000633844443C04407E201E2006027E0202A5
:1092C00099A5E7A5991C2A492A1C4C7201724C30B9
:1092D0004A4D4D303048784830BC625A463D3E4990
:1092E0004949007E0101017E2A2A2A2A2A44445F34
:1092F000444440514A444040444A51400000FF0128
:1093000003E080FF000008086B6B08361236243635
:10931000060F090F0600001818000000101000309A
:1093200040FF0101001F01011E00191D1712003C22
:109330003C3C3C00000000002B00200030782563FE
:10934000702564003058256350256400307825630B
:109350002E252E2A6C6C7870256400305825632EDB
:10936000252E2A6C6C58502564002D007200770061
:10937000303132333435363738396162636465668B
:1093800000286E756C6C2900305800307800300071
:10939000303132333435363738394142434445462B
:1093A00000303132333435363738396162636465C1
:1093B00066002A2A2A205F437379735F616C6C6FA1
:1093C00063206661696C65640A00FFFFFFFFFFFFB1
:1093D000FFFFFFFFFFFFEF7FFFFFFFFFFFFFEF7FBD
:0493E000001BB700B7
:040000030000425D5A
:00000001FF
