:10000000002000105D010000F1010000F901000076
:1000100000000000000000000000000000000000E0
:1000200000000000000000000000000001020000CD
:1000300000000000000000000902000011020000A2
:100040001902000019020000190200001902000044
:100050001902000019020000190200001902000034
:10006000190200001902000000000000000000005A
:10007000000000000000000019020000190200004A
:100080001902000019020000190200001902000004
:1000900019020000551200001902000019020000A8
:1000A00019020000190200001902000019020000E4
:1000B0000000000000000000190200000000000025
:1000C000D82A00000000001008000000D82A000014
:1000D000004000200000000008000010000A00009E
:1000E000004000200000000080B588B000AFF8603C
:1000F000B9607A60BB68FB61FB68BB6100237B6110
:100100000AE0FB691A1DFA61BA69111DB96112682A
:100110001A607B6904337B617A697B689A42F0D309
:10012000C046BD4608B080BD80B584B000AF7860E1
:1001300039607B68FB600023BB6007E0FB681A1D29
:10014000FA6000221A60BB680433BB60BA683B687F
:100150009A42F3D3C046BD4604B080BD80B586B098
:1001600000AF1F4B3B613B691B68C02212051A435D
:100170003B691A601B4B7B6114E07B691A1D7A6135
:100180001B68FB607B691A1D7A611B68BB607B6919
:100190001A1D7A611B687B607A68B968FB68180071
:1001A000FFF7A2FF7A69104B9A42E6D30FE07B6912
:1001B0001A1D7A611B68BB607B691A1D7A611B6816
:1001C0007B607A68BB6811001800FFF7ADFF7A69A1
:1001D000064B9A42EBD301F05BFB01F099FBFEE783
:1001E00080800440C0000000D8000000E80000004B
:1001F00080B500AFFEE7C04680B500AFFEE7C04661
:1002000080B500AFFEE7C04680B500AFFEE7C04650
:1002100080B500AFFEE7C04680B500AFFEE7C04640
:10022000FFFFFFFFFFFFFFFFFFFFFFFFFFFFFFFFDE
:10023000FFFFFFFFFFFFFFFFFFFFFFFFFFFFFFFFCE
:10024000FFFFFFFFFFFFFFFFFFFFFFFFFFFFFFFFBE
:10025000FFFFFFFFFFFFFFFFFFFFFFFFFFFFFFFFAE
:10026000FFFFFFFFFFFFFFFFFFFFFFFFFFFFFFFF9E
:10027000FFFFFFFFFFFFFFFFFFFFFFFFFFFFFFFF8E
:10028000FFFFFFFFFFFFFFFFFFFFFFFFFFFFFFFF7E
:10029000FFFFFFFFFFFFFFFFFFFFFFFFFFFFFFFF6E
:1002A000FFFFFFFFFFFFFFFFFFFFFFFFFFFFFFFF5E
:1002B000FFFFFFFFFFFFFFFFFFFFFFFFFFFFFFFF4E
:1002C000FFFFFFFFFFFFFFFFFFFFFFFFFFFFFFFF3E
:1002D000FFFFFFFFFFFFFFFFFFFFFFFFFFFFFFFF2E
:1002E000FFFFFFFFFFFFFFFFFFFFFFFFFFFFFFFF1E
:1002F000FFFFFFFFFFFFFFFFFFFFFFFFFFFFFFFF0E
:1003000080B582B000AF7860154B00229A60144B24
:1003100000221A61134B1B68134A934203D1104BFE
:100320002F22DA6002E00E4B0B22DA600C4B052222
:100330005A610B4B7A689A61C046094B9A697B688F
:100340009A42FAD1064B01225A60C046044B5B68C0
:1003500001221340FAD1C046BD4602B080BDC0465E
:1003600000C0004004000010006CDC0280B582B0C8
:1003700000AF786006E00A4B1800FFF7C1FF7B680A
:10038000413B7B607B68402BF5DC7B68FA22920066
:1003900053431800FFF7B4FFC046BD4602B080BD0E
:1003A000E8FD000080B500AF2F492F4A8D239B0048
:1003B000D358802293431A008D239B00CA502A4BA6
:1003C00000221A67284B00225A67274B01225A67DE
:1003D000254B00221A64244B00225A64224B01222E
:1003E0005A642149204A8E239B00D35880221A4305
:1003F0008E239B00CA501C4B23229A601A491A4A2A
:100400008E239B00D358802293431A008E239B0097
:10041000CA5000220D21012000F054FC00220E21C0
:10042000012000F04FFC0120FFF7A0FFC0460E4B5B
:10043000DB68002BFBD001220D21012000F042FCE3
:1004400001220E21012000F03DFC074B03221A6718
:10045000054B00225A67044B01225A67034B044A9A
:100460001A60C046BD4680BD0080044004000010F4
:10047000006CDC0280B500AF00220D21012000F0ED
:1004800021FC01220E21012000F01CFC2F4B2F4AE1
:10049000126A01210A431A622C492C4A8E239B00BE
:1004A000D358102293431A008E239B00CA50274929
:1004B000264A8023D3588022134380228B5023491D
:1004C000224A8023D35880225200134380228B502B
:1004D0001E491E4A8023D358802292001343802253
:1004E0008B501A49194A8023D3588022D2001343D3
:1004F00080228B501549154A8023D3588022D2027E
:10050000134380228B501149104A8023D3588022F4
:100510005201134380228B500C490C4A8023D3583C
:1005200080229201134380228B50084A9C23012190
:10053000D150064B054A526804210A435A60034AC7
:1005400098230121D150C046BD4680BD00800440A3
:1005500080B582B000AF78607B680021180001F0A0
:100560000DF901F033F801231800BD4602B080BD3B
:1005700080B59AB004AF00220221002000F062FB97
:1005800000220721002000F05DFB01221421002041
:1005900000F058FB01221421002000F093FB0122FF
:1005A0000D21012000F04EFB01220E21012000F060
:1005B00049FB01221B21012000F044FBFFF75AFFF9
:1005C000FFF7F0FE0D231A222621012000F0BAFBCE
:1005D000002303930023029300230193012300933C
:1005E000012300220821012000F002FC00237B658A
:1005F00000233B6500220D21012000F063FB2E212A
:100600002F2000F0BBFC2521242000F005FDE12374
:100610005B02180000F056FD3A4B180000F02AF972
:10062000394B180000F026F92823F918374B10220F
:10063000180001F0CFF92823FB18180000F01AF970
:10064000334B180000F016F9324B1B682822B918FA
:100650001022180001F0BEF92823FB18180000F042
:1006600009F92D4B180000F005F92A4B1B689A0078
:10067000264BD3182822B9181022180001F0AAF925
:100680002823FB18180000F0F5F8244B180000F0A0
:10069000F1F800F0FDFE6420FFF768FE00F0D2FEE6
:1006A0001F4B1800FFF754FF00F0B0FA00F0BEFA3D
:1006B00000F0ACFA2823FA181A4B1100180000F0C9
:1006C0008BF9FA23DB001800FFF750FE2823FA18F5
:1006D000144B1100180000F07FF9FA23DB0018001A
:1006E000FFF744FE2823FA180F4B1100180000F002
:1006F00073F90E4B1800FFF739FE00F05FFD00F0B4
:1007000019FEFEE7C0230000F8230000600100107E
:10071000042400000800001010240000142200002F
:100720001C2400002824000038240000B80B00001E
:1007300080B586B000AF786064237B6101233B61A4
:100740001323FB604A4B1B68002B11D0F9683B69EF
:100750000122180000F076FAF9683B6901221800BE
:1007600000F0B0FA0A20FFF701FE414B00221A60A8
:10077000F9683B690022180000F0A4FA7B691800B0
:10078000FFF7BEFD7B6801221A40F9683B6918003B
:1007900000F098FA7B691800FFF7B2FD7B685B10E8
:1007A00001221A40F9683B69180000F08BFA7B6956
:1007B0001800FFF7A5FD7B689B1001221A40F9681D
:1007C0003B69180000F07EFA7B691800FFF798FD7E
:1007D0007B68DB1001221A40F9683B69180000F0C1
:1007E00071FA7B691800FFF78BFD7B681B110122F2
:1007F0001A40F9683B69180000F064FA7B69180038
:10080000FFF77EFD7B685B1101221A40F9683B69A6
:10081000180000F057FA7B691800FFF771FD7B683C
:100820009B1101221A40F9683B69180000F04AFA4E
:100830007B691800FFF764FD7B68DB1101221A4019
:10084000F9683B69180000F03DFA7B691800FFF772
:1008500057FDF9683B690122180000F033FA7B6903
:100860001800FFF74DFDC046BD4606B080BDC0462E
:100870000000001080B584B000AF78600023FB60FA
:1008800009E0FB687A68D3181B781800FFF750FF5F
:10089000FB680133FB60FB687A68D3181B78002B78
:1008A00003D0FB68C72BECDDC046C046BD4604B094
:1008B00080BDC04680B582B000AF78607B68002103
:1008C000180000F05BFF00F081FE01231800BD4618
:1008D00002B080BD80B584B000AF78600023FB60BB
:1008E0000A23FB181E221A700B23FB1800221A7011
:1008F00000F096FC7B68180000F03CFC00F090FCD7
:100900002C4B180000F036FC2B4B1800FFF7D2FFE1
:100910007B681800FFF7CEFF284B1800FFF7CAFFCF
:10092000274B1800FFF7A6FF7B681800FFF7A2FF10
:10093000224B1800FFF79EFF1FE0224A224B1100B6
:10094000180001F00DF90300FB6000F037FC0B23E9
:10095000FB181A780B23FB1801321A700B23FA18B4
:100960000A23FB1812781B789A420AD2174B1800F8
:10097000FFF7A0FF6420FFF7F9FCFB68002BDCD039
:1009800000E0C0460D4B1800FFF794FF00F048FC54
:10099000FB68002B05D00E4B1800FFF78BFF0123DF
:1009A00004E00C4B1800FFF785FF00231800BD463C
:1009B00004B080BD40240000442400004C2400000A
:1009C0005024000058240000600100106024000042
:1009D000642400007024000080B59EB000AF7860F1
:1009E00039603B6800221A707623FB181E221A70A9
:1009F0007723FB1800221A7000233B6700F010FCDD
:100A0000724B1800FFF736FF7B68180000F0B2FB4E
:100A100000F006FC6E4B1800FFF72CFF0A20FFF7D2
:100A2000A5FC6C4B180000F0A5FB00F0C7FB6A4B5F
:100A30001800FFF73FFF7B681800FFF73BFF674B8D
:100A40001800FFF737FF644B1800FFF713FF7B68B0
:100A50001800FFF70FFF614B1800FFF70BFF00F0C6
:100A6000ADFB5F4B1800FFF705FF17E000F0A6FB9A
:100A70007723FB181A787723FB1801321A70772333
:100A8000FA187623FB1812781B789A420BD2554B32
:100A90001800FFF70FFF6420FFF768FC524B1B683C
:100AA000012BE3DD00E0C046504B1800FFF7E2FEEB
:100AB0007723FA187623FB1812781B789A4205D30D
:100AC0004B4B1800FFF7F6FE00237BE0464B1B68FC
:100AD000023B3B67474B1A68434B1B68023BD318EA
:100AE0003B67444A0C23FB181100180000F0ECFF90
:100AF00000F064FB00F01EFC2AE03F4B1800FFF7FB
:100B0000B9FE394B1B683D4A944663449A00394B01
:100B1000D3181800FFF7AEFE394B1800FFF7AAFEF6
:100B200000F04CFB7723FB181A787723FB1801326F
:100B30001A707723FA187623FB1812781B789A42DA
:100B400016D2284B1800FFF7B5FE6420FFF70EFC05
:100B5000254B1B68294A944663449A00254BD318B9
:100B60001E4A1100180000F08DFF031EC5D100E0E1
:100B7000C0467723FA187623FB1812781B789A421E
:100B800005D3204B1800FFF795FE00231AE0134B06
:100B90001800FFF78FFE174B1B689A1C3B6811006B
:100BA000180000F091FF0D4B1800FFF783FE164B65
:100BB0001800FFF77FFE3B681800FFF77BFE00F090
:100BC0002FFB00231800BD461EB080BD7824000016
:100BD0008C24000040240000502400004C2400001D
:100BE000A02400006024000008000010B8240000C9
:100BF000D024000060010010DC240000FEFFFF3F55
:100C0000F42400000C2500001825000080B500AF7A
:100C1000054B1800FFF75EFE031E01D0012300E024
:100C200000231800BD4680BD1C25000080B500AF24
:100C3000034B1800FFF74EFE00231800BD4680BD91
:100C40002025000080B584B000AFF860B9607A60FC
:100C50007B68002B17D0A023DB05A022D205F96802
:100C6000802000018446614489008A580120B968C7
:100C7000884001001143FA688020000184466244E4
:100C80009200D1501AE0A023DB05A022D205F9681A
:100C9000802000018446614489008A580120B96897
:100CA00088400100FF200140C9431140FA688020BC
:100CB0000001844662449200D150C046BD4604B053
:100CC00080BDC04680B584B000AFF860B9607A607E
:100CD0007B68012B32D87B68002B17D0A023DB0563
:100CE000A022D205F9688820000184466144890069
:100CF0008A580120B968884001001143FA688820A9
:100D00000001844662449200D15017E0A023DB0525
:100D1000A022D205F9688A20000184466144890036
:100D20008A580120B968884001001143FA688A2076
:100D30000001844662449200D150C046C046BD4680
:100D400004B080BD80B584B000AFF860B9607A604F
:100D50003B60FB68002B00D1FEE7FB68012B41D113
:100D6000BB68112B06D1214B204A526D02210A4348
:100D70005A650AE0BB68262B07D11C491B4AB823D9
:100D8000D35802221343B8228B507B681E2B06D106
:100D9000164B164A926D02210A439A650AE07B6857
:100DA0001A2B07D11149114AB423D35802221343F5
:100DB000B4228B503B682B2B08D10C490B4A9C2347
:100DC000D358032213439C228B500BE03B680D2B1E
:100DD00008D10649054AB023D35802221343B02252
:100DE0008B50C046C046BD4604B080BD00400440A4
:100DF00080B586B000AFF860B9607A603B600023D0
:100E00007B61BB68013BBB60BB68022B01DC032339
:100E1000BB60BB680F221340BB607B68032B01D112
:100E200000237B607B68032213407B603B680122C8
:100E300013403B603B6A012213403B627B6AFF2206
:100E400013407B627B681A01BB681A433B689B01B5
:100E50001A433B6ADB011A437B6A1B0213437B6123
:100E6000FB68002B03D11E4B7A691A6005E0FB6812
:100E7000012B02D11B4B7A691A6000237B61BB6A8C
:100E80009B007B61FB68002B08D1154B7A695A6087
:100E9000134B7A6902210A435A600AE0FB68012B6E
:100EA00007D1104B7A695A600E4B7A6902210A43C6
:100EB0005A60FB6AFE221340FB62FB68002B03D1E1
:100EC000074BFA6A1A6106E0FB68012B03D1054B58
:100ED000FA6A1A61C046C046BD4606B080BDC0462B
:100EE000000004400080054080B582B000AF78600B
:100EF00039607B68002B0FD1C046134BDB680222A0
:100F00001340FAD0104B3A689A60C0460E4BDB682B
:100F100010221340FAD112E07B68012B0FD1C0469A
:100F20000A4BDB6802221340FAD0084B3A689A60F9
:100F3000C046064BDB6810221340FAD1C046C046BB
:100F4000BD4602B080BDC0460000044000800540A0
:100F500080B582B000AF0200FB1D1A70064BFA1D6F
:100F6000127811001F220A40012191400A001A60E4
:100F7000C046BD4602B080BD00E100E080B582B051
:100F800000AF78607B682F2B06D1224B214AD26CB0
:100F900007218A43DA6439E07B680C2B08D11D49AC
:100FA0001C4ACC23D35807229343CC228B502DE0EC
:100FB0007B68242B08D11749164A9423D35807225B
:100FC000934394228B5021E07B682E2B06D1114B4A
:100FD000104A926C07218A439A6417E07B680B2BB6
:100FE00008D10C490B4AC823D35807229343C8227F
:100FF0008B500BE07B68252B08D10649054A9823C6
:10100000D3580722934398228B50C046C046BD4612
:1010100002B080BD0040044080B582B000AF78606F
:1010200039607B681800FFF7A9FF3B681800FFF7DD
:10103000A5FF7B682F2B06D1214B214AD26C0121C1
:101040000A43DA6416E07B680C2B08D11C491C4A61
:10105000CC23D35802221343CC228B500AE07B6866
:10106000242B07D11649164A9423D358032213433D
:1010700094228B503B682E2B06D1114B104A926C58
:1010800001210A439A6417E03B680B2B08D10C49F5
:101090000B4AC823D35802221343C8228B500BE0BB
:1010A0003B68252B08D10649054A9823D3580322CB
:1010B000134398228B50C046C046BD4602B080BD47
:1010C0000040044080B584B000AF78602649264ACD
:1010D0008023D35880225201134380228B50224A0E
:1010E00098230121D150204B9A6F204B1B6853430A
:1010F00018001D4A9823D3587A6853431B011900DE
:1011000000F0E5FF0300FB60FA6813005B019B1A27
:101110009B009B181433DB09FB60154BC1229A62BC
:10112000134B8322DA60124BFA68120A5A60104B92
:10113000FA68FF210A401A600D4B0322DA600C4B5B
:1011400007229A600A4B04225A60094B084A9268A7
:10115000C0210A439A601520FFF7FAFE0123180008
:10116000BD4604B080BDC0460080044004000010AD
:101170000080004080B584B000AF78600023FB6041
:101180000EE0C0460C4B5B6920221340FAD00A4B9C
:10119000FA6879688A1812781A60FB680133FB6074
:1011A000FB687A68D3181B78002BEAD1012318005A
:1011B000BD4604B080BDC0460080004080B500AF91
:1011C00019E0144B1B681A00134BD218134B1B6801
:1011D000DBB21370114B5B690122134002D10A206C
:1011E000FFF7C4F80B4B1B68C72B04DC094B1B68CB
:1011F0005A1C084B1A60094B5B6901221340E0D16D
:10120000044B1B681A00044BD31800221A70C04606
:10121000BD4680BD08000010600100100080004045
:1012200080B500AF084B1800FFF724FBFFF7C6FF9F
:10123000064B00221A60064B00221A70044B002253
:101240005A70C046BD4680BD6425000008000010ED
:101250006001001080B500AF334B1B681A00334BA0
:10126000D218334B1B68DBB213702F4B1B685A1C10
:101270002D4B1A602C4B1B681A002C4BD2182C4B90
:101280001B68DBB21370284B1B685A1C264B1A6074
:10129000254B1B681A00254BD218254B1B68DBB267
:1012A0001370214B1B685A1C1F4B1A601E4B1B6886
:1012B0001A001E4BD2181E4B1B68DBB213701A4B60
:1012C0001B685A1C184B1A60174B1B681A00174BE7
:1012D000D218174B1B68DBB21370134B1B685A1CD8
:1012E000114B1A60104B1B681A00104BD218104B90
:1012F0001B68DBB213700C4B1B685A1C0A4B1A603C
:10130000094B1B681A00094BD218094B1B68DBB24A
:101310001370054B1B685A1C034B1A60FFF74EFFF6
:10132000C046BD4680BDC0460800001060010010E8
:101330000080004080B58AB000AF224B1800FFF754
:1013400099FA3900204B1022180000F043FB3B00B3
:101350001800FFF78FFA1D4B1800FFF78BFA1C4B94
:101360001B6839001022180000F034FB3B00180005
:10137000FFF780FA174B1800FFF77CFA144B1B6835
:101380001A00C8235A43104BD318390010221800F2
:1013900000F020FB3B001800FFF76CFA0E4B180022
:1013A000FFF768FA0D4B1800FFF764FA064B1800B8
:1013B000FFF760FA084B1800FFF75CFAC046BD461D
:1013C0000AB080BD74250000600100108025000077
:1013D000080000108C250000982500009C250000C6
:1013E00080B500AF00221C210120FFF76BFC012219
:1013F0001C210120FFF766FCC046BD4680BDC046EB
:1014000080B582B000AF002000F0BCF8002000F0F2
:10141000C9F800237B600EE000233B6005E000205C
:1014200000F08CF83B6801333B603B68052BF6DD30
:101430007B6801337B607B68532BEDDDC046BD4686
:1014400002B080BD80B582B000AF00237B6016E0A3
:1014500000233B600DE00D497A6813005B009B1888
:101460005B003A689B189B0000225A503B6801338E
:101470003B603B68052BEEDD7B6801337B607B685E
:10148000532BE5DDC046BD4602B080BD28020010EA
:1014900080B500AF01221C210120FFF7D3FB012200
:1014A0001D210120FFF7CEFB01221F210120FFF7A4
:1014B000C9FB012216210120FFF7C4FB01221421E0
:1014C0000120FFF7BFFB01221D210120FFF7FAFBDE
:1014D000002214210120FFF7F5FBFFF781FF2120F7
:1014E00000F03EF8902000F03BF8202000F038F8A3
:1014F000092000F035F80D2000F032F80C2000F043
:101500002FF8FFF77DFFC046BD4680BD80B582B095
:1015100000AF786000221D210120FFF7D3FB7B681C
:1015200019000120FFF7E0FC01221D210120FFF737
:10153000C9FBC046BD4602B080BDC04680B582B082
:1015400000AF786001221F210120FFF7BBFB7B6801
:101550001800FFF7DBFFC046BD4602B080BDC046A5
:1015600080B582B000AF786000221F210120FFF714
:10157000A9FB7B681800FFF7C9FFC046BD4602B053
:1015800080BDC04680B582B000AF78607B688022A5
:1015900013437B607B681800FFF7E2FFC046BD463F
:1015A00002B080BD80B582B000AF78607B68472212
:1015B00013407B607B68402213437B607B6818008C
:1015C000FFF7CEFFC046BD4602B080BD80B582B0F9
:1015D00000AF0020FFF7D6FF0020FFF7E3FF002356
:1015E0003B6020E000237B600FE012497A68130023
:1015F0005B009B185B003A689B189B005B581800C7
:10160000FFF79CFF7B6801337B607B68532BECDD2D
:101610000020FFF7B7FF3B6801331800FFF7C2FF58
:101620003B6801333B603B68062BDBDDC046BD46B3
:1016300002B080BD2802001080B584B000AF786091
:101640000023BB6021E00023FB6017E0BB68581C4F
:101650001B49FA6813005B009B185B001B189B007A
:1016600058581749FA6813005B009B185B00BA686A
:101670009B189B005850FB680133FB60FB68522BA2
:10168000E4DDBA687B68D318BB60BB68042BDADD85
:101690000023FB600DE00A49FA6813005B009B1809
:1016A0005B00BA689B189B0000225A50FB6801330C
:1016B000FB60FB68522BEEDDC046BD4604B080BD2A
:1016C0002802001080B588B000AFF860B9607A6079
:1016D0000023FB610023BB611723FB18FA681A7013
:1016E00039E0BB68062B3EDCFA68FB69D2181300B0
:1016F0005B009B185B001A00BB69D318542B34DCC9
:10170000FA68FB69D21813005B009B185B001A0093
:10171000BB69D218FB697968CB181B7819000B00DC
:101720009B005918BB69CB181249CB5C18001249B1
:1017300013005B009B185B00BA689B189B00585015
:10174000BB690133BB61BB69042B04DDFB69013359
:10175000FB610023BB61FB697A68D3181B78002BFF
:10176000BFD1C04602E0C04600E0C046BD4608B05A
:1017700080BDC046A82500002802001080B584B0B6
:1017800000AF78600A00FB1C1A700F23FB180022C0
:101790001A700C23FB1800225A707B68180000F0A6
:1017A000B5F902000E23FB181A7060E00F23FB1836
:1017B0001B787A68D3181B780A2B10D1324B1B7810
:1017C0000133DAB2304B1A702F4B1B78052B41D9FD
:1017D0000120FFF731FF2C4B05221A703AE00F234E
:1017E000FB181B787A68D3181B780D2B03D1274B75
:1017F00000221A702EE00F23FB181B787A68D3188A
:101800001A780C23FB181A70204B1B7818001E4BFB
:101810001B7819000C23FB181A00FFF753FF1B4B12
:101820001B780133DAB2194B1A70184B1B780D2B49
:1018300010D9154B1B78042B06D8134B1B7801339A
:10184000DAB2114B1A7002E00120FFF7F5FE0F4BE0
:1018500000221A700F23FB181A780F23FB1801328D
:101860001A70FB1C1B78002B01D0FFF7AFFE0F2373
:10187000FA180E23FB1812781B789A4296D3C046AA
:10188000BD4604B080BDC0460C0000100D00001025
:1018900013B58E2120201C4B89005A5882435A5080
:1018A00000221A620192019AC72A03D8C046019AFF
:1018B0000132F7E7012200211A645A6459645A641C
:1018C0005C6C114801211442FAD000220267416782
:1018D00042674167586F0C4A0842FBD00123936767
:1018E0008E2380209B00D158C00001438020D1501E
:1018F000D15840000143D1508021044A4902D36F9E
:101900000B43D36713BDC0460080044004800440ED
:10191000002210B51100100000F008F8FEF728FEB4
:1019200010BD10B500F00DFC10BDFFFFA02270B57A
:10193000214C520000212000FFF7F3FFC02000F0EF
:1019400063FA1E4DC02200212860FFF7EAFF2B68D2
:101950001B4A1900C0311360183328328B42FAD168
:1019600022001849002000F02FF9802380225B011B
:10197000D2000021200000F061F8134D134C290023
:101980002200012000F020F9802380225B01D20098
:101990000021200000F052F80D4C29002200022006
:1019A00000F012F9802380225B01D2000021200088
:1019B00000F044F870BDC046140000101000001084
:1019C00038000010A82A0000AA2A00003C000010DD
:1019D000640000100023F7B50E00171E01930A2FB4
:1019E00001D1984222DB34003900050000F06FFB82
:1019F00002007A43AD1A104A631C525D227000281F
:101A000001D01C00F0E7019A002A02D02D22A31C6D
:101A1000627000215A1E197033009A420AD9117857
:101A20001878013A507019700133F6E701234042EB
:101A30000193D8E73000FEBDAC2A0000F0B5C668BF
:101A40000124B5071AD08025AD00AA420BD080250D
:101A5000ED00AA4204D080256D00AA420ED102E01A
:101A6000416A230004E0064F5D1E0124BD4205D8F3
:101A70000024324301610160C361C2602000F0BDF7
:101A8000FEFFFF0003000B4310B59B070CD10C4C6D
:101A900002680B689A4207D10A4BD318934323423A
:101AA00002D104300431F3E70022835C8C5CA34252
:101AB00001D0181B03E00132002BF6D1180010BD35
:101AC00080808080FFFEFEFE03000B4330B59B0745
:101AD00011D103000B4D0A680B4C141994432C428E
:101AE00002D104C30431F6E7D1B2197001330029E1
:101AF00007D01212F8E70023CA5CC2540133002A4F
:101B0000FAD130BD80808080FFFEFEFE032210B53A
:101B1000431C104206D00130411E09780029F8D13B
:101B2000C01A18E00C4C02680C495118914321422C
:101B300001D10430F7E7D4B2411C002C0AD0FF24B5
:101B40002402811C224205D0FF242404C11C22420D
:101B500000D0011DC81A10BD80808080FFFEFEFEEF
:101B600010B50023CA5C002A0AD0C45C944201D19B
:101B70000133F7E70130431E1B78002BF1D1180029
:101B800010BDFFFF202310B50400C2689A43436ACA
:101B9000E2605B6882699A420DD000F04FF8E2681B
:101BA000074B134010221343626AE3605368A3613A
:101BB000236993602360E268024B1340E36010BD29
:101BC000EFCFFFFFBFBFFFFFF7B50D000190100083
:101BD000140000F029F92B78722B09D0772B04D050
:101BE000612B25D10823144A04E00423022201E0DA
:101BF000002301220220691C0327844604260125B4
:101C000008782B2805D0622807D132432B430131B5
:101C1000F6E760463A430343F9E7E260019A6261FE
:101C20001B0706D502220021200000F04FF900E03A
:101C300000242000FEBDC0460280000070B50400F4
:101C4000436A056901689A68C068134B0340E36002
:101C500082230340022B02D0012040421AE080235D
:101C60005B02184016D0914200D211008D4209D17A
:101C70000020636AE2689D60084B25601340A06005
:101C8000E36007E0491B2200280000F009F8002863
:101C9000EED0E1E770BDC046FFFFF7FFFFFFFEFF9C
:101CA000F7B5D66801900D0014005769F30205D509
:101CB000102338001E4300F065FAA061114B1E424C
:101CC00009D0A169380000F06FFA8023002811DBE9
:101CD0000D4B1E40E6602A000199380000F070FAB2
:101CE00043005B08ED1AA3695D190023A5619842C2
:101CF00005D08033E2681343E36001235B421800A0
:101D0000FEBDC04610000200EFFFFDFFF7B5314EEB
:101D1000C51C3468AD080196002813D08022290024
:101D2000EB1C002752050A319C4604E023689342CD
:101D300013D02700A468002CF8D10C3000F076F9FD
:101D4000431C0FD1002043E03E68964217D17E68C5
:101D50009B1903336360BB68A360A7686368002FA7
:101D6000F2D10CE080239B05036045608460002F66
:101D700002D1019B186000E0B8600C3028E09D4261
:101D800005DC634503DC80239B0523601EE08B425A
:101D900010D98022200080219205656022600C30DD
:101DA000AA005D1B82184905033DA26011605560C1
:101DB00097600DE0002FBCD19B00C01A00F036F9EF
:101DC000431CBFD080239B05236065602000D4E7BF
:101DD000FEBDC0465801001010B5002812D0802367
:101DE0005B0519000C3803608268002A0AD013686A
:101DF0008B4207D1546843681B19033343609368CF
:101E00008360F1E710BDFFFF10B5FFF77FFF041EF1
:101E100005D11722034900F0D3F900F0A7F92000FB
:101E200010BDC046BD2A0000F0B5436AC5688BB03E
:101E300004000193AB0728D02B0718D44769066923
:101E400000F02AF8380000F097F92B0502D5300091
:101E5000FFF7C2FF0F4BAD0DAD059D4207D120220C
:101E6000216A02A800F0A6F902A800F0D5F818220D
:101E70000021606AFFF755FD282200212000FFF7AE
:101E800050FD019B0020636201E0012040420BB045
:101E9000F0BDC046000080AD70B5002803D000F052
:101EA000E5F805000EE0A0260400050076000648CF
:101EB000201800F0DBF8002801D001256D422834FD
:101EC000B442F4D1280070BD14000010F7B5C36807
:101ED00016000093009A3B4B04000D001A426CD090
:101EE0004769380000F054F90190002865D1012EAF
:101EF00004D0022E07D0002E5FD124E0200000F095
:101F000065F82D181FE0380000F03CF9002805DACC
:101F10008023E2681343E36001234FE0626A236891
:101F20009168994200D90B00A1695B1821695B1A7D
:101F3000E168890603D55268934200DA13008342B0
:101F400000DA0300ED18002D37DB009B616A9B046B
:101F500004D523688A689A4200D28B60A3699D42A7
:101F60000DDB88682268824200D202002069D61800
:101F7000361AB54203DCCF68DE19B54207DB2023F1
:101F8000009A13430022A26062604D6011E0ED1AD6
:101F9000009B9B0701D5EF1BA760009BDB0702D5C9
:101FA000121AAA1A62602023009A45199A43130054
:101FB0002560054A1340E36001E002230193019884
:101FC000FEBDC04603001000BFCFF7FFC3689A07ED
:101FD00005D1212201200F4B40421A6018E0202237
:101FE00019030BD5134202D0436A586804E0036812
:101FF000826900699B18181A013809E0134202D05F
:10200000436A586804E00368826900699B18181ADB
:102010007047C0465401001010B50400FFF776FD6C
:102020000100200000F0BAF810BDFFFF70B50C4DA4
:102030002B68002B01D10B4B2B600323C41C2E6893
:102040009C433419200000F035F8002802D12C60A0
:10205000300004E00C220120034B40421A6070BDA6
:102060005C010010080A001054010010C36870B52C
:102070000400032018401AD09B0605D5636A20008F
:102080005E68FFF77FFD04E02368A2699E1823695C
:10209000F61AE268064B20001340E360FFF7CEFD1E
:1020A0000500002231002000FFF710FF280070BD5E
:1020B000FFCFFFFF034B0200181E02D000209A4200
:1020C000404170470000000003000B4321D4002969
:1020D00031D00122D207030901E009011209994216
:1020E000FBD9430801E0490052089942FBD900E0BE
:1020F0004908401A07D35241FAD3014610467047A7
:1021000049084018F7D29218FAD3401801461046F1
:102110007047CB0F00D04942021000D540425340D7
:1021200008B5FFF7D4FF0CBC521000D34042002A80
:1021300000D549421847F446002000F001F86047F6
:1021400070478446043A09D3830707D109060B0A6E
:1021500019430B0C1943043A02C0FCD2043203D0D9
:1021600001700130013AFBD16046704718200149E7
:10217000ABBE70472600020003B469460220ABBE26
:1021800002B0704703B469460C20ABBE02B0704782
:1021900003B469460920ABBE02B0704703B4694678
:1021A0000E20ABBE02B0704703B469460A20ABBE36
:1021B00002B070470FB469460D20ABBE04B0704743
:1021C0000FB469460520ABBE04B070475278526F19
:1021D0007574696E6520697320676F210A0D0000B0
:1021E0005278204649464F20656D707479202D2025
:1021F000312000005278204649464F206861732004
:1022000064617461202D2031000000007C0000001A
:102210002D0000000A0D000020202020202020207A
:1022200020202020202020202020202020202020AE
:102230002020202020200000446174613A2000000A
:102240005B3078253032785D200000002E0A0D00CA
:10225000436C6561726564206461746120726563BA
:10226000656976656420696E746572727570740A4A
:102270000D0000005478526F7574696E65206973A3
:1022800020676F210A0D00004372617020746F2077
:102290005478204649464F210A0D00004372617070
:1022A000207375636365737366756C6C7920696EF2
:1022B000205478204649464F210A0D00536B69701F
:1022C000706564207472616E736D697373696F6E8B
:1022D0000A0D00004661696C656420746F207365A7
:1022E0006E64210A0D000000466C757368656420F9
:1022F000627566666572210A0D0000004D41545FEB
:10230000525420696E7465727275707420616374C2
:102310006976650A0D0000004D41545F52542069F2
:102320006E7465727275707420636C656172656439
:102330000A0D000054585F445320696E7465727230
:10234000757074206163746976650A0D0000000081
:1023500054585F445320696E7465727275707420AE
:10236000636C65617265640A0D000000464C415360
:10237000482045524153452040200000466C61737F
:102380006820777269746520676F20402000000024
:102390003B200000206279746573200A0D00000064
:1023A000466C61736820777269746520656E640A93
:1023B0000D000000526561642040200A0D000000FD
:1023C0000A0D2D2D2D2D2D2D2D2D2D2D2D2D2D2D80
:1023D0002D2D2D2D2D2D2D2D2D2D2D2D2D2D2D2D2D
:1023E0002D2D2D2D2D2D2D2D2D2D2D2D2D2D2D2D1D
:1023F0002D2D0A0D0000000052784253743A20300F
:10240000780000003B205278496E3A203078000076
:102410003B20527842456E3A203078004553502098
:10242000746573740A0D000041542B434950535492
:10243000415455530000000041542B52535400FFA7
:102440000D0A0000436D643A000000000A0D000010
:10245000436D64523A0000004F4B0D0A000000002B
:102460002E0000004F4B204745540A0D000000008D
:102470004641494C0A0D000020202020205465735D
:10248000746C696E653A2035300A0D0020202020DA
:1024900020546573746C696E653A2037300A0D00FC
:1024A0002020202020546573746C696E653A2031B9
:1024B00035300A0D000000002020202020546573D4
:1024C000746C696E653A203138300A0D00000000E6
:1024D0004641494C2841290A0D00000020202020B7
:1024E00020546573746C696E653A203139300A0D79
:1024F000000000002020202020546573746C696E59
:10250000653A203230300A0D000000004641494C47
:102510002842290A0D000000523A200041540000D0
:1025200041542B525354000041542B43574D4F44B8
:10253000453D310041542B43574D4F44453D3200FA
:1025400041542B43574D4F44453D330041542B4399
:1025500049504D55583D310041542B4349504D553C
:10256000583D3000425546464552434C4541522164
:102570000A0D000052784253743A2030780000006F
:102580003B205278496E3A20307800003B20527848
:1025900042456E3A203078000A0D000052784243DE
:1025A0006F6E743A2000FFFF00000000003E5B4F9A
:1025B0005B3E3E6B4F6B3E1C3E7C3E1C183C7E3CA3
:1025C000181C577D571C1C5E7F5E1C00183C1800B1
:1025D000FFE7C3E7FF0018241800FFE7DBE7FF3041
:1025E000483A060E2629792926407F050507407FAF
:1025F00005253F5A3CE73C5A7F3E1C1C08081C1C22
:102600003E7F14227F22145F5F005F5F06097F0117
:102610007F006689956A606060606094A2FFA29402
:1026200008047E040810207E201008082A1C0808D0
:102630001C2A08081E101010100C1E0C1E0C30381E
:102640003E3830060E3E0E06000000000000005F1F
:1026500000000007000700147F147F14242A7F2A3B
:1026600012231308646236495620500008070300FD
:10267000001C2241000041221C002A1C7F1C2A0849
:10268000083E0808008070300008080808080000AC
:1026900060600020100804023E5149453E00427F20
:1026A000400072494949462141494D331814127F6F
:1026B0001027454545393C4A49493141211109070F
:1026C0003649494936464949291E00001400000090
:1026D0004034000000081422411414141414004162
:1026E00022140802015909063E415D594E7C12111F
:1026F000127C7F494949363E414141227F41414157
:102700003E7F494949417F090909013E41415173D1
:102710007F0808087F00417F41002040413F017F42
:10272000081422417F404040407F021C027F7F040A
:1027300008107F3E4141413E7F090909063E415153
:10274000215E7F09192946264949493203017F0143
:10275000033F4040403F1F2040201F3F4038403F44
:10276000631408146303047804036159494D43005A
:102770007F4141410204081020004141417F040291
:102780000102044040404040000307080020545428
:1027900078407F2844443838444444283844442806
:1027A0007F385454541800087E090218A4A49C7859
:1027B0007F0804047800447D40002040403D007FB5
:1027C0001028440000417F40007C047804787C0895
:1027D0000404783844444438FC1824241818242469
:1027E00018FC7C08040408485454542404043F444E
:1027F000243C4040207C1C2040201C3C4030403C7D
:1028000044281028444C9090907C4464544C4400DC
:102810000836410000007700000041360800020140
:102820000204023C2623263C1EA1A161123A40402C
:10283000207A3854545559215555794122545478A9
:1028400042215554784020545579400C1E52721242
:1028500039555555593954545459395554545800CB
:1028600000457C410002457D420001457C407D12CF
:1028700011127DF0282528F07C5455450020545431
:102880007C547C0A097F4932494949323A444444DC
:102890003A324A4848303A4141217A3A4240207817
:1028A000009DA0A07D3D4242423D3D4040403D3C18
:1028B00024FF2424487E4943662B2FFC2F2BFF093D
:1028C00029F620C0887E0903205454794100004431
:1028D0007D413048484A32384040227A007A0A0A1C
:1028E000727D0D19317D2629292F2826292929268F
:1028F00030484D4020380808080808080808382FD4
:1029000010C8ACBA2F102834FA00007B000008145D
:102910002A142222142A14085500550055AA55AA33
:1029200055AAFF55FF55FF000000FF00101010FFD3
:1029300000141414FF001010FF00FF1010F010F02E
:10294000141414FC001414F700FF0000FF00FF141F
:1029500014F404FC141417101F10101F101F14146B
:10296000141F00101010F0000000001F10101010B5
:102970001F10101010F010000000FF1010101010A9
:1029800010101010FF10000000FF140000FF00FFE7
:1029900000001F10170000FC04F414141710171483
:1029A00014F404F40000FF00F714141414141414A5
:1029B000F700F7141414171410101F101F14141418
:1029C000F4141010F010F000001F101F0000001F82
:1029D00014000000FC140000F010F01010FF10FFB5
:1029E000141414FF141010101F00000000F010FF4A
:1029F000FFFFFFFFF0F0F0F0F0FFFFFF000000002E
:102A000000FFFF0F0F0F0F0F3844443844FC4A4AB1
:102A10004A347E02020606027E027E026355494166
:102A2000633844443C04407E201E2006027E02029D
:102A300099A5E7A5991C2A492A1C4C7201724C30B1
:102A40004A4D4D303048784830BC625A463D3E4988
:102A50004949007E0101017E2A2A2A2A2A44445F2C
:102A6000444440514A444040444A51400000FF0120
:102A700003E080FF000008086B6B0836123624362E
:102A8000060F090F06000018180000001010003093
:102A900040FF0101001F01011E00191D1712003C1B
:102AA0003C3C3C00000000007200770030313233C3
:102AB000343536373839616263646566002A2A2AFC
:102AC000205F437379735F616C6C6F63206661692B
:082AD0006C65640A00FFFFFFC2
:082AD80001000000001BB70023
:040000030000015D9B
:00000001FF
