:10000000002000105D010000F5010000FD0100006E
:1000100000000000000000000000000000000000E0
:1000200000000000000000000000000005020000C9
:1000300000000000000000000D020000150200009A
:100040001D0200001D0200001D0200001D02000034
:100050001D0200001D0200001D0200001D02000024
:100060001D0200001D020000000000000000000052
:1000700000000000000000001D0200001D02000042
:100080001D0200001D0200001D0200001D020000F4
:100090001D0200001D0200001D0200001D020000E4
:1000A0001D0200001D0200001D0200001D020000D4
:1000B00000000000000000001D0200000000000021
:1000C000804000000000001004000000804000009C
:1000D000004000200000000004000010340900006F
:1000E000004000200000000080B588B000AFF8603C
:1000F000B9607A60BB68FB61FB68BB6100237B6110
:100100000AE0FB691A1DFA61BA69111DB96112682A
:100110001A607B6904337B617A697B689A42F0D309
:10012000BD4608B080BDC04680B584B000AF7860E1
:1001300039607B68FB600023BB6007E0FB681A1D29
:10014000FA6000221A60BB680433BB60BA683B687F
:100150009A42F3D3BD4604B080BDC04680B586B098
:1001600000AF204B3B613B691B68C02212051A435C
:100170003B691A601C4B7B6116E07B691A1D7A6132
:100180001B68FB607B691A1D7A611B68BB607B6919
:100190001A1D7A611B687B60F968BA687B68081C65
:1001A000111C1A1CFFF7A0FF7A69104B9A42E4D386
:1001B0000FE07B691A1D7A611B68BB607B691A1DA1
:1001C0007A611B687B60BA687B68101C191CFFF79A
:1001D000ABFF7A69064B9A42EBD301F0FBFD01F0CD
:1001E00039FEFEE780800440C0000000D800000017
:1001F000E800000080B500AFFEE7C04680B500AF64
:10020000FEE7C04680B500AFFEE7C04680B500AF50
:10021000FEE7C04680B500AFFEE7C04680B500AF40
:10022000FEE7C046FFFFFFFFFFFFFFFFFFFFFFFFEF
:10023000FFFFFFFFFFFFFFFFFFFFFFFFFFFFFFFFCE
:10024000FFFFFFFFFFFFFFFFFFFFFFFFFFFFFFFFBE
:10025000FFFFFFFFFFFFFFFFFFFFFFFFFFFFFFFFAE
:10026000FFFFFFFFFFFFFFFFFFFFFFFFFFFFFFFF9E
:10027000FFFFFFFFFFFFFFFFFFFFFFFFFFFFFFFF8E
:10028000FFFFFFFFFFFFFFFFFFFFFFFFFFFFFFFF7E
:10029000FFFFFFFFFFFFFFFFFFFFFFFFFFFFFFFF6E
:1002A000FFFFFFFFFFFFFFFFFFFFFFFFFFFFFFFF5E
:1002B000FFFFFFFFFFFFFFFFFFFFFFFFFFFFFFFF4E
:1002C000FFFFFFFFFFFFFFFFFFFFFFFFFFFFFFFF3E
:1002D000FFFFFFFFFFFFFFFFFFFFFFFFFFFFFFFF2E
:1002E000FFFFFFFFFFFFFFFFFFFFFFFFFFFFFFFF1E
:1002F000FFFFFFFFFFFFFFFFFFFFFFFFFFFFFFFF0E
:1003000080B582B000AF7860154B00229A60144B24
:1003100000221A61134B1B68134A934203D1104BFE
:100320002F22DA6002E00E4B0B22DA600C4B052222
:100330005A610B4B7A689A61C046094B9A697B688F
:100340009A42FAD1064B01225A60C046044B5B68C0
:1003500001221340FAD1C046BD4602B080BDC0465E
:1003600000C0004000000010006CDC0280B582B0CC
:1003700000AF786006E00A4B181CFFF7C1FF7B68EE
:10038000413B7B607B68402BF5DC7B68FA22920066
:100390005343181CFFF7B4FFC046BD4602B080BDF2
:1003A000E8FD000080B500AF2F492F4A8D239B0048
:1003B000D358802293431A1C8D239B00CA502A4B8A
:1003C00000221A67284B00225A67274B01225A67DE
:1003D000254B00221A64244B00225A64224B01222E
:1003E0005A642149204A8E239B00D35880221A4305
:1003F0008E239B00CA501C4B23229A601A491A4A2A
:100400008E239B00D358802293431A1C8E239B007B
:10041000CA5001200D21002200F0BAFC01200E215B
:10042000002200F0B5FC0120FFF7A0FFC0460E4BF4
:10043000DB68002BFBD001200D21012200F0A8FC7D
:1004400001200E21012200F0A3FC074B03221A67B2
:10045000054B00225A67044B01225A67034B044A9A
:100460001A60BD4680BDC0460080044000000010F8
:10047000006CDC0280B500AF01200D21002200F0ED
:1004800087FC01200E21012200F082FC2F4B2F4A15
:10049000126A01210A431A622C492C4A8E239B00BE
:1004A000D358102293431A1C8E239B00CA5027490D
:1004B000264A8023D3588022134380228B5023491D
:1004C000224A8023D35880225200134380228B502B
:1004D0001E491E4A8023D358802292001343802253
:1004E0008B501A49194A8023D3588022D2001343D3
:1004F00080228B501549154A8023D3588022D2027E
:10050000134380228B501149104A8023D3588022F4
:100510005201134380228B500C490C4A8023D3583C
:1005200080229201134380228B50084A9C23012190
:10053000D150064B054A526804210A435A60034AC7
:1005400098230121D150C046BD4680BD00800440A3
:1005500080B500AF0C4B181C00F022F80B4B181C98
:1005600000F01EF80A4B181C00F01AF8094B181C72
:1005700000F016F8084B181C00F012F8074B181C76
:1005800000F00EF8E6E7C0466C3200007C32000056
:100590009032000094320000A0320000B43200001B
:1005A00080B582B000AF78607B68181C012101F033
:1005B00085FB0123181CBD4602B080BD80B59AB0F2
:1005C00004AF00200221002200F0A2FB002007213E
:1005D000002200F09DFB01200D21012200F098FB7C
:1005E00001200E21012200F093FB01201B2101229A
:1005F00000F08EFBFFF73EFFFFF7D4FE012026211F
:100600001A220D2300F072FD0123009300230193B1
:1006100000230293002303930120082100220123D9
:1006200000F0BAFD00237B6500233B6501200D210E
:10063000002200F0ADFBE1235B02181C00F012FF6A
:100640002F202E2100F06AFE2420252100F0B4FE88
:1006500000F002F900F0DAFF6420FFF787FE00F0F7
:10066000AFFF204B181CFFF79BFFFA235B00181C01
:10067000FFF77CFE1C4B181CFFF792FFFA235B0070
:10068000181CFFF773FE194B181CFFF789FFFA239C
:100690005B00181CFFF76AFE154B181CFFF780FF64
:1006A000FA235B00181CFFF761FE124B181CFFF7C2
:1006B00077FF00F02DF8FFF74BFF202000F026FC1D
:1006C000002001210A220A2300F0A2FC0A4B181C78
:1006D000FFF766FF00F060FA084B181CFFF760FF99
:1006E000FEE7C046C0320000D8320000F4320000FD
:1006F00008330000183300002833000038330000AE
:1007000080B582B000AF7860C046BD4602B080BD03
:1007100080B500AF074B181C00F0FCFE03E0064B51
:10072000054A12681A60044B5B6901221340F6D136
:10073000F4E7C0464C3300000080004080B582B032
:1007400002AF00F063FF3C4B181CFFF7D9FF642099
:10075000FFF70CFE00F034FF384B181CFFF7D0FFFA
:10076000374B002000211A1C01F034FA354B0220CF
:1007700002211A1C01F02EFA334B062003211A1C09
:1007800001F028FA314B042004211A1C01F022FA4E
:100790002F4B181CFFF7B4FF01F0A0F92D4B181CCC
:1007A000FFF7AEFF002000F0ABFF002000F0B8FF25
:1007B000A02300930123019329200A210A22C823A0
:1007C00001F022F8B4235B000093012301931A2067
:1007D00028210722002301F017F8B4235B000093BF
:1007E00001230193382028210722002301F00CF86F
:1007F000002300930123019329200A210A220323C5
:1008000001F0B6F8B42300930123019323201221B1
:100810000022142301F0ACF8B423009301230193C8
:100820002F2012210022142301F0A2F801F056F922
:10083000C046BD4680BDC0468C330000A0330000DA
:10084000BC330000C4330000CC330000D0330000C0
:10085000D8330000F433000080B582B000AF01202F
:100860001B21012200F094FA01201B21012200F03B
:100870004FFA01201B21012200F08AFA00F0C6FE87
:1008800000F09EFE01F02AF9FA239B00181CFFF7E6
:100890006DFD01200D21002200F07AFAFA235B00A1
:1008A000181CFFF763FD01200E21002200F070FAF2
:1008B000FA235B00181CFFF759FD00237B6017E04B
:1008C0007B68181CFFF71CFD01201B21012200F092
:1008D0005FFA7B68FA229200D31A181CFFF710FD0A
:1008E00001201B21002200F053FA7B6801337B605A
:1008F0007B68954A9342E3DDFA235B00181CFFF7FF
:1009000035FD01201B21002200F042FA6420FFF790
:100910002DFD01201B21012200F03AFA1420FFF7DF
:1009200025FD01201B21002200F032FA6420FFF790
:100930001DFD01201B21012200F02AFA1420FFF7DF
:1009400015FD01201B21002200F022FAC820FFF72C
:100950000DFD7E4B181C012101F0B0F901F0BEF82D
:10096000FA235B00181CFFF701FD794B181C0121CD
:1009700001F0A4F9FA235B00181CFFF7F7FC002331
:100980007B600AE0734B181C012101F097F9642089
:10099000FFF7ECFC7B6801337B607B680C2BF1DD9F
:1009A0006D4B181C012101F089F96C4B181C0121B9
:1009B00001F084F9FA235B00181CFFF7D7FC684BA1
:1009C000181C012101F07AF996235B00181CFFF72F
:1009D000CDFC644B181C012101F070F9FA20FFF7DF
:1009E000C5FC2420252100F0E7FCE1235B02181C54
:1009F00000F038FD5C4B181C00F08CFDFA20FFF76E
:100A0000B5FC594B181C00F085FD554B181C0121F5
:100A100001F054F996235B00181CFFF7A7FC534B19
:100A2000181C012101F04AF9FA235B00181CFFF79A
:100A30009DFC4B4B181C012101F040F996235B00F3
:100A4000181CFFF793FC444B181C012101F036F9E8
:100A5000474B181C002101F031F9464B09200521B4
:100A60001A1C01F0B7F800237B600CE0424B181C05
:100A7000012101F023F9AF239B00181CFFF776FC3E
:100A80007B6801337B607B68032BEFDDFA235B001F
:100A9000181CFFF76BFC00F093FD01F01FF8FA2320
:100AA0009B00181CFFF762FC0020002101F0ECF80D
:100AB000324B181C012101F001F9FA239B00181C8C
:100AC000FFF754FC2E4B181C012101F0F7F8224BC4
:100AD000181C002101F0F2F82A4B181C012101F02A
:100AE000EDF8FA235B00181CFFF740FC264B181C9E
:100AF000012101F0E3F8FA239B00181CFFF736FCF4
:100B0000224B002005211A1C01F064F800F0E6FFDA
:100B10001F4B012005211A1C01F05CF800F0DEFFDC
:100B2000FA235B00181CFFF721FC1A4B012005215A
:100B30001A1C01F04FF800F0D1FFFA235B00181CDB
:100B4000FFF714FCE4E7C046E703000004340000AC
:100B50001434000024340000283400002C34000039
:100B60003834000040340000543400006034000089
:100B700078340000803400008434000088340000A1
:100B800094340000A0340000B0340000C4340000ED
:100B9000C8340000CC34000080B596B000AFFFF739
:100BA000CDFD00237B6500233B657B6D01337B65B9
:100BB0007B6D012B04DD00237B653B6D01333B65C1
:100BC000FA20FFF7D3FB01201B21002200F0E0F800
:100BD000FA20FFF7CBFB01201B21012200F0D8F8FF
:100BE0002823FA18414B101C191C01F031FA3B6DF7
:100BF000013301D100233B653B6D3D4A934206D84A
:100C00002823FA183B4B101C191C01F014FA3B6DF9
:100C1000394A934206D82823FA18364B101C191C5F
:100C200001F009FA3B6D354A934206D82823FA1899
:100C3000304B101C191C01F0FEF93B6D304A9342F9
:100C400006D82823FA182B4B101C191C01F0F3F9B5
:100C50003B6D2C4A934206D82823FA18254B101CCA
:100C6000191C01F0E8F93B6D274A934206D8282366
:100C7000FA18204B101C191C01F0DDF93B6D234ABA
:100C8000934206D82823FA181A4B101C191C01F09D
:100C9000D2F93B6D632B06D82823FA18154B101C8C
:100CA000191C01F0C8F93B6D092B06D82823FA1846
:100CB000104B101C191C01F0BEF93A6D3B1C101CA6
:100CC000191C0A2201F052F92823FA183B1C101CA7
:100CD000191C01F0B0F92823FB18022000211A1C6E
:100CE00000F078FF00F0FAFE5FE7C046D434000061
:100CF000FFC99A3B74330000FFE0F5057F9698002A
:100D00003F420F009F8601000F270000E70300000D
:100D100080B584B000AFF860B9607A607B68002B62
:100D200017D0A023DB05A022D205F968802000019E
:100D30008446614489008A58B96801208840011CB2
:100D40001143FA6880200001844662449200D15029
:100D500019E0A023DB05A022D205F968802000015C
:100D60008446614489008A58B96801208840011C82
:100D7000FF200140C9431140FA68802000018446E9
:100D800062449200D150C046BD4604B080BDC0460A
:100D900080B584B000AFF860B9607A607B68012BE1
:100DA00031D87B68002B17D0A023DB05A022D20509
:100DB000F968882000018446614489008A58B9682E
:100DC00001208840011C1143FA68882000018446F4
:100DD00062449200D15016E0A023DB05A022D20588
:100DE000F9688A2000018446614489008A58B968FC
:100DF00001208840011C1143FA688A2000018446C2
:100E000062449200D150C046BD4604B080BDC04689
:100E100080B582B000AF78607B681E3B0C2B6DD82C
:100E20009A00384BD3181B689F46374B364AD26A14
:100E300007218A43DA62344B334AD26A80210A435B
:100E4000DA625AE0304B304A126B07218A431A6348
:100E50002D4B2D4A126B80210A431A634DE02A4B19
:100E6000294A526B07218A435A63274B264A526B01
:100E700080210A435A6340E0234B234A926B0721A7
:100E80008A439A63204B204A926B80210A439A63DB
:100E900033E01D4B1C4AD26B07218A43DA631A4B9D
:100EA000194AD26B80210A43DA6326E0164B164AB0
:100EB000126C07218A431A64134B134A126C802167
:100EC0000A431A6419E0104B0F4A926D07218A43B6
:100ED0009A650D4B0C4A926D80210A439A650CE08D
:100EE000094B094AD26D07218A43DA65064B064A47
:100EF000D26D80210A43DA65C046C046C046BD4671
:100F000002B080BDDC3A00000040044080B582B0F1
:100F100000AF78607B68181CFFF77AFF7B681E3B88
:100F20000C2B6DD89A00384BD3181B689F46374B53
:100F3000364AD26A02210A43DA62344B334AD26A11
:100F400080218A43DA625AE0304B304A126B022128
:100F50000A431A632D4B2D4A126B80218A431A6370
:100F60004DE02A4B294A526B02210A435A63274B10
:100F7000264A526B80218A435A6340E0234B234A1E
:100F8000926B02210A439A63204B204A926B802184
:100F90008A439A6333E01D4B1C4AD26B02210A43F9
:100FA000DA631A4B194AD26B80218A43DA6326E04E
:100FB000164B164A126C01210A431A64134B134A4A
:100FC000126C80218A431A6419E0104B0F4A926D0B
:100FD00001210A439A650D4B0C4A926D80218A4388
:100FE0009A650CE0094B094AD26D01210A43DA6582
:100FF000064B064AD26D80218A43DA65C046C04658
:10100000C046BD4602B080BD103B00000040044019
:10101000B0B582B000AF051C0C1C101C191CFB1DC8
:101020002A1C1A70BB1D221C1A707B1D021C1A7010
:101030003B1D0A1C1A70274B264A1268F91D0978B5
:1010400001208840011C0A431A60224B214A126881
:1010500021490A401A601F4B1E4A1268791D0978FF
:1010600009020A431A601B4B1A4A12681B490A40BC
:101070001A603B1D3A1D12780A218A1A1A70154B04
:10108000144A1268391D097849040A431A60BB1DC5
:101090001B78002B13D00F4B0E4A126810490A40E0
:1010A0001A600C4B0B4AD2680E490A40DA60094BB1
:1010B000084A1268802149020A431A6005E0054B7C
:1010C000044A126808490A401A60C046BD4602B088
:1010D000B0BDC04600C00140FF00FFFFFFFFF1FFB1
:1010E000FFFFFFF8FFFEFFFFFFFFFEFF80B584B0AC
:1010F00000AFF860B9607A603B60FB68002B00D1FC
:10110000FEE7FB68012B40D1BB68112B06D1214BB8
:10111000204A526D02210A435A650AE0BB68262B19
:1011200007D11C491B4AB823D35802221343B822C3
:101130008B507B681E2B06D1164B164A926D0221EE
:101140000A439A650AE07B681A2B07D11149114AB4
:10115000B423D35802221343B4228B503B682B2B69
:1011600008D10C490B4A9C23D358032213439C22D9
:101170008B500AE03B680D2B07D10649054AB02386
:10118000D35802221343B0228B50C046BD4604B050
:1011900080BDC0460040044080B586B000AFF86016
:1011A000B9607A603B6000237B61BB68013BBB6038
:1011B000BB68022B01DC0323BB60BB680F2213401A
:1011C000BB607B68032B01D100237B607B6803221B
:1011D00013407B603B68012213403B603B6A012265
:1011E00013403B627B6AFF2213407B627B681A01DB
:1011F000BB681A433B689B011A433B6ADB011A43F5
:101200007B6A1B0213437B61FB68002B03D11D4BE0
:101210007A691A6005E0FB68012B02D11A4B7A69E2
:101220001A6000237B61BB6A9B007B61FB68002B1B
:1012300008D1144B7A695A60124B7A6902210A4329
:101240005A600AE0FB68012B07D10F4B7A695A609C
:101250000D4B7A6902210A435A60FB6AFE22134051
:10126000FB62FB68002B03D1064BFA6A1A6105E0AA
:10127000FB68012B02D1044BFA6A1A61C046BD46D5
:1012800006B080BD000004400080054080B582B0FB
:1012900000AF786039607B68002B0FD1C046124BDD
:1012A000DB6802221340FAD00F4B3A689A60C046BE
:1012B0000D4BDB6810221340FAD112E07B68012B42
:1012C0000ED1C046094BDB6802221340FAD0074B0F
:1012D0003A689A60C046054BDB6810221340FAD189
:1012E000C046BD4602B080BD0000044000800540FD
:1012F00080B582B000AF021CFB1D1A70064BFA1DB0
:101300001278111C1F220A40012191400A1C1A6008
:10131000BD4602B080BDC04600E100E080B582B0AD
:1013200000AF78607B682F2B06D1224B214AD26C0C
:1013300007218A43DA6438E07B680C2B08D11D4909
:101340001C4ACC23D35807229343CC228B502CE049
:101350007B68242B08D11749164A9423D3580722B7
:10136000934394228B5020E07B682E2B06D1114BA7
:10137000104A926C07218A439A6416E07B680B2B13
:1013800008D10C490B4AC823D35807229343C822DB
:101390008B500AE07B68252B07D10649054A982324
:1013A000D3580722934398228B50C046BD4602B0C3
:1013B00080BDC0460040044080B582B000AF786078
:1013C00039607B68181CFFF7A9FF3B68181CFFF702
:1013D000A5FF7B682F2B06D1214B214AD26C01211E
:1013E0000A43DA6416E07B680C2B08D11C491C4ABE
:1013F000CC23D35802221343CC228B500AE07B68C3
:10140000242B07D11649164A9423D3580322134399
:1014100094228B503B682E2B06D1114B104A926CB4
:1014200001210A439A6416E03B680B2B08D10C4952
:101430000B4AC823D35802221343C8228B500AE018
:101440003B68252B07D10649054A9823D358032228
:10145000134398228B50C046BD4602B080BDC046A3
:101460000040044080B584B000AF78602649264A29
:101470008023D35880225201134380228B50224A6A
:1014800098230121D150204B9A6F204B1B68534366
:10149000191C1D4A9823D3587A6853431B01081C12
:1014A000191C01F0CEF9031CFB60FA68131C5B01E8
:1014B0009B1A9B009B181433DB09FB60144BC12261
:1014C0009A62134B8322DA60114BFA68120A5A604F
:1014D0000F4BFA68FF210A401A600D4B0322DA60B5
:1014E0000B4B07229A600A4B04225A60084B084AA9
:1014F0009268C0210A439A601520FFF7F9FE012384
:10150000181CBD4604B080BD0080044000000010DF
:101510000080004080B584B000AF78600023FB609D
:101520000EE0C0460C4B5B6920221340FAD00A4BF8
:10153000FA6879688A1812781A60FB680133FB60D0
:10154000FB687A68D3181B78002BEAD10123181C9A
:10155000BD4604B080BDC0460080004080B500AFED
:1015600001201C210022FFF713FC01201C21012275
:10157000FFF70EFCC046BD4680BDC04680B582B0B8
:1015800000AF002000F0BCF8002000F0C9F80023F4
:101590007B600EE000233B6005E0002000F08CF84B
:1015A0003B6801333B603B68052BF6DD7B6801330C
:1015B0007B607B68532BEDDDC046BD4602B080BD2D
:1015C00080B582B000AF00237B6016E000233B6053
:1015D0000DE00D497A68131C5B009B185B003A68AC
:1015E0009B189B0000225A503B6801333B603B68CC
:1015F000052BEEDD7B6801337B607B68532BE5DDDB
:10160000C046BD4602B080BD0C00001080B500AFE2
:1016100001201C210122FFF77BFB01201D2101225B
:10162000FFF776FB01201F210122FFF771FB01204C
:1016300016210122FFF76CFB012014210122FFF784
:1016400067FB01201D210122FFF7A2FB01201421CD
:101650000022FFF79DFBFFF781FF212000F03EF8FD
:10166000902000F03BF8202000F038F8092000F02E
:1016700035F80D2000F032F80C2000F02FF8FFF7BD
:101680007DFFC046BD4680BD80B582B000AF7860AA
:1016900001201D210022FFF77BFB7B680120191C24
:1016A000FFF7F4FD01201D210122FFF771FBC04669
:1016B000BD4602B080BDC04680B582B000AF786044
:1016C00001201F210122FFF763FB7B68181CFFF735
:1016D000DBFFC046BD4602B080BDC04680B582B0CB
:1016E00000AF786001201F210022FFF751FB7B68CB
:1016F000181CFFF7C9FFC046BD4602B080BDC046FA
:1017000080B582B000AF78607B68802213437B6035
:101710007B68181CFFF7E2FFC046BD4602B080BDE3
:1017200080B582B000AF78607B68472213407B6051
:101730007B68402213437B607B68181CFFF7CEFF59
:10174000C046BD4602B080BD80B586B000AFF8602F
:10175000B9607A6000237B61BB68072B0BDDBB6837
:101760003B6105E03B69083B3B617B6901337B6181
:101770003B69072BF6DC7A69131C5B079B1ADB00BD
:101780001A1CBB689B18BB607B68002B1AD01D49D4
:10179000FA68131C5B009B185B007A699B189B001E
:1017A0005A580121BB6899400B1C1A43101C15495B
:1017B000FA68131C5B009B185B007A699B189B00FE
:1017C00058501AE00F49FA68131C5B009B185B0025
:1017D0007A699B189B005B580121BA6891400A1CEA
:1017E000D2431A40101C0749FA68131C5B009B186F
:1017F0005B007A699B189B005850C046BD4606B0F6
:1018000080BDC0460C000010F0B58BB000AF786111
:101810003961FA60BB6097E0786901F090FB051CC4
:101820000E1CB86801F08BFB031C0C1C181C211C3F
:101830004A4A4B4B01F040F8031C0C1C181C211C9D
:101840000022484B01F0F4F8031C0C1C181C211C4E
:1018500000F0D4FB38607960F86801F070FB031C7D
:101860000C1C386879681A1C231C01F025F8031C2D
:101870000C1C181C211C00223B4B01F01DF8031C02
:101880000C1C181C211C0022384B01F0D1F8031C41
:101890000C1C281C311C1A1C231C01F071F9031CA0
:1018A0000C1C3B627C62386901F049FB051C0E1C74
:1018B000B86801F044FB031C0C1C181C211C274AAF
:1018C000274B00F0F9FF031C0C1C181C211C0022E4
:1018D000244B01F0ADF8031C0C1C181C211C00F05B
:1018E000C3FA38607960F86801F029FB031C0C1C0E
:1018F000386879681A1C231C00F0DEFF031C0C1CDE
:10190000281C311C1A1C231C01F03AF9031C0C1C66
:10191000BB61FC61386A796A01F0BEFA041CB869DF
:10192000F96901F0B9FA021C7B6C201C111C1A1C0D
:10193000FFF70AFFBB680133BB60BA68B4235B00E2
:101940009A4201DD0023BB60BA683B6C9A4200D02A
:1019500062E7C046BD460BB0F0BDC0461F85EB51E7
:10196000B81E0940008066400000204000001C4076
:10197000F0B58DB000AF78613961FA60BB60FA688C
:10198000BB689A4205DDFB68FB62BB68FB60FB6AD3
:10199000BB6090E0786901F0D2FA051C0E1CB86CAF
:1019A00001F0CDFA031C0C1C181C211C464A474BA5
:1019B00000F082FF031C0C1C181C211C0022444B4D
:1019C00001F036F8031C0C1C181C211C00F016FB3F
:1019D00038607960F86801F0B2FA031C0C1C3868B2
:1019E00079681A1C231C00F067FF031C0C1C181CD0
:1019F000211C0022374B00F05FFF031C0C1C181C3D
:101A0000211C0022344B01F013F8031C0C1C281C71
:101A1000311C1A1C231C01F0B3F8031C0C1C3B6284
:101A20007C62386901F08BFA051C0E1CB86C01F061
:101A300086FA031C0C1C181C211C234A234B00F0A3
:101A40003BFF031C0C1C181C211C0022204B00F027
:101A5000EFFF031C0C1C181C211C00F005FA386059
:101A60007960F86801F06BFA031C0C1C386879681F
:101A70001A1C231C00F020FF031C0C1C281C311C0A
:101A80001A1C231C01F07CF8031C0C1CBB61FC61BC
:101A9000386A796A01F000FA041CB869F96901F042
:101AA000FBF9021CFB6C201C111C1A1CFFF74CFEDE
:101AB000FB680133FB60FA68BB689A4200DC69E7A7
:101AC000C046BD460DB0F0BD1F85EB51B81E0940A4
:101AD000008066400000204000001C4080B582B0BD
:101AE00000AF0020FFF70CFE0020FFF719FE0023D7
:101AF0003B6020E000237B600FE012497A68131CF2
:101B00005B009B185B003A689B189B005B58181C95
:101B1000FFF7D2FD7B6801337B607B68532BECDDE4
:101B20000020FFF7EDFD3B680133181CFFF7F8FDBF
:101B30003B6801333B603B68062BDBDDC046BD469E
:101B400002B080BD0C00001080B584B000AF78609A
:101B50000023BB6021E00023FB6017E0BB68581C3A
:101B60001B49FA68131C5B009B185B001B189B0049
:101B700058581749FA68131C5B009B185B00BA6839
:101B80009B189B005850FB680133FB60FB68522B8D
:101B9000E4DDBA687B68D318BB60BB68042BDADD70
:101BA0000023FB600DE00A49FA68131C5B009B18D8
:101BB0005B00BA689B189B0000225A50FB680133F7
:101BC000FB60FB68522BEEDDBD4604B080BDC04615
:101BD0000C00001080B588B000AFF860B9607A6082
:101BE0000023FB610023BB611723FB18FA681A70FE
:101BF0003BE0BB68062B00DD3EE0FA68FB69D218CB
:101C0000131C5B009B185B001A1CBB69D318542B78
:101C100000DD31E0FA68FB69D218131C5B009B18E9
:101C20005B001A1CBB69D218FB697968CB181B785A
:101C3000191C0B1C9B005918BB69CB181049CB5CB5
:101C4000181C1049131C5B009B185B00BA689B189A
:101C50009B005850BB690133BB61BB69042B04DD99
:101C6000FB690133FB610023BB61FB697A68D31810
:101C70001B78002BBDD1C046BD4608B080BDC04614
:101C8000443B00000C00001080B582B000AF021C85
:101C9000FB1D1A70BB1D0A1C1A70064BBA1D127868
:101CA0001A70054BFA1D12781A70C046BD4602B074
:101CB00080BDC046040000100500001080B584B04F
:101CC00000AF78600A1CFB1C1A700F23FB1800225F
:101CD0001A700C23FB1800225A707B68181C00F045
:101CE000D9F9021C0E23FB181A7062E00F23FB18AF
:101CF0001B787A68D3181B780A2B10D1334B1B78CA
:101D00000133DAB2314B1A70304B1B78052B43D9B3
:101D10000120FFF719FF2D4B05221A703CE00F231D
:101D2000FB181B787A68D3181B780D2B03D1284B2E
:101D300000221A7030E00F23FB181B787A68D31842
:101D40001A780C23FB181A70214B1B78191C1F4B97
:101D50001B781A1C0C23FB18081C111C1A1CFFF7FB
:101D600039FF1B4B1B780133DAB2194B1A70184B31
:101D70001B780D2B10D9154B1B78042B06D8134B51
:101D80001B780133DAB2114B1A7002E00120FFF721
:101D9000DBFE0F4B00221A700F23FB181A780F235B
:101DA000FB1801321A70FB1C1B78002B01D0FFF7C7
:101DB00095FE0F23FA180E23FB1812781B789A420F
:101DC00094D3C046BD4604B080BDC0460400001098
:101DD000050000108E2120201C4B89005A5882B02B
:101DE00082435A5000221A620192019AC72A03D8EC
:101DF000C046019A0132F7E7012200211A645A64B1
:101E000059645A640121586C104A0842FAD00020E3
:101E100010675167506751670121586F0B4A08429C
:101E2000FAD08E23802091679B00D158C0000143D7
:101E30008020D150D15840000143D1508021044A24
:101E40004902D36F0B43D36702B070470080044050
:101E500004800440002008B5011C021C00F032F888
:101E6000FEF7ACFB08BD000073B500220023051C83
:101E70000C1C01F06FF8002810D080231B06E61818
:101E80002A1C231C0D480E4900F07AFE0B1C012170
:101E9000021C00910191281C311C0CE0074A084BE0
:101EA000281C211C00F058FF0B1C0121021C009172
:101EB0000191281C211C00F0A3F97CBD182D44546D
:101EC000FB21F93FA02238B5224C00215200201CF2
:101ED00000F00AF9C02000F03DFB1F4D0021C02298
:101EE000286000F001F900232868282218215A43AD
:101EF0005943A218411801335162082BF5D1221C15
:101F00001649002000F016F980228023201C5B0176
:101F10000021D20000F04EF8114D124C291C221C59
:101F2000012000F007F980228023201C5B010021A2
:101F3000D20000F03FF80C4C291C221C022000F0BB
:101F4000F9F880228023201C0021D2005B0100F0E0
:101F500031F838BDF0070010EC07001044400000D5
:101F6000464000001808001040080010F7B50B1C90
:101F7000061C0F1C0D1C0192301C01991C1C00F04A
:101F800060FC019B4343F61A094B9B5D061C2370C2
:101F9000631C0028F0D16070A54206D223782A780D
:101FA000013C62702B700135F6E7381CFEBDC0465F
:101FB00048400000F0B5C5680124AE071AD080265D
:101FC000B600B2420BD08026F600B24204D0802682
:101FD0007600B2420ED102E0416A231C04E0064EB4
:101FE0005F1E0124B74205D800241543016101603A
:101FF000C361C560201CF0BDFEFFFF0037B50023A4
:102000000022051C0C1C00F0A5FF002808D080232E
:102010001B06E41801235B4200930023019302E0B6
:10202000012301900093281C211C2A1C231C00F072
:10203000E7F803B030BD021C10B51378002B01D0B7
:102040000132FAE7CC5CD4540133002CFAD110BD34
:10205000031C0B4330B59B0711D1031C0A680B4CC2
:102060000B4D141994432C4202D104C30431F5E7FB
:10207000D1B219700133002907D01212F8E70023FA
:10208000CA5CC2540133002AFAD130BDFFFEFEFE05
:102090008080808010B5431C820706D00130421E2C
:1020A0001278002AF8D1C01A18E002680C490D4CC9
:1020B00051189143214201D10430F6E7D4B2411CBA
:1020C000002C0AD0FF242402811C224205D0FF24C8
:1020D0002404C11C224200D0011DC81A10BDC046F4
:1020E000FFFEFEFE8080808008B500F0AAFF08BDDC
:1020F000202310B5041CC2689A43436AE2605B68FF
:1021000082699A420DD000F049F8E268074B13400B
:1021100010221343626AE3605368A36123699360EA
:102120002360E268024B1340E36010BDEFCFFFFF76
:10213000BFBFFFFF70B50D1C061C101C141C00F067
:102140002BFA2B78722B09D0772B04D0612B20D15E
:102150000823114A04E00423022201E000230122A3
:10216000013529782B2905D0622908D104210A4399
:10217000033902E003210A4301390B43F0E7E2602F
:1021800066611B0706D5201C0021022200F056FACA
:1021900000E00024201C70BD0280000038B5436AB6
:1021A000C2689968144B05691340C36082230468B0
:1021B0001340022B02D001235B421BE080235B0211
:1021C000134017D0A14200D2211C041CA94209D1FE
:1021D000636AE1689D600023084A25600A40A360A5
:1021E000E26007E0491B281C221C00F0FFF80028D1
:1021F000EED0E0E7181C38BDFFFFF7FFFFFFFEFF42
:10220000F7B5041C0D1C161C1F1C101C191C0022E9
:102210005A4B00F0CDFE00280CD02122584B1A60FA
:10222000802212069446574B1C685B6801936344F6
:10223000191CA0E0301C391C534A544B00F08CFD93
:10224000534B514A00F0F4FB00F026FE019000F0E1
:1022500076FE019B061C0F1CDB0702D5089B5B4228
:102260000893099B002B07D0301C391C0022494BD6
:1022700000F086FC061C0F1C0022474B301C391C4A
:1022800000F01AFB021C0B1C201C291C00F078FC1F
:10229000424A041C0D1C424B301C391C00F00CFB44
:1022A000021C0B1C201C291C00F056FD041C0D1CDC
:1022B000201C291C00F05EF93A4A3B4B00F078FEE6
:1022C000002851D0221C2B1C201C291C00F0F4FAE1
:1022D000061C0F1C354A364B00F0EEFA354A364BD9
:1022E00000F04EFC321C3B1C00F0E6FA334A344B43
:1022F00000F032FD321C3B1C00F0DEFA314A324B5A
:1023000000F03EFC321C3B1C00F0D6FA2F4A304B4A
:1023100000F022FD321C3B1C00F0CEFA2D4A2E4B61
:1023200000F02EFC321C3B1C00F0C6FA2B4A2C4B52
:1023300000F012FD321C3B1C00F0BEFA294A2A4B69
:1023400000F01EFC321C3B1C00F0B6FA021C0B1CF9
:10235000201C291C00F0B0FA021C0B1C201C291C9C
:1023600000F0FAFC041C0D1C089B291C002B02DA4F
:1023700080231B06E918201C03B0F0BD65CDCD41BC
:102380000800001078400000182D4454FB21F93F4C
:10239000FB2109400000E03F002209409EE59E4BE2
:1023A000EFAEE23EBBBDD7D9DF7CDB3D95DF936965
:1023B000FF80E83C9C4908DC20E46A3D30D46A6830
:1023C0003C12E63DABC05D4B45E65A3E63F024A5AA
:1023D000E31DC73E1A3E011AA0012A3FB010111199
:1023E0001111813F555555555555C53FF7B5D6681F
:1023F00001900D1C141C5769F30205D51023381CDD
:102400001E4300F03FFEA061114B1E4209D0381C54
:10241000A16900F049FE8023002811DB0D4B1E400E
:10242000E6602A1C381C019900F04AFE43005B0854
:10243000ED1AA3695D190023A561984205D0803388
:10244000E2681343E36001235B42181CFEBDC046F3
:1024500010000200EFFFFDFFF7B5314EC51C3468D8
:10246000AD080196002813D08022291CEB1C002700
:1024700052050A319C4604E02368934213D0271C7E
:10248000A468002CF8D10C3000F088F9431C0FD15F
:10249000002043E03E68964217D17E689B190333C3
:1024A0006360BB68A360A7686368002FF2D10CE08B
:1024B00080239B05036045608460002F02D1019B4F
:1024C000186000E0B8600C3028E0AB4205DB9C45AA
:1024D00003DB80239B0523601EE08B4210D9802202
:1024E000201C8021920522600C30AA005B1B821800
:1024F0004905033B6560A2601160536097600DE081
:10250000002FBCD19B00C01A00F048F9431CBFD07B
:1025100080239B0523606560201CD4E7FEBDC04678
:102520003009001010B5002812D080235B05191C5B
:102530000C3803608268002A0AD013688B4207D1E6
:10254000546843681B190333436093688360F1E761
:1025500010BD000010B5FFF77FFF041E05D1044930
:10256000172200F0ADFD00F081FD201C10BDC0461B
:102570005940000038B50C1C051C0023281C211CE8
:10258000002200F0E7FC80231B06E318002800D19E
:10259000231C281C191C38BDF0B5436AC5688BB0D4
:1025A000476906690193AB0727D0041C2B0716D493
:1025B00000F02AF8381C00F05FFD2B0502D5301C16
:1025C000FFF7B0FF0F4BAD0DAD059D4207D102A83F
:1025D000216A202200F06EFD02A800F0D5F800214B
:1025E0001822606AFFF780FD201C00212822FFF7D7
:1025F0007BFD019B0020636201E0012040420BB0A3
:10260000F0BDC046000080AD38B5002803D000F012
:10261000E5F8051C0EE0041C051C0748201800F016
:10262000DDF8002801D001256D42A02328345B008D
:102630009C42F2D1281C38BDF0070010F7B5C368E2
:10264000161C0093009A3B4B041C0D1C47691A4250
:102650006BD0381C00F01CFD0190002865D1012EC4
:1026600004D0022E07D0002E5FD124E0201C00F001
:1026700065F82D181FE0381C00F004FD002805DA6D
:102680008023E2681343E36001234FE0626A21681C
:102690009368994200D90B1CA1695B1821695B1AE8
:1026A000E168890603D55268934200DA131C83421D
:1026B00000DA031CED18002D37DB009B616A9B04D8
:1026C00004D523688A689A4200D28B60A3699D4230
:1026D0000DDB20688A68824200D2021C2069D6186D
:1026E000361AB54203DCCF68DE19B54207DB20237A
:1026F000009A13430022A26062604D6011E0ED1A5F
:10270000009B9B0701D5EF1BA760009BDB0702D551
:10271000821AAA1862602023009A45199A43131C52
:102720002560054A1340E36001E00223019301980C
:10273000FEBDC04603001000BFCFF7FFC3689A0775
:1027400005D1212201200F4B40421A6018E02022BF
:1027500019030BD5134202D0436A586804E003689A
:10276000826900699B18181A013809E0134202D0E7
:10277000436A586804E00368826900699B18181A64
:102780007047C0460800001010B5041CFFF782FC1B
:10279000011C201C00F082FC10BD000070B50C4D27
:1027A0002B68002B01D10B4B2B600323C41C2E681C
:1027B0009C433419201C00F037F8002802D12C600B
:1027C000301C04E00C220120034B40421A6070BD13
:1027D0003409001038090010080000100323C268F3
:1027E00070B51340041C181E1AD0930605D5636AF1
:1027F000201C5E68FFF77CFC04E02368A2699E1839
:102800002369F61AE268074B201C1340E360FFF7C8
:10281000C5FC051C311C201C0022FFF70FFF281CE3
:1028200070BDC046FFCFFFFF034B021C181E02D035
:1028300000209A42404170470000000003000B4313
:1028400021D4002931D00122D207030901E0090176
:1028500012099942FBD9430801E049005208994204
:10286000FBD900E04908401A07D35241FAD3014688
:102870001046704749084018F7D29218FAD340180A
:10288000014610467047CB0F00D04942021000D5D8
:102890004042534008B5FFF7D4FF0CBC521000D3A0
:1028A0004042002A00D549421847F446002000F073
:1028B00001F8604770470000F0B5071C081C4D0088
:1028C00087B06D0D5840002D7DD0504CA5427AD078
:1028D0005E00760D77D0A64275D0141C7219802543
:1028E00009038026090B6D030D430021C00F0192DF
:1028F000C2070092DB02620D134336061E432A1CF8
:10290000301C0B1C00F086FB029003910021E402B6
:10291000221C281C0B1C00F07DFB059100213A1C99
:1029200004900B1C301C00F075FB0E1C00213A1C9F
:10293000051C0B1C201C00F06DFB8446081C0021AC
:102940000B1C049A0F1C12184B41521973411E1C88
:102950000B1C02980399141C059A92197B411218BA
:102960004B416146880804430199294809182948C0
:1029700098420CD3161C1F1CB6185F4126483B1CFE
:102980008446E00F3043021C019964006144002733
:10299000E60F92197B418020151C0006844201D16C
:1029A000012085431D48814205D80A050099281C4D
:1029B0001943511827E0009B002902DB184B009AAD
:1029C000134300201EE0C20F1648D207490081427F
:1029D00005D85C00844205D80020111C13E0124881
:1029E000814203D110485B00834201D9002005E0F9
:1029F000490D0020002901D05B0D01D10B4902E0F7
:102A0000074B1343191C07B0F0BDC046FF07000079
:102A100001FCFFFFFFFF0F0000FCFFFFFD070000B0
:102A20000000F07FFFFFDFFF0000E0FF0000F87F05
:102A3000F7B54F007D0D66D04A4CA446A54262D042
:102A40005F007C0D5FD064455DD02F1B0C1C5C408B
:102A50000194C902440D214380242406A446C402E3
:102A6000604608436146051CDB02500D03430B43DF
:102A7000D202AB4202D803D1A24201D93A4908E0BE
:102A8000E9078C46664660080643341C69080D1C3D
:102A9000364950087F18D9070843352259080023C2
:102AA0005B00A94206D801D1A04203D80126241A0E
:102AB0008D41334324196D41561E212A02D10093C2
:102AC000321CEDE7321EEBD1009A94461A1CA94243
:102AD00008D801D1A04205D85A1C002A02D1009B77
:102AE00001339C46019B2249DB0FDB078F4203D851
:102AF0003F05FB1863441CE01A1C002F01DB1D4A34
:102B00001A43002023E01C4D4C00AC4226D858004C
:102B1000A84223D81A1C0A435200520D520502D172
:102B20001649101C1CE04B40DB0F620DDB07520501
:102B300001D1191CF5E7420D520503D10D4C1C4380
:102B4000211CEEE7A84204D000200A4A1A43111CB7
:102B500006E0844202D00020191C01E00020074951
:102B600003B0F0BDFF070000FD030000FE030000FE
:102B7000FD0700000000F07F0000E0FF0000F87F8C
:102B8000F7B51E1C0D1C01920F1C111C321C6A4053
:102B9000041C9446002A07DA802424060A1C3319F0
:102BA000291C00F0D9F8CBE09D4203D388420DD810
:102BB0009D420BD18023019A1B0650406344424042
:102BC0005D4050402F1C111C041C73405D4A5E4840
:102BD0003E0D1D0D751B3240824200D1A3E095428F
:102BE00000D19AE080203A031B034003120B1B0B19
:102BF000024303431F2D51D8181CE8402027121A06
:102C0000081CE8407D1BAB400343E71ABC42A441CB
:102C10000B1C6442121BAB403C1C002B05D0013C3A
:102C2000611C484241415B42521AC02149030A4299
:102C300053D1E10FDB0F640023431C1C52000A43F5
:102C40001443B11E002C01D1211C78E0500B05D19A
:102C5000180E120202431B020839F7E7500C04D188
:102C6000180F120102431B010439D00C04D1980F34
:102C7000920002439B000239100D04D1D80F52007C
:102C800002435B000139F60AC80A864203D10C05EB
:102C9000A118181C54E00020F10751E0352D1CD874
:102CA000281C1F1C2038C740E71BBC42A4416442BB
:102CB000121B4024651B0C1CAB40C4400906234377
:102CC000002902D0FF210B4302E03C1C002B04D062
:102CD0007C1E794279415B42521AD1020CD4013EEA
:102CE000750507D0E10F52000A436400D90F0C4369
:102CF0005B0001E031051FE0144936050A40002B56
:102D000009DA0134614261415218802109068B427F
:102D100001D101239C43911911E00D4B9D4202D832
:102D2000291E09D00AE03B030020002B01D00949ED
:102D300006E0002D02D10749281C01E0391C201CA7
:102D400003B0F0BDFFF7FFFFFF070000FFFFEFFF3D
:102D5000FE0700000000F87FF7B5161C0190041C68
:102D6000181C0D1C1A1C371C484007D580252D0641
:102D700001985B19321CFFF703FF81E0994209D2E9
:102D8000051C021C01984D40704046407040371CA5
:102D9000041C5A403B4B3C48290D0B40834267D0F2
:102DA000160D8E1B9E425AD080202B031203400327
:102DB0001B0B120B034302431F2E10D8101CF040B4
:102DC00020251B18381CF040AE1BB2400243A4184B
:102DD0009442924152429B183A1CB24015E0352E63
:102DE00013D8351C101C203DE84024188442804133
:102DF00040421B184020861B381CB240E8403F066A
:102E00000243002F01D0FF200243980217D501345E
:102E1000604260411B18002A01D102329443080528
:102E20005A08121819485500854204D86408DB076F
:102E3000111C1C4323E04B1C0020190520E0013924
:102E4000002A09DA0134604260411B188020000624
:102E5000824201D1012294430A0599180FE00C4BDC
:102E60009E4205D8002E09D1ED0FE907301C07E07E
:102E70002B030020002B01D0064901E0291C201C57
:102E800003B0F0BDFFF7FFFFFF070000FFFFDFFF0C
:102E9000FE0700000000F87F400D031C8020CA02DE
:102EA0001343000618430B4B0A0D9B1AD840FF2B07
:102EB0000ED9E022D2004042134209D000204B003C
:102EC00006D5054B4A009A4202D8044BC90FC818D0
:102ED0007047C0461E0400000000E0FFFFFFFF7FB8
:102EE00010B5002802D1031C021C25E0030C01D1FF
:102EF000000402E080235B04C918030E01D1000224
:102F000002E080231B04C918030F01D1000102E075
:102F10008023DB03C918830F01D1800002E08023E6
:102F20009B03C918002801DB400002E080235B03FB
:102F3000C918C41263184205101C191C10BDC10F1A
:102F400008B5C90700D040428023DB05C918FFF748
:102F5000C7FF08BDF0B50C1C0E1C1D1C1C43134FF5
:102F60000CD45B000024BB421ED801348D421BD818
:102F70000024904280418D4216D114E04900002483
:102F8000B94211D85B00BB420ED80143A14202D125
:102F90001343A34208D00124AE4205D80024AE4218
:102FA00002D1824280414442201CF0BD0000E0FF7B
:102FB000F7B5041C0090081C1843019014480D1C20
:102FC000844601981E1C490000280BDB0020614547
:102FD0001CD801309D4219D800209D4216D1944240
:102FE000404113E00020614510D85B0063450DD8D7
:102FF0000130AE420AD802D1009DAA4206D200207A
:103000002143814202D1134358425841FEBDC0467C
:103010000000E0FF10B543435143C918040C130CE2
:103020005C43091992B2040C544380B243435043A9
:103030002204240C801861411A041B0C8018594189
:1030400010BD8446043A09D3830707D109060B0A49
:1030500019430B0C1943043A02C0FCD2043203D0CA
:1030600001700130013AFBD16046704718200149D8
:10307000ABBE70472600020003B469460220ABBE17
:1030800002B0704703B469460C20ABBE02B0704773
:1030900003B469460920ABBE02B0704703B4694669
:1030A0000E20ABBE02B0704703B469460A20ABBE27
:1030B00002B070470FB469460D20ABBE04B0704734
:1030C0000FB469460520ABBE04B070475278526F0A
:1030D0007574696E6520697320676F210A0D0000A1
:1030E0005278204649464F20656D707479202D2016
:1030F000312000005278204649464F2068617320F5
:1031000064617461202D2031000000007C0000000B
:103110002D0000000A0D000020202020202020206B
:10312000202020202020202020202020202020209F
:103130002020202020200000446174613A200000FB
:103140005B3078253032785D200000002E0A0D00BB
:10315000436C6561726564206461746120726563AB
:10316000656976656420696E746572727570740A3B
:103170000D0000005478526F7574696E6520697394
:1031800020676F210A0D00004372617020746F2068
:103190005478204649464F210A0D00004372617061
:1031A000207375636365737366756C6C7920696EE3
:1031B000205478204649464F210A0D00536B697010
:1031C000706564207472616E736D697373696F6E7C
:1031D0000A0D00004661696C656420746F20736598
:1031E0006E64210A0D000000466C757368656420EA
:1031F000627566666572210A0D0000004D41545FDC
:10320000525420696E7465727275707420616374B3
:103210006976650A0D0000004D41545F52542069E3
:103220006E7465727275707420636C65617265642A
:103230000A0D000054585F445320696E7465727221
:10324000757074206163746976650A0D0000000072
:1032500054585F445320696E74657272757074209F
:10326000636C65617265640A0D000000464C415351
:10327000482045524153452040200000466C617370
:103280006820777269746520676F20402000000015
:103290003B200000206279746573200A0D00000055
:1032A000466C61736820777269746520656E640A84
:1032B0000D000000526561642040200A0D000000EE
:1032C0004C3155444556303031412073746172742D
:1032D000696E672E0A0A0D00436F6E736F6C65206E
:1032E0006F757470757420656E61626C65642E0A0A
:1032F0000D00000042726F7567687420746F20794A
:103300006F752062790A0D004A656E732044656E00
:103310006465720A0D00000050726F647563746911
:103320006F6E732E0A0D00004C4344206163746974
:10333000766974790A0D00004C4344206163746916
:103340007669747920646F6E650A0D005541525498
:10335000206C6F6F706261636B20697320676F0A06
:103360000D0000004144432076616C7565733A207E
:1033700000000000300000003B2000002028303B0F
:10338000202E2E2E3B2037290A0D0000203531310A
:103390003020696E697420646F6E650A0D0000004C
:1033A0002035313130206672616D65627566666503
:1033B0007220636C6561720A0D0000006C757620E6
:1033C0003C3300004B69747469657300620000004F
:1033D000637574652100000020353131302066723C
:1033E000616D656275666665722073657475700AD5
:1033F0000D00000020353131302072656472617734
:103400006E0A0D00506F7765723A204F6E6C696ED0
:10341000650A0D004C315544455620626F6F742E7D
:103420000A0D00002E0000000A0D0000524F4D2032
:10343000636865636B3A0000204F4B0A0D00000083
:1034400053657474696E67200A0D6E6F6465733A14
:103450000000000041542B5253540A0D000000009C
:10346000496E697469616C697A696E67200A0D74C6
:1034700061626C65733A0000202020207C0000000F
:103480007C0000003D00000057656C636F6D652E89
:103490000A0D000054686973206973200000000061
:1034A000746865206675747572652E0A0D000000DB
:1034B000202020202020202020202D4A44500A0DAA
:1034C000000000003E0000005F00000020202020DF
:1034D00000000000000000005768617420746865F7
:1034E000206675636B2064696420796F75206A7546
:1034F0007374206675636B696E67207361792061F0
:10350000626F7574206D652C20796F75206C6974FD
:10351000746C652062697463683F2049E280996C2D
:103520006C206861766520796F75206B6E6F7720EF
:10353000492067726164756174656420746F7020DE
:103540006F66206D7920636C61737320696E2074DF
:103550006865204E617679205365616C732C20611B
:103560006E642049E280997665206265656E206907
:103570006E766F6C76656420696E206E756D65720F
:103580006F7573207365637265742072616964730B
:10359000206F6E20416C2D5175616564612C206136
:1035A0006E6420492068617665206F7665722033ED
:1035B000303020636F6E6669726D6564206B696C74
:1035C0006C732E204920616D20747261696E656490
:1035D00020696E20676F72696C6C6120776172661A
:1035E00061726520616E642049E280996D20746883
:1035F0006520746F7020736E6970657220696E202B
:1036000074686520656E7469726520555320617217
:103610006D656420666F726365732E20596F752027
:10362000617265206E6F7468696E6720746F206DBB
:103630006520627574206A75737420616E6F74689A
:103640006572207461726765742E20492077696CF9
:103650006C207769706520796F75207468652066C5
:1036600075636B206F75742077697468207072655C
:10367000636973696F6E20746865206C696B65732C
:10368000206F6620776869636820686173206E65C3
:10369000766572206265656E207365656E20626571
:1036A000666F7265206F6E20746869732045617261
:1036B00074682C206D61726B206D79206675636B68
:1036C000696E6720776F7264732E20596F7520744E
:1036D00068696E6B20796F752063616E2067657411
:1036E0002061776179207769746820736179696EE8
:1036F000672074686174207368697420746F206D2A
:1037000065206F7665722074686520496E746572F5
:103710006E65743F205468696E6B20616761696EE5
:103720002C206675636B65722E20417320776520AF
:10373000737065616B204920616D20636F6E7461E9
:103740006374696E67206D79207365637265742098
:103750006E6574776F726B206F6620737069657326
:10376000206163726F737320746865205553412024
:10377000616E6420796F75722049502069732062F0
:1037800065696E6720747261636564207269676839
:1037900074206E6F7720736F20796F752062657467
:1037A000746572207072657061726520666F722038
:1037B0007468652073746F726D2C206D6167676F1C
:1037C000742E205468652073746F726D2074686164
:1037D00074207769706573206F7574207468652034
:1037E0007061746865746963206C6974746C6520B9
:1037F0007468696E6720796F752063616C6C2079DD
:103800006F7572206C6966652E20596F75E280991C
:103810007265206675636B696E6720646561642CF0
:10382000206B69642E20492063616E2062652061EF
:103830006E7977686572652C20616E7974696D6543
:103840002C20616E6420492063616E206B696C6C72
:1038500020796F7520696E206F76657220736576AA
:10386000656E2068756E6472656420776179732C6B
:1038700020616E642074686174E2809973206A75B7
:1038800073742077697468206D7920626172652095
:1038900068616E64732E204E6F74206F6E6C792099
:1038A000616D204920657874656E736976656C7901
:1038B00020747261696E656420696E20756E617234
:1038C0006D656420636F6D6261742C206275742075
:1038D0004920686176652061636365737320746F46
:1038E0002074686520656E74697265206172736505
:1038F0006E616C206F662074686520556E69746512
:103900006420537461746573204D6172696E652023
:10391000436F72707320616E6420492077696C6C0C
:103920002075736520697420746F20697473206634
:10393000756C6C20657874656E7420746F2077697F
:10394000706520796F7572206D6973657261626C44
:103950006520617373206F666620746865206661F8
:103960006365206F662074686520636F6E74696E8E
:10397000656E742C20796F75206C6974746C652089
:10398000736869742E204966206F6E6C7920796F98
:103990007520636F756C642068617665206B6E6F4F
:1039A000776E207768617420756E686F6C7920720D
:1039B00065747269627574696F6E20796F757220B3
:1039C0006C6974746C6520E2809C636C65766572CA
:1039D000E2809D20636F6D6D656E7420776173204A
:1039E00061626F757420746F206272696E67206403
:1039F0006F776E2075706F6E20796F752C206D61FA
:103A000079626520796F7520776F756C64206861C5
:103A100076652068656C6420796F757220667563C1
:103A20006B696E6720746F6E6775652E20427574C2
:103A300020796F7520636F756C646EE28099742CC9
:103A400020796F75206469646EE28099742C20611E
:103A50006E64206E6F7720796F75E28099726520B1
:103A6000706179696E67207468652070726963653A
:103A70002C20796F7520676F6464616D6E206964B6
:103A8000696F742E20492077696C6C2073686974A3
:103A9000206675727920616C6C206F766572207972
:103AA0006F7520616E6420796F752077696C6C206A
:103AB00064726F776E20696E2069742E20596F755D
:103AC000E280997265206675636B696E6720646534
:103AD00061642C206B6964646F2E0000C60E0000C8
:103AE000FC0E00002A0E0000440E00005E0E0000D6
:103AF000780E0000FC0E0000FC0E0000FC0E000022
:103B0000920E0000AC0E0000FC0E0000E00E000063
:103B1000CA0F0000001000002E0F0000480F000028
:103B2000620F00007C0F0000001000000010000079
:103B300000100000960F0000B00F00000010000001
:103B4000E40F000000000000003E5B4F5B3E3E6B58
:103B50004F6B3E1C3E7C3E1C183C7E3C181C577D27
:103B6000571C1C5E7F5E1C00183C1800FFE7C3E773
:103B7000FF0018241800FFE7DBE7FF30483A060E85
:103B80002629792926407F050507407F05253F5ACC
:103B90003CE73C5A7F3E1C1C08081C1C3E7F14223C
:103BA0007F22145F5F005F5F06097F017F006689E7
:103BB000956A606060606094A2FFA29408047E042D
:103BC0000810207E201008082A1C08081C2A080853
:103BD0001E101010100C1E0C1E0C30383E38300613
:103BE0000E3E0E06000000000000005F000000070F
:103BF000000700147F147F14242A7F2A122313083D
:103C0000646236495620500008070300001C224118
:103C1000000041221C002A1C7F1C2A08083E0808BC
:103C2000008070300008080808080000606000206C
:103C3000100804023E5149453E00427F400072494F
:103C40004949462141494D331814127F10274545F3
:103C500045393C4A49493141211109073649494909
:103C600036464949291E0000140000004034000077
:103C700000081422411414141414004122140802E0
:103C8000015909063E415D594E7C1211127C7F4953
:103C90004949363E414141227F4141413E7F4949A8
:103CA00049417F090909013E414151737F080808D4
:103CB0007F00417F41002040413F017F08142241A5
:103CC0007F404040407F021C027F7F0408107F3EFF
:103CD0004141413E7F090909063E4151215E7F096C
:103CE000192946264949493203017F01033F4040D3
:103CF000403F1F2040201F3F4038403F63140814BE
:103D00006303047804036159494D43007F414141F5
:103D10000204081020004141417F040201020440D6
:103D200040404040000307080020545478407F285A
:103D30004444383844444428384444287F38545450
:103D4000541800087E090218A4A49C787F08040473
:103D50007800447D40002040403D007F1028440012
:103D600000417F40007C047804787C0804047838A3
:103D700044444438FC1824241818242418FC7C08D3
:103D8000040408485454542404043F44243C404050
:103D9000207C1C2040201C3C4030403C4428102803
:103DA000444C9090907C4464544C4400083641004C
:103DB0000000770000004136080002010204023CC6
:103DC0002623263C1EA1A161123A4040207A385495
:103DD000545559215555794122545478422155540E
:103DE000784020545579400C1E5272123955555561
:103DF00059395454545939555454580000457C414C
:103E00000002457D420001457C407D1211127DF08B
:103E1000282528F07C545545002054547C547C0AB5
:103E2000097F4932494949323A4444443A324A487E
:103E300048303A4141217A3A42402078009DA0A082
:103E40007D3D4242423D3D4040403D3C24FF2424D4
:103E5000487E4943662B2FFC2F2BFF0929F620C0F3
:103E6000887E090320545479410000447D41304844
:103E7000484A32384040227A007A0A0A727D0D1987
:103E8000317D2629292F28262929292630484D40E9
:103E900020380808080808080808382F10C8ACBAE5
:103EA0002F102834FA00007B000008142A14222264
:103EB000142A14085500550055AA55AA55AAFF55AD
:103EC000FF55FF000000FF00101010FF0014141435
:103ED000FF001010FF00FF1010F010F0141414FC7D
:103EE000001414F700FF0000FF00FF1414F404FC9A
:103EF000141417101F10101F101F1414141F00107B
:103F00001010F0000000001F101010101F101010F3
:103F100010F010000000FF10101010101010101002
:103F2000FF10000000FF140000FF00FF00001F1042
:103F3000170000FC04F414141710171414F404F4FC
:103F40000000FF00F714141414141414F700F714ED
:103F50001414171410101F101F141414F41410103C
:103F6000F010F000001F101F0000001F14000000E0
:103F7000FC140000F010F01010FF10FF141414FFD8
:103F8000141010101F00000000F010FFFFFFFFFFD3
:103F9000F0F0F0F0F0FFFFFF0000000000FFFF0F67
:103FA0000F0F0F0F3844443844FC4A4A4A347E020B
:103FB000020606027E027E0263554941633844448C
:103FC0003C04407E201E2006027E020299A5E7A541
:103FD000991C2A492A1C4C7201724C304A4D4D30B2
:103FE0003048784830BC625A463D3E494949007ED7
:103FF0000101017E2A2A2A2A2A44445F444440516E
:104000004A444040444A51400000FF0103E080FF21
:10401000000008086B6B083612362436060F090FAD
:1040200006000018180000001010003040FF0101C9
:10403000001F01011E00191D1712003C3C3C3C00F2
:1040400000000000720077003031323334353637EB
:104050003839616263646566002A2A2A205F4373E7
:1040600079735F616C6C6F63206661696C65640A6B
:104070000000000000000000FFFFFFFFFFFFEF7FD8
:04408000001BB7006A
:040000030000015D9B
:00000001FF
